:020000040800F2
:10000000F06B0020410100086B010008A75D0008AB
:1000100000000000000000000000000000000000E0
:10002000000000000000000000000000999300089C
:100030000000000000000000FF00000889A2000886
:1000400075010008750100087501000875010008B8
:1000500075010008750100087501000875010008A8
:1000600075010008D11E0008DD1E0008211F0008D0
:100070007501000875010008750100087501000888
:100080007501000875010008750100087501000878
:100090007501000875010008750100087501000868
:1000A000750100087501000875010008A5AA00087F
:1000B000B5AA0008C5AA00087501000803488546CE
:1000C00000F070FB0048004709C60008F06B0020F4
:1000D000064B19680868203080F30988022080F3F5
:1000E00014883FBCAE4662B600BD00004403002049
:1000F000EFF3108072B6704780F310887047EFF30B
:1001000009800E4B1A6820381060F0C044464D46F6
:1001100056465F46F0C008B572B60FF08EF962B66B
:100120000CBC116808681030F0C8A046A946B24659
:10013000BB4680F309882038F0C8184744030020E4
:100140000D480E49026800608A4203D00C4880477F
:100150000C4800470C480D4901600D480B490160EF
:100160000C4801688D4640680047FEE7FEE7FEE761
:10017000FEE7FEE7FEE70000F07F0020EFBEADDE09
:1001800039A30008BD00000818100240010000005B
:100190000000014000D8FF1F30B50B46014600208B
:1001A0002022012409E00D46D5409D4205D31D467D
:1001B0009540491B2546954040191546521E002D75
:1001C000F1DC30BD10B5202A04DB0846203AD040CF
:1001D000002110BD0B46D340D0402024A21A9140EC
:1001E0000843194610BD000000487047E8040108A4
:1001F00010B50446FFF7F8FF0068005DC007C00FA8
:1002000010BD01464139192900D8203070470346F6
:100210000B439B0703D009E008C9121F08C0042A3A
:10022000FAD203E00B780370401C491C521EF9D22D
:100230007047D2B201E00270401C491EFBD27047E9
:100240000022F6E710B513460A4604461946FFF7A2
:10025000F0FF204610BD421E5378521C002BFBD1EC
:100260000B781370491C521C002BF9D1704710B544
:10027000044605E00B780370401C002B00D0491C9D
:10028000521EF7D2204610BDCAB2401E4178401C13
:100290008A4202D00029F9D100207047421C01781F
:1002A000401C0029FBD1801A704710B5002200E0E5
:1002B000521C835C8C5CA34201D1002BF8D1D8B2D4
:1002C000E1B2401A10BD30B504460020034600E0FC
:1002D0005B1C934203D2E05CCD5C401BF8D030BD88
:1002E00003460A780270401C491C002AF9D11846BE
:1002F000704730B505460020034600E05B1C934282
:1003000005D2EC5CC85C201A01D1002CF6D130BDBE
:1003100070B5104D002800D12868002414E00A466A
:1003200002E09E4203D0521C1378002BF9D1DAB2BE
:10033000224307D0002B06D0002C04D000210170EE
:10034000401C04E00446401C0678002EE7D12860DB
:10035000204670BD3403002070B506460AF086FCC6
:10036000046805460A220021304600F0C1F82C60DE
:1003700070BD70B506460AF079FC046805460A228D
:100380000021304600F0B4F82C6070BDCB0FDB07C5
:10039000490010B5490802460A4307D00A0D072450
:1003A0000903E401090B121B002A01DC002010BD27
:1003B000C900440F0C43C100E018D205801800F0BA
:1003C000CFF810BD0122D207002800DB101A002947
:1003D00000DB511A814270470122D207002800DB5E
:1003E000101A002900DB511A88427047F0B51FB47B
:1003F0000646002082B005464024019100901BE093
:10040000019922460F463046FFF7DCFE049A059B11
:10041000801A994110D310461946224600F0D4F9AB
:10042000361A8F410197224601200021009F00F0DB
:10043000CBF938184D4100902046641E0028DFDCBF
:10044000019B00982946324607B0F0BD0FB400B5B5
:1004500089B00CA900910B990023CB60204B214A55
:1004600006930792042201921F4A02921F4A0892A1
:1004700002466B46002000F046FA09B008BC04B002
:10048000184770B586B006460020C0430190002092
:1004900015460C460091029104903246694604A824
:1004A000FFF7D4FF024604982118002D05D000283C
:1004B00001D0084600E020462860049800280DD0AE
:1004C000002A02DD0098884208D0081B01900094A1
:1004D00032466946029404A8FFF7B8FF06B070BD23
:1004E0005D0B00087D0B0008FFFFFF7FF101000896
:1004F000F7B5009C0F4600262578641C002D05D01A
:10050000FFF772FE0068405DC007F5D12B2D02D0C9
:100510002D2D18D0641E39462046029A00F040FB6B
:10052000002F04D03968A14201D1009939607105CA
:10053000022400290BDA4042002803DD0AF096FB72
:100540000460A007FEBD012080020643E3E7002807
:10055000F8DA0AF08BFB04600048FEBDFFFFFF7F66
:10056000002904DA401C490001D1400840007047CE
:1005700070B40024050C05D11024000402D1002918
:1005800021D01124050E01D100020834050F01D13C
:100590000001241D850F01D18000A41C002801DB6F
:1005A0004000641C002908D020252E1B0D46F54074
:1005B000A14000D001212943084301061B1B000A6A
:1005C000DB1D02D5002070BC7047DB0518188018B1
:1005D0000029F8DA401C4900F5D170BC4008400001
:1005E00070470000F0B51FB488B00B99099800243B
:1005F00048400999C00F490049080991C0070B9963
:100600000090490049080B9109990898A6460843AB
:100610001CD00B990A98084318D00998012440006F
:10062000420D4800410D099824050003000B2043AA
:1006300009900B980003000B20430B9050181C49A5
:100640004018002201901446104605E000200146A3
:100650000DB0F0BD032801DA034600E003239C46F9
:10066000C11A0AAE0AE05F0008ADED5B4F00F75B10
:100670007D430027AA187C41491C5B1E6145F2DDC1
:10068000410004AB5A522104120C0A43240C401CB2
:100690000828DFDB019802900099704601910090D4
:1006A000059B049A0799069800F0DAFAD0E7000053
:1006B0000DFCFFFFF0B50C465C4085B0E40FE4078D
:1006C00003944C00002664085900944649080246E9
:1006D0000296224321D062460A431ED06200570D83
:1006E0004A000E032303550D012402462C4924051C
:1006F000781B1B0B360B40182343264361460090A2
:100700001C46501AB44103D30098401C009002E0EC
:10071000921800985B41002803DA0020014605B0DA
:10072000F0BD0020012109050746864611E0644618
:100730001D46141BB54106D36546521BB341744692
:1007400007430C43A646CD074008490828439218A2
:100750005B4105460D43EAD11046184313D060466D
:10076000194650407140084306D06046101AB34104
:1007700006D20122002306E000220123DB0702E06B
:100780000122D2435310009874460105381C614180
:10079000029C039D0019694100F055FABFE7000073
:1007A000FD030000064C0125064E05E0E36807CC7A
:1007B0002B430C3C98471034B442F7D3FFF782FC2C
:1007C0005C2601087C26010810B5202A04DB0146BE
:1007D000203A9140002010BD914020239C1A0346EE
:1007E000E3401943904010BDFFB5087889B0154625
:1007F000FF2805D0491C2D2804D00022002407E042
:1008000000240BE00122F9E70A235C430419491C88
:100810000878FF28F8D1002A00D064420020049014
:100820002A7801462D2A01D02B2A0FD16D1C2D2AA2
:1008300002D00022049209E00122FBE700260A22EE
:1008400033466D1C00F05EFA381871412F78FF2F87
:10085000F4D10C9AA218069202460A4304D0FF2350
:10086000069A9133DA4205DA002109980A4606C051
:100870000DB0F0BD0024B74AB54D2646079200F0F2
:100880008DFA029006980391002801DA474200E0B1
:10089000074639050020AF4A001C514101910090E4
:1008A00012E0F80707D022462B4630460799FFF79B
:1008B00099FE0646079122462B4610461946FFF739
:1008C00091FE04460D467F10002FEAD10698019B49
:1008D0000028009A0399029806DAFFF7EBFE3246E9
:1008E000079BFFF7E7FE05E0FFF77CFE3246079B1C
:1008F000FFF778FE049A002A02D00122D207514065
:10090000099A03C2B4E7FFB591B000200990002511
:10091000ED432E209E685C681F460190B9696D1CEE
:10092000129888470090396A88470028F6D10098C5
:10093000401C0AD00D20C0018443002E12DD009817
:100940002B2809D02D280DD103E00020C04315B07D
:10095000F0BD012080020443B9696D1C12988847DC
:10096000761E009003A9600501D52D2000E02B2004
:100970006A461073491C0CA80F9102900AE0B969ED
:100980006D1C129888470090012040020443139880
:10099000761E0560002E02DD00983028EFD0019908
:1009A0000098884246D18020044308E00998401E00
:1009B00009900120400204431399681C0860B9693A
:1009C0006D1C761E1298884700903028EED031E0DA
:1009D0000199884205D1200603D480200443761E65
:1009E0001EE000980AF0B8F9002826D00120400245
:1009F000044307A90F980331761E88420BD2009852
:100A00000F99303808700F98401C0F90200607D5BA
:100A10000998401E03E0200602D40998401C099062
:100A2000A00502D51399681C0860B9696D1C12985D
:100A300088470090002ECBDC59E0002E57DD00984F
:100A4000652801D0452852D1A00550D503200002C9
:100A50008443B9696D1C761E129888470090002E59
:100A60000CDD2B2804D02D2808D1FF2001300443B1
:100A7000B9696D1C12988847761E0090E00501D573
:100A80002D2100E02B21029801700298401C029059
:100A9000019025E00120400204430EA90298013193
:100AA000761E88420ED20098029930380006000E59
:100AB000087003D10299019881420AD90298401C1A
:100AC000029006E0E00501D5234801E022484042BB
:100AD0000990B9696D1C12988847009013980560B9
:100AE000002E04DD00980AF037F90028D2D1F96908
:100AF000129888470F99FF200870029903AA08707E
:100B000000200A900B900CA90AA8099BFFF76CFE25
:100B1000A00502D40120C04319E72420044209D0D3
:100B2000E00713D138680B9A0A99031D3B600068EF
:100B300006C00BE00B990A98FFF728FC0146E00776
:100B400004D13868021D3A60006801602846FEE65C
:100B5000000014400000F03FF1D8FFFF4268002A77
:100B600008D001680B78491C002B03D0521E06C028
:100B7000184670470121C160881E70474268002AEC
:100B80000BD0C3680168002B07D183688B4204D067
:100B9000491E521C06C0002070470020C043704709
:100BA000F7B582B0029C00272078641C1546019797
:100BB000302802D0002D15D015E020780127641CC4
:100BC000782804D0582802D0002D09D00BE0002D41
:100BD00001D0102D07D1002710252078641C02E0D9
:100BE000082500E00A250026009610E0009901275C
:100BF00069430818020C294680B2714300908E1890
:100C00003804864201D3012001902078641C2946D3
:100C100000F0B5F80028E9DA0398002805D0002F85
:100C200001D0641E00E0029C04600198002806D0F8
:100C30000AF01CF802210160C81E05B0F0BD009941
:100C400030040843F9E710B5002B08DA0024401CF3
:100C5000614192185B411A4301D14008400010BD28
:100C6000F0B51FB482B005460C0003D0084609F069
:100C7000D9FF02E009F0D6FF20300246009021465D
:100C80002846FFF7A1FD049B059A04460F4618432A
:100C90001143084314D0184610431BD0009840213C
:100CA0000A1A18460599FFF78DFA05460E46009A6E
:100CB00005990498FFF788FD084305D0012004E05A
:100CC0002046394607B0F0BD0020C11705430E434A
:100CD0002C43374300990E986305401A7905E40ABE
:100CE00000220C43FD0A0A3002D500200146E9E744
:100CF0000105101969410C9C0D9D00196941FFF710
:100D0000A2FFDFE7F0B51FB486B00020009001908D
:100D100002900698069980B204900798090C020484
:100D20000014114307900027089D099806913E463C
:100D30003C4603900398A9B20204000C0390049867
:100D40002D0C1543484300212246FFF73DFDC719EE
:100D5000714110340E46402CECDB3846029AFFF706
:100D600033FD009A019B801800905941029801912F
:100D7000103002904028CCDB00980BB0F0BD3A2830
:100D800000D23038202302469A43412A01D310462C
:100D90003738884201D30020C04370470EB5054A5A
:100DA00002920022009213460192FFF759FF03B00E
:100DB00000BD00003304000070B58C180578401C9D
:100DC0006B075B0F01D10378401C2A1106D1027812
:100DD000401C03E006780E70401C491C5B1EF9D1D4
:100DE0002B0705D40023521E0DD40B70491CFAE7C3
:100DF0000378401CCB1A921C03E01D780D70491C2F
:100E00005B1C521EF9D5A142D8D3002070BD000052
:100E1000F3B581B0002100910024334E401E4500FF
:100E20000B20604381190298FFF73FFA002811D088
:100E3000641C0A2CF4DB00242C4FA000C11902987A
:100E4000FFF733FA00280DD0641C042CF5DB0124D5
:100E5000274F13E0274A0120515BA0400143515323
:100E60000098FEBD0620FEBD0B20234960434118BB
:100E70000298FFF71AFA002806D0641C787884429A
:100E8000F2DB1E48786310E00720FEBD00680468AE
:100E90002046FFF703FA024621460298FFF729FA97
:100EA000002817D0786B40687863786B0028EDD104
:100EB000002420460B214843305C00280CD0641CE1
:100EC0000A2CF6DB0B4A0120515BA0400143515331
:100ED0000098FEBD0820FEBD0B20604380190299DA
:100EE000FFF7FEF9EEE7000042050020BA01010815
:100EF0001800002072090020530800201003002071
:100F0000F3B58DB00C4600200B90414EB07A00280E
:100F100008D04048A50040590BF000FC3E4840591D
:100F20000BF0FCFB3D4904200855B07A002804D0A2
:100F3000204602F0FBFD04F068FB02A8009004AB21
:100F400003AA05A9204602F063FD68468089069041
:100F50000120079000250895099506A9059803F03A
:100F6000A9FB68460089069007950220089006A90B
:100F7000049803F09FFBE100294A611889180D9835
:100F80004870601E85002E46EC36B0B201A901F013
:100F9000D9FE0D9A210312021143B21C771CEF35C2
:100FA00089B20C92002813D00191B0B201F03EFF3B
:100FB000B8B2002101F03AFF0C98002180B201F094
:100FC00035FFA8B2002101F031FF0B980FB0F0BD42
:100FD00068468088000A0209A24206D102070D98DD
:100FE000120F824201D10020F0E70191B0B201F06E
:100FF0001DFFB8B2002101F019FF0C98002180B24A
:1010000001F014FFA8B2002101F010FFDDE700009D
:10101000180000200812002024120020CE01002019
:10102000710C0020F8B50F4601280FD02C4E2D4D25
:1010300031781422491E5143491902280AD0032845
:1010400046D10120087408F05FFA41E0384605F007
:1010500017FEF8BDC868002823D0FFF71FF9044623
:101060003846FFF71BF9011930781422401E50430F
:101070004019891CC0680CF063F831781422491EAD
:1010800051434919C860611C40183946FFF728F9D7
:1010900030781422401E132150434019C068015576
:1010A0000EE03846FFF7FAF8401C09F015FE3178DB
:1010B0001422491E51434919C8603946FFF710F9F7
:1010C00030781421401E48434019C168002901D0DE
:1010D0000020F8BD1421FFF7B3F80E20F8BD000082
:1010E00070020020D40F0020F0B587B00E9E0F9D37
:1010F0000D9C7D273F01D21B6F46FA767876B97634
:101100003B76002206A91D4804F006F9002802D00B
:10111000FF2007B0F0BD69460E714C710C988871C4
:10112000002005901822164C0C2E00D962730C2159
:10113000012D0BD0022D0DD06273002201A90F48A2
:1011400004F05AF900280AD0FF20E2E76A4610733B
:101150006173F2E740206A4610736173EDE7607BCC
:10116000010220790143FF201B3001F05FFE054A98
:101170000121024804F02BF80020CAE7A80E002045
:101180009C0D0020F2320000F8B507F029F902F0BA
:1011900099FC01F0BFFB02F067FB00F01FFF09F0B4
:1011A0006DF900F0E1FA09F03BF904F00FFE0028B8
:1011B00003D001F09FFB05F079FC04F079FE0028D4
:1011C00012D0322008F0D6FE05F04CFBE120304D65
:1011D0004002A86001242046A96809F0DBFC641CD9
:1011E000E4B2062CF7D904E0322008F0C3FE05F083
:1011F00039FB05F0DBF809F0D7FC264C0126A07876
:101200000925FF27F602ED06F537002831D0012227
:101210003146284603F005FB384608F0ABFE0022B5
:101220003146284603F0FDFA642008F0A3FE0122AF
:101230003146284603F0F5FA642008F09BFE0022B0
:101240003146284603F0EDFA642008F093FE0122AF
:101250003146284603F0E5FA642008F08BFE0022B0
:101260003146284603F0DDFA08F076F80120A07236
:10127000F8BD01223146284603F0D3FA384608F07B
:1012800079FE00223146284603F0CBFAECE7000055
:101290009C0D002018000020F0B585B04020009083
:1012A000022401940026029603270397042504953F
:1012B00009206946C00603F0FDF9009401940296E6
:1012C000039704956946024803F0F4F905B0F0BDB0
:1012D0000004004800B585B0012000030090002004
:1012E000019002906946024803F0E4F905B000BDA0
:1012F0000004004800B585B08020009001200190D6
:10130000002002900320039009206946C00603F0E4
:10131000D1F905B000BD000000B585B004200090F3
:1013200001200190002002900320039069460248AA
:1013300003F0C0F905B000BD0004004800B585B059
:1013400001208003009001200190002002900320E2
:1013500003906946024803F0ADF905B000BD0000F6
:10136000000400488AB000250020009008F01EFD0F
:101370000126A448805D012801D0002870D1701E8C
:10138000810109904018A049089040180446403057
:1013900007900078482804D19B480899405C5A2857
:1013A00006D00127E0192038C07F482802D004E089
:1013B000402513E0E05D5A2802D0402F02D00AE019
:1013C0007D1E0BE00020215C0D290DD0401C412822
:1013D000F9DB012000907F1C412FE3DB00980028FF
:1013E00013D00020009004E100212154874B854850
:1013F0001A788154032181551E70854800230222EA
:10140000194680690DF03AF8E3E73E2D23D03F2DD1
:1014100027D0402D2BD0601980780190EF1C0198C7
:101420004006400E06904019C01C029002984028C9
:1014300002DD029841380290029885427ED00298DF
:10144000854218DA069A6119D21C724802F0FFFB35
:101450006F49087023E00798007801900027DEE7C5
:10146000ADE069490898085C01900127D7E76078EA
:1014700001900227D3E74120421B6119654805927C
:1014800002F0E5FB62490870059A06982146821A27
:10149000D21C604802F0AEFB01465D4801705C4919
:1014A000087800284ED0029AA25C82424AD1554860
:1014B000012181555848019980192038C177402170
:1014C0000698CA1B904209DC099A382042435348C7
:1014D000E1191018069AFEF79AFE13E0099B3820CE
:1014E00043434E48E11918180490FEF790FE41203E
:1014F000C11B069A0498521A4018521C401E2146DD
:10150000FEF785FE0298854205DA06996019091DE5
:10151000FEF796FE0CE04020411B6019FEF790FE9E
:1015200041210698491B411A491D2046FEF788FEB5
:1015300037488188491C8180304600E002E005F090
:101540001FFB56E040210698CA1B904209DC09980F
:1015500038225043314AE1198018069AFEF757FEA7
:1015600013E00998382358432C4BE119C018039015
:10157000FEF74DFE4120C11B069A0398521A4018EF
:10158000521C401E2146FEF742FE0298854205DAB3
:1015900006996019091DFEF753FE0CE04020411B1F
:1015A0006019FEF74DFE41210698491B411A491D5D
:1015B0002046FEF745FE16494888401C48801848DA
:1015C00080192038C17F012913D10021C1770D482E
:1015D000825D052A00D18155304602F0A7FA034604
:1015E000701E81014118084841220918184604F06C
:1015F00009FA761CF6B2062E00D8BAE60CF03AFECE
:10160000B6E60000CE0100203810002021000020A6
:1016100090020020F0180020C8010020A40900203A
:10162000880200201FB50A460123991E01910291EC
:1016300002240449009403938B78194608F0ACFC0B
:1016400004B010BD1800002038B51C460D4B012514
:10165000DD701971FF290CD013460146FE220020CF
:10166000009408F023F821460748FEF7E9FD002022
:1016700038BD13460146FF220020009408F016F8FA
:10168000F1E70000180000202C0B002038B50024E2
:101690000A4A0023D3701071FF2807D00091FE2260
:1016A0001946184608F002F8204638BD002300917C
:1016B000FF221946184607F0F9FFF5E71800002049
:1016C00070B5002355080AE09C000C5B5E00240402
:1016D000761C76008E5B3443066834605B1C9D424A
:1016E000F2D8D20703D09A00895A026811800068A4
:1016F000006870BDF0B5002397080EE09D006C18DF
:101700004D5DE6782D062E436578A4782D042402DD
:10171000254304682E4326605B1C9F42EED8940745
:101720001FD09407A40F012C03D19D0006684D5DC6
:101730003570022C07D19C000D5D2D026418647871
:10174000254304682580D24392070AD19A008B5C16
:101750001B0251184A781343026813800268897883
:10176000117000680068F0BD10B5084806490160B6
:101770001021C1600021417101714161816101212C
:10178000016202F095FA10BD00300240F01800200E
:10179000F0B587B00020019000250124E00020185A
:1017A000DF4F0690C6197078002876D0DD48007BA0
:1017B000002802D106980021395402A8009004ABF9
:1017C00003AA05A9204602F023F968468189002270
:1017D000059803F026F80A2008F0BAFB684601894C
:1017E000049803F013F800280ED16846818901227D
:1017F000059803F016F80A2008F0AAFB684601894C
:10180000049803F003F80190684681890022059846
:1018100003F007F87078012806D002280FD00328BB
:1018200018D004282BD120E00198012803D001987A
:10183000002802D023E0042521E003251FE00198C1
:10184000012803D00198002802D018E0042516E0F2
:10185000032514E00198012803D00198002802D044
:101860000DE002250BE0012509E00198012803D0D5
:101870000198002802D002E0012500E00225042D95
:1018800001D0022D0CD1A64AA0003F321158A64B20
:10189000994203D2491C115002E0C7E000211150C7
:1018A000032D01D0012D21D19D4AA0005B3211589A
:1018B0009D4B994202D2491C115001E00021115068
:1018C000984B587D022808D19849994A085D527969
:1018D000904202D8401C085508E0944994480A5D9B
:1018E0004079824202D90020587508558C489049A9
:1018F000A7003F300988C0598C46884242D36045D2
:1019000007D1874A06990723535411463F31401C9B
:10191000C8518348864B5B30C259624501D90021CA
:10192000C1517F4859883F30C0591A4688421BD957
:10193000FF21F531884217D27A49487D002802D02C
:10194000022803D01EE0012048751BE0774B117977
:10195000185D884216D95179884213D27148032103
:101960004175002018550DE0FF387249F53888425E
:1019700008D26C48417D002901D0002141752046E4
:1019800000F0DAF866486A495B300A88C059944624
:10199000904238D3604507D1614A069908235354D1
:1019A00011465B31401CC8515D4A61493F32D059F4
:1019B000604501D90020D051594849885B30C05951
:1019C000884218D9FF21F531884214D25549487D03
:1019D000012802D0032807D015E0514A06980523B4
:1019E0001354022048750EE04D4A069806231354FE
:1019F0000020487507E0FF384E49F538884202D28A
:101A0000204600F0BDF8464F0698385C401F0300A2
:101A100009F01FF90A1421060D2E3B495764727F05
:101A200020460AF075F906990020785471E02046A6
:101A30000AF070F90699002078546AE03948017B71
:101A4000002966D1317AC90763D00121017320468C
:101A50000AF05CF95DE03348017B002959D1317A05
:101A6000890756D50121017320460AF050F950E04C
:101A70002C48017B00294CD1317A490749D50121F5
:101A8000017320460AF045F943E02648017B00290E
:101A90003FD1317A09073CD501210173022120464B
:101AA0000AF037F935E01F48017B002931D1317A3E
:101AB000C9062ED501210173032120460AF029F918
:101AC00027E01848017B002923D1317A890620D5E7
:101AD0000121017320460AF01EF91AE01148017B2A
:101AE000002916D1317A490613D50121017302214B
:101AF00020460AF010F90CE00A48017B002908D1C1
:101B0000317A090605D501210173032120460AF027
:101B100002F9641CE4B2062C00D83FE607B0F0BD21
:101B2000710C002018000020FFFF0000D5010020EC
:101B30009C0D00200BFE0000F0B50026C1000F4BED
:101B40004118CA189478D57812797D27FF007C4314
:101B50007D437A43870018463F30C059A04202D1E6
:101B60000920585407E00A24A84201D15C5402E03D
:101B7000904200D15C543046F0BD0000710C002052
:101B8000F0B50026C1000F4B4118CA185479957959
:101B9000D2797D27FF007C437D437A438700184636
:101BA0005B30C059A04202D10C20585407E00D24EC
:101BB000A84201D15C5402E0904200D15C5430460E
:101BC000F0BD0000710C002038B5142148433049A5
:101BD0000A5C4118012A04D0022A56D0032A54D1A3
:101BE0000BE08878C978C20080182A4A105C8142CC
:101BF00001D1012038BD002038BDC8780C22401E1C
:101C00005043254A10580468C8886A4610800889DD
:101C100050804878030009F01CF80738050C131DA4
:101C2000242E380020460099FEF7CCFB2DD1012050
:101C300038BD20460099FEF7CFFB26D2012038BDE3
:101C400020460099FEF7BEFB1FD26000000E1CD09C
:101C5000012038BD20460099FEF7BEFB15D80120B3
:101C600038BD20460099FEF7ADFB0ED86000000E8F
:101C70000BD0012038BD20460099FEF7A3FB04D00D
:101C80006000000E01D0012038BD002038BD0000EA
:101C9000D40F0020710C0020C8020020F8B50025E8
:101CA00032210D48FEF7CCFA01240B4E0B4F0DE00C
:101CB000601E4000315A002902D0601C01F0B6F8C5
:101CC000A01C1C2800D30A25641CE4B27878844246
:101CD000EED92846F8BD0000D607002018000020E5
:101CE00010B506490648FEF7ABFA064801214170D7
:101CF0000021817007F008FC10BD000026020000E2
:101D0000B00500201800002090B038216846FEF78A
:101D100097FA5B4C5B4D2046FF301E300F90401F02
:101D2000594F0026FF3401340E900021C943012091
:101D30000CF034F9207F3038E17E0A2230395143EB
:101D40000818A17E6422303951430818617E7D2233
:101D50003039D2005143081880B2E8804B4940180E
:101D6000030008F076FF110A116565656565656514
:101D7000651965212B65345B650001220920D102BC
:101D8000C00602F04EFD53E0012109200022C902E5
:101D9000C00602F046FD4BE02E707879001FC1B2FC
:101DA0000F9809F0D7FE43E0012068702E70787913
:101DB000001FC1B20F9809F0C5FF39E06E702E7098
:101DC0007879001FC1B20F9809F0C4FE30E02E7080
:101DD000607F30280FD02EA1684608F00FFF3349EE
:101DE00031480978405C03280AD00122A8780F996D
:101DF00009F09EFE1CE02EA1684608F0FFFEEEE70B
:101E00006846FEF74BFAC1B2684609F0A3FEFF2010
:101E100028700121A8680CF093FB09E023492248AF
:101E20000978405C03281FD0A97801200BF01AFB29
:101E300038216846FEF704FA38210E98FEF700FABA
:101E40007E711949887902280BD0032809D004280B
:101E500007D08E71062001F069FE01221B4903F0B4
:101E600015FE0CF007FA60E7002108460BF0FAFABD
:101E7000FF2028700121A8680CF062FBD8E7000061
:101E8000A4090020D4020020C801002055F9FFFF5A
:101E9000436F6E6E656374696F6E206661696C6511
:101EA00064202E2E2E0D0A00CE01002021000020DD
:101EB000436F6E6E656374696F6E207375636365DF
:101EC00065646564202E2E2E0D0A00001D00002082
:101ED00010B5012000F056F810BD000010B50D48F7
:101EE0000068C043C00603D4052000F04BF810BDC5
:101EF00009480168C943C90503D4022000F042F82B
:101F000010BD0068C043C006FAD4044801F038FF91
:101F100010BD00000004024000000240F81600203E
:101F200010B515480168C943C90303D4032000F064
:101F300029F810BD0168C943C90203D4042000F088
:101F400021F810BD0D490968C943C90503D406200D
:101F500000F018F810BD0168C943C90403D408484B
:101F600001F00EFF10BD0068C043C001FAD4044860
:101F7000383001F005FF10BD0000024000040240AF
:101F80003017002070B504461048611E005D0D46F4
:101F900038225143022804D00D48081801F0F0FE01
:101FA00070BD0C48081801F0EBFE0B48A9000A4A66
:101FB0004058183A002802D053585B1C53505158CF
:101FC0008142EDD3204608F0B9F870BDCE01002063
:101FD000A8150020A0170020F011002008B5214806
:101FE00041690122114341614169114000914269F7
:101FF00002210A4342614069084000901A491B4887
:1020000000F03AF8184919482831383000F034F80F
:10201000154916485031703000F02EF81249134817
:102020006431A83000F028F810481149E03000F081
:1020300023F80F490F48143100F01EF80A490D48E3
:102040001431383000F042F807490A483C3170300A
:1020500000F03CF8044907487831A83000F036F821
:1020600008BD00000010024008000240A815002032
:102070001C040240C016002010B501600021416020
:1020800081608022C2600161416120218161090279
:10209000C16102F003FA10BD70B504460D46294631
:1020A000204606F039FA0021284607F081FD204637
:1020B00001F080FC401E8101401803494122411873
:1020C000204603F09FFC70BD3810002010B5016061
:1020D00010214160002181608022C2600161416164
:1020E00081619101C16102F0D9F910BD10B50246BC
:1020F0000E48416A002908D0C06D002807D00B485F
:1021000080304069002805D006E0084C04E0074C08
:10211000383401E0054C70342146104606F054FD79
:102120000021204607F044FD10BD0000F8160020F5
:1021300010B50446206E08F0DBFC216E00204862DA
:10214000206610BD10B50160002141608160C16052
:102150000161416120218161C901C16102F09EF9E3
:1021600010BD0000F8B504460D461646204601F0A5
:1021700021FC401E3821484309494718394620466A
:1021800006F0CAF90121384607F012FD0121692045
:102190000155296832462831204603F033FCF8BD4A
:1021A000A017002010B5046863604368102B04D0AA
:1021B000036899600068C26010BD03689A60006897
:1021C000C16010BDF1B582B001F09EFA0190019896
:1021D00000250570714C72A1A278784808F00EFDB8
:1021E00076490198FEF737F8627A75A1734808F0CE
:1021F00005FD72490198FEF72EF80223002277A10F
:102200006E48009508F0FAFC6C490198FEF723F837
:102210007AA27DA1694808F0F1FC68490198FEF7AF
:102220001AF87FA281A1654808F0E8FC634901988B
:10223000FEF711F884A1614808F0E0FC5F490198BD
:10224000FEF709F80124854D224685A15B4808F078
:10225000D5FC5A490198FDF7FEFF285D030008F000
:10226000F8FC0504090E13181C007FA1534808F060
:10227000C5FC12E07EA1514808F0C0FC0DE082A12F
:102280004E4808F0BBFC08E082A14C4808F0B6FCC0
:1022900003E087A1494808F0B1FC48490198FDF7DF
:1022A000DAFF641CE4B2062CCED989A1434808F0B9
:1022B000A5FC42490198FDF7CEFF01248A4E601E1D
:1022C0000146382250430546305800285BD088002C
:1022D0008649085801F06EFB0746A819406A01F0CC
:1022E00069FB0346224682A13448009708F086FC29
:1022F00032490198FDF7AFFF641CE4B2062CDED929
:1023000055A10198FDF7A7FF85A10198FDF7A3FF4F
:102310000198FDF7C3FF85B20124204E884FB078A5
:10232000401E4000395A621E0120C003D0400142C5
:1023300008D0224683A1214808F060FC1F4901987B
:10234000FDF789FF641CE4B2062CE8D90198FDF77B
:10235000A5FFA84203D17DA10198FDF77CFF3EA116
:102360000198FDF778FF029800280BD00198FDF73F
:1023700095FF82B20020C043009032230199029859
:102380000CF042F8FEBD224672A10C4808F036FC63
:102390000A490198FDF75FFFAEE700001800002032
:1023A0000A0D2A2A2A204D6F64756C652025642049
:1023B000537461747573202A2A2A0A004C0D002078
:1023C0000A0D436F6E6E65637465642076696120E3
:1023D000706F72743A205025640A0D000A0D466928
:1023E000726D776172652076657273696F6E3A20DF
:1023F00025642E25642E25640000000041756720A9
:1024000020342032303139000A0D4669726D77610F
:10241000726520646174653A2020202025730000D5
:1024200030303A31333A3334000000000A0D466947
:10243000726D776172652074696D653A2020202085
:1024400025730A0D000000000A0D506F727473208E
:102450005374617475733A0A0A0D0000CE010020AE
:102460005025643A20000000467265650A0D0000A0
:10247000526563656976696E67206D657373616720
:1024800065730A0D0000000053747265616D696E1A
:10249000670A0D00526563656976696E672075731A
:1024A000657220636F6D6D616E64730A0D000000CC
:1024B000436F6E6E656374656420746F2061206283
:1024C0007574746F6E2F7377697463680A0D0000FA
:1024D0000A0D444D412053747265616D732053742D
:1024E000617475733A0A0D00A0170020C011002016
:1024F0000A0D53747265616D696E6720444D412009
:1025000025642069732073747265616D696E67203C
:1025100066726F6D2050256420746F205025640012
:102520000A0D546865736520706F72747320617250
:10253000652072657665727365643A20000000005C
:10254000D607002050256420000000004E6F6E6505
:10255000000000000A0D53747265616D696E67209A
:10256000444D412025642069732066726565000032
:10257000F1B582B022A1294808F040FB2748FDF7B9
:102580008DFE002782B2FF43322324490097029830
:102590000BF03AFF012520E00124681E4600204888
:1025A000621E815B0120C003D04001420FD0234650
:1025B0002A461CA1194808F021FB1848FDF76EFEB9
:1025C00082B232231549009702980BF01DFF641C5C
:1025D000E4B20A2CE3D96D1CEDB21748407885426D
:1025E000DAD916A10D4808F009FB0C48FDF756FE94
:1025F00082B232230949009702980BF005FFFEBD15
:102600000A0D546865736520706F7274732061726F
:10261000652072657665727365643A004C0D002022
:10262000D60700200A0D4D6F64756C652025642067
:102630003A20502564000000180000200A0A0D41CD
:102640006C6C206F7468657220706F727473206197
:102650007265206E6F726D616C0A0D00F1B582B00B
:1026600049A14E4808F0CAFA4C48FDF717FE00266B
:1026700082B2F64332234949009602980BF0C4FE19
:102680000124224646A1454808F0B8FA4348FDF720
:1026900005FE82B232234149009602980BF0B4FE47
:1026A000641CE4B2062CECD9322303223EA100962E
:1026B00002980BF0A9FE002551E06A1C3BA13748A7
:1026C00008F09CFA3548FDF7E9FD002482B2E443A6
:1026D00032233249009402980BF096FE16202F46C2
:1026E000354E4743F05B06214843344905224118E3
:1026F0002A48FDF7BCFD32230522284900940298A0
:102700000BF082FE3223012223A1009402980BF0E9
:102710007BFE01243046A61E3F186000385A002870
:102720002BD04307C2085B0F25A11C4808F066FAAE
:102730001A48FDF7B3FD82B2322318490096029879
:102740000BF062FE641CE4B2062CE6D932230222AE
:102750001DA1009602980BF057FE6D1CEDB21B48B0
:1027600040788542A9D30020C04300903223012243
:1027700017A102980BF048FEFEBD002215A10748E4
:1027800008F03CFAD4E700000A0D284D6F64756C20
:10279000653A506F72742909090000004C0D002041
:1027A00050256409000000000A0A0D004D6F647591
:1027B0006C652025643A0900B00500203C01010841
:1027C00025643A25640900000A0D00001800002065
:1027D0000A0000002564090013490988134A128879
:1027E000002816D0012801D0002070471048002A88
:1027F00003D0002907D0AB207047814201D10020CF
:10280000704702207047824201D1022070470020A9
:102810007047002903D0002A03D0AB207047002066
:10282000704702207047000000E0010800F0010836
:10283000EEEE0000F8B501F02BFF274F384600F010
:10284000B7FD264D284600F0EDFD254C002802D0AE
:10285000E06980B2F8BD234800F0AAFD284600F0E8
:10286000E1FD002802D0E06980B2F8BD1E4E30695B
:10287000022188433061002213463946012001F0CD
:10288000C5FE284600F0CEFD002802D0E06980B2E7
:10289000F8BD3069400840003061144800F088FD00
:1028A000284600F0BFFD002802D0E06980B2F8BDE4
:1028B0000F4800F07DFD284600F0B4FD0546002DD0
:1028C00002D0E06980B2F8BD306940084000306154
:1028D00001F092FE2846F8BD00E0010850C3000058
:1028E000B004002000E801080020024000F00108C8
:1028F00000F8010870B5054C054D206BA84204D0C6
:10290000FFF798FF002800D1256370BDC07F00202D
:10291000ADDEEFBEF8B50025ED4301F0B9FEBB48D2
:102920000188BB480088BB4E2A0CBB4F002979D0D8
:10293000BA4BC91866D0BA4AD14210D1002819D072
:102940005942884254D1B14800F032FDB54C20467E
:1029500000F068FD002829D0F06980B2F8BDFFF7CB
:1029600069FFB04800F05EFD0028F7D101F044FE99
:102970000020F8BDA54800F01BFDAA4C204600F041
:1029800051FD002802D0F06980B2F8BDA64800F0E1
:102990000FFD204600F046FD002802D0F06980B20D
:1029A000F8BD3869022188433861DFE79E4800F0AE
:1029B000FFFC204600F036FD002802D0F06980B20E
:1029C000F8BD3969022081433961002213469049DC
:1029D000012001F01BFE204600F024FD002802D05B
:1029E000F06980B2F8BD3869400840003861BDE741
:1029F000FFF720FF8B4800F015FD0028B6D0F069E6
:102A000080B2F8BD00280ED090427ED1804800F000
:102A1000CFFC844C204600F005FD002852D0F06920
:102A200080B2F8BD7BE001247848C088A04200D184
:102A300025B2AC4212D07D49204600F083F901282E
:102A40000CD07A480188204600F0A0F90090754823
:102A500000F0E8FC002801D00098E2E7641CA4B272
:102A6000012080028442DFD90022134667490120F9
:102A700001F0CCFD6B4C204600F0D4FC002802D0C5
:102A8000F06980B2CDE7386940084000386160489D
:102A900000F08EFC204600F0C5FC002802D0F06952
:102AA00080B2BEE7624800F083FC204600F0BAFC2A
:102AB000002802D0F06980B2B3E738690221884368
:102AC000386153E75A4800F073FC204600F0AAFC36
:102AD000002802D0F06980B2A3E73969022081435F
:102AE0003961002213464949012001F08FFD20463B
:102AF00000F098FC002803D0F06980B291E704E070
:102B0000386940084000386130E7FFF793FE4548D8
:102B100000F088FC0028D4D0F06980B281E700285A
:102B20000DD0904223D13A4800F042FC3D4C204663
:102B300000F078FC00280AD0F06980B271E7FFF756
:102B400079FE384800F06EFC002886D10EE7384840
:102B500000F02EFC204600F065FC002802D0F06951
:102B600080B25EE73869022188433861FEE60124BD
:102B70002748C088A04200D125B2AC4212D02B49D0
:102B8000204600F0DFF801280CD0284801882046B4
:102B900000F0FCF80090234800F044FC002801D02D
:102BA00000983EE7641CA4B2012080028442DFD971
:102BB000002213461649012001F028FD194C204639
:102BC00000F030FC002802D0F06980B229E73869B3
:102BD0004008400038610D4800F0EAFB204600F054
:102BE00021FC002802D0F06980B21AE70E4800F0FC
:102BF000DFFB204600F016FC002802D0F06980B20E
:102C00000FE73969022081433961AFE600E001082E
:102C100000F00108B0040020002002401211FFFF64
:102C2000EFEEFFFF50C3000000E801088E02002015
:102C300000F80108F3B581B00C4601F029FD002031
:102C4000FFF7CAFD3849394D022803D0002803D0C8
:102C5000AB20FEBD0F4601E02F460D46344A00234F
:102C60003946012001F0D2FC324800F0DBFB324E45
:102C7000002802D0F06980B2FEBD304801694908E1
:102C8000490001612146019800F080F80028F3D145
:102C90000124019884420CD02949204600F052F8C2
:102CA000012806D026480188204600F06FF8002849
:102CB000E2D1641CA4B2012080028442E9D92846F2
:102CC00000F076FB1B4C204600F0ACFB002802D045
:102CD000F06980B2FEBD0120C002281800F068FB38
:102CE000204600F09FFB002802D0F06980B2FEBDB4
:102CF000124D286902218843286100221346394673
:102D0000012001F083FC204600F08CFB0446002CDF
:102D100002D0F06980B2FEBD2869400840002861F9
:102D200001F06AFC2046FEBD00E0010800F0010849
:102D3000EEEE000050C30000B0040020002002406E
:102D40008E02002070B505460E4601240020FFF7D4
:102D500043FDAB2808D00C4AC1028918801CC00270
:102D6000921E8218891C0AE0AB2070BD1088A84210
:102D700004D1403AD08F3080002402E0121F8A42F2
:102D8000F4D8204670BD000000E00108F8B5054603
:102D90000E4601F07DFC0120FFF71EFDAB2807D099
:102DA0001E4AC1028C18801CC002911E411805E009
:102DB000AB20F8BD2068401C06D0241D8C42F9D3FE
:102DC00001F01AFC8020F8BD324600232146012084
:102DD00001F01CFC124800F025FB124E002802D026
:102DE000F06980B2F8BD104F386940084000386182
:102DF0002A460023A11C012001F008FC084800F02D
:102E000011FB002802D0F06980B2F8BD3869400893
:102E100040003861F06980B2F8BD000000E00108B0
:102E200050C30000B00400200020024070B50546E9
:102E30000E4601F02DFC31462846FFF7A7FF044659
:102E4000802C04D131462846FFF7F4FE044601F0F9
:102E5000D3FB204670BD0000FEB500200190002489
:102E600000F052FC00901D4F31E014206043C51962
:102E7000287C002829D0E0B2FEF7A6FE002824D046
:102E80001749202088719926B60017E0134832466A
:102E90003238009900F06CFC0028F7D10098FDF75B
:102EA000FDF901460098FDF7CBF90C483238FDF7E3
:102EB000F5F9014609483238FDF7C2F90749E868D3
:102EC000323903F0A3FE0028E0D1641CA4B2054807
:102ED00000788442C9D30198FEBD0000D40F0020C1
:102EE0009C0D002070020020F0B587B00026002065
:102EF0000190F94D0120A8700124687A844205D020
:102F0000204600F013FE012107F048F9641CE4B2EA
:102F1000062CF2D9F04C607A00F014FA02202070EE
:102F200001240125681E8700EC48C05B002817D0EB
:102F3000641CEB49E4B24C70E74844700020087010
:102F400003200022009010231146284606F0AEFB15
:102F5000E2482102C25D8918C1530A2009F0B8FB7A
:102F60006D1CEDB2062DDDD9DB48018BDB48E0306E
:102F700001800120411ED94A8900525A8C46002AFC
:102F800018D0110AD2B2CB00D44D13434700E0351C
:102F9000EB536346E03D5B19491E16256943CF4D4F
:102FA0005B88E0356B52CC4B49199B78DB000343BF
:102FB00052008B52401CC0B20628DBD902251620D5
:102FC000274647430FE0C5493A46E031C448FDF77C
:102FD0001EF93A461121284606F0C8FC3C2009F0AB
:102FE00077FB6D1CEDB2A542EDD9A1E0019402255D
:102FF0009BE00120BA4901220B18203BDA77401CE4
:10300000C0B20A28F7D9B649002088720B220E21D7
:10301000284606F0ABFC0A2009F05AFB00220C21DE
:10302000284606F0A3FC642009F052FB0127781E15
:103030008100AA481830405A020A002818D0002AF5
:1030400016D1641CA64AE4B25470A34B5C702302F0
:10305000C0B21818A14B1833585201201070977045
:1030600003221021284606F081FC0A2009F030FBDB
:103070007F1CFFB20A2FDAD90120411E974B89002D
:10308000183306915A5A002A2CD0110AD2B294460B
:10309000012927D06A1E16235A43904BE033D318D8
:1030A000420005939B5A002B04D1CB0067463B435B
:1030B000059FBB52491E16225143884AE0328B18A5
:1030C0006246520004939B5A002B0BD1834F069B00
:1030D0001837DB195F88814BE0335F52E900049BAE
:1030E00001439952401CC0B20A28C6D97B48282106
:1030F0001830FDF7A5F80227204616214843039013
:103100000FE076497648E031039AFDF780F8112107
:103110003846039A06F02AFC3C2009F0D9FA7F1CB5
:10312000FFB2A742EDD96D1CEDB2A54200D860E711
:103130000198A04200D059E76748407A00F002F9B0
:103140000120664B411E8900595A0A0A002902D003
:10315000002A00D10526401CC0B20628F2D902255B
:103160005E4F183717E000220C21284606F0FEFBC0
:10317000642009F0ADFA0120411E8900795A0A0A3B
:10318000002902D0002A00D10526401CC0B20A281E
:10319000F2D96D1CEDB2A542E5D9002E71D1012006
:1031A000504D411E01222B88D203CA4093432B80ED
:1031B000401CC0B20628F3D970E00120474A611EC6
:1031C00016230291E032594389188C460299444DE6
:1031D000490062464300D25A002A44D053051B0ED0
:1031E0005207520F5B1E5F003E4B521EDB5B0127F6
:1031F000FF03D7403B420DD101222B18203BDA7749
:10320000384A0123575A421EDB03D340354A1F4335
:1032100057520CE000222B18203BDA77314A012369
:10322000575A421EDB03D3402E4A9F435752401C3D
:10323000C0B20A28CDD92146012000F097F92948CB
:10324000323000192038C17F264863300F5C204699
:10325000394600F08BF9A74214D028182038C07FD7
:1032600001280FD010E000222B18203BDA771D4AEE
:103270000123575A421EDB03D3401A4A9F43575239
:10328000D5E71CE00120A8720B220E21204606F093
:103290006DFB0A2009F01CFA0298C4B2022C8CD2F1
:1032A00001240D4D687A844205D0204600F03EFC92
:1032B000002106F073FF641CE4B2062CF2D9002E44
:1032C0002FD1642009F004FA0749202088710224D4
:1032D000044F014D323721E018000020D0040020B7
:1032E0002C0B0020D60700209C0D0020002201217D
:1032F000204606F03BFB38192038C07FFF212D31D6
:10330000484309F0E5F9E879002802D0022802D004
:1033100002E0002600E00226641CE4B268788442E1
:10332000E4D9002E0BD106F0EFF806F09BF86420EC
:1033300009F0CEF900221521FF2006F017FB3046D8
:1033400007B0F0BDFEB505460020019001240D4FE9
:103350000D4EAC420FD0388B010A31707070B470D2
:103360000320002200900A231146204606F09EF911
:103370000A2009F0ADF9641CE4B2062CE9D90198E1
:10338000FEBD0000180000202C0B00200649002084
:10339000C8610648016904221143016101694022A4
:1033A0001143016170470000B0040020002002407A
:1033B000064A0021D16106490A6902231A430A61BB
:1033C000486108694022104308617047B00400203A
:1033D0000020024010B5054B0022DA61044A13694F
:1033E000012423431361018010BD0000B0040020BC
:1033F000002002400949C868C206094803D5C269CD
:1034000002231A43C261CA68520703D5C269012365
:103410001A43C2611420C8607047000000200240B7
:10342000B004002070B5044601F010FA0546104EB5
:103430000AE0601C08D0002C04D001F007FA401B01
:10344000A04201D9032070BDF068C007F1D1F06837
:10345000800601D52020F060F068C00602D4F06834
:10346000400703D5FFF7C6FF012070BD002070BDE7
:1034700000200240FEB504460020009000250026F2
:10348000384F787807F028FC002305E0435536498B
:103490006A008B526D1CEDB2324949788D42F5D3EA
:1034A000761C01192039CE77761CF3B20121641EF7
:1034B000A446162254432C4AA032A21896467246BD
:1034C0004C00125B002A0DD064466400264D4E1E4F
:1034D00001272D5BB740244E3D433553D2081218C7
:1034E000203AD377491CC9B20629E8D900245B1CCD
:1034F000DBB200222BE0855C591E8D4225D10121D3
:10350000194E1625A0365543AD190195019D4E0063
:10351000AD5B002D15D0ED082D18203DAC46ED7F9C
:10352000002D0ED15700104DBE46ED5B4E1E0127FB
:10353000B7403D430C4E7746F5536546EB77641C28
:10354000E4B2491CC9B20629E0D9521CD2B20549DD
:1035500049788A42CFD3002CC8D1009C07F08AFB5F
:103560002046FEBD1800002010050020F0B58FB0E9
:1035700007460E4634216846FCF762FE002400250B
:1035800019215148FCF75CFE4F4900203239C91916
:103590002039C8774C491939C9192039C877012011
:1035A000791E16225143494A89180E9146493239EB
:1035B000891920390D910E994300C95A00290AD062
:1035C000C908B14207D10D9A0121D1773E490E7049
:1035D000C0B20FB0F0BD401C0628ECDD01203C4914
:1035E0004A780EE0B8420BD03749FF233239091828
:1035F0002039CB77344B0021193B1B18203BD9775E
:10360000401C9042EEDD36E02F486946323809F022
:1036100007F8401CC4B2B44232D0694601200919EF
:103620002039C877611E16225143284A89188C46D2
:1036300061464200895A002919D04905090E6A4697
:103640005218203AD27F002A11D11F4B323B1A194F
:10365000203AD27F521CD2B25B18203BDF7F9742C8
:1036600005D9DA77184A193A51182039CC77401C15
:10367000C0B20628DCD9684604F0F0FD0028C3D0AB
:10368000114A1146193904E02B466D1CEDB2D45491
:10369000044608192038C07F0028F5D101200A4AC5
:1036A000521E0E994300C95A002907D0CB080D9924
:1036B000C97F895C8B4201D1C0B28AE7401C0628D1
:1036C000EFDD002085E700003A080020B00500206B
:1036D00018000020F8B5044609480026C670611E8F
:1036E00038225143074A555C80782946FFF73EFF50
:1036F00000232A461946009405F0D8FF3046F8BD4D
:1037000018000020A4090020004870471419002068
:1037100030B5002300250024146025E0401C00245F
:103720000457002C03D0202CF8D100E0401C0024CA
:103730000457002C01D0202CF8D00478002C15D090
:103740005B1C8B4210D1054603E01168491C1160D7
:10375000401C00214156002901D02029F5D11068D4
:10376000002803D1002501E08B42D8D3284630BD84
:10377000F7B5064601242A4DA86800281AD1284624
:103780001430A86013E0006807683846FCF786FD2F
:103790000246B056202801D0002805D139463046CF
:1037A000FCF7A7FD002817D0A8684068A860A868A3
:1037B0000028E8D1A8680027002801D0002C1DD0DF
:1037C000002824D0006832468368029901989847FF
:1037D0000446200019D020E0A8680C21006841565A
:1037E0000029E7DB304609F043FB0146A8680C22BC
:1037F000006882569142DDD00024DBE70949029A35
:103800000198FCF734FDAF6007E0AF6005E00649C2
:10381000029A0198FCF72BFD00242046FEBD000013
:10382000FC020020B42501080C26010870B50546ED
:10383000002D12D008200CF0F5FB0446002C0ED011
:103840000AF0FEFC256000206060064841684C607C
:1038500044600AF001FD012070BD72B6FEE772B649
:10386000FEE70000FC02002008B51448426901216F
:10387000C9040A43426142690A40009242698910C0
:103880000A43426142690A4000924269C9000A4300
:10389000426142690A400092426989100A434261CA
:1038A00042690A400092426909010A434261406943
:1038B0000840009002F078FA08BD000000100240B5
:1038C0001CB51E2007F008FA04461E212046FCF70E
:1038D000B7FC0849088B4A7D00920190087D8B7DDA
:1038E000401E054980000A580449204607F086F921
:1038F00020461CBD9C0D0020340200208C030108D2
:10390000F8B50546002426A12846FCF7CEFC254E36
:1039100000280AD024A12846FCF7C7FC002806D0BE
:103920002878232805D0214F22E0B078F8BDFF2069
:10393000F8BD681CFCF71DFDC0B2002802D07178EC
:103940008842F5D9B178884201D10846F8BD662091
:10395000F8BD0B206043C1192846FCF7A6FC0028DF
:1039600004D12878002801D02046F8BD641CE4B2B8
:1039700070788442EDD300240D4E0B2060438119F2
:103980002846FCF792FC002805D0641CE4B20A2CFF
:10399000F3D36420F8BD2002FE3000B2F8BD000071
:1039A0006D65000018000020616C6C005308002059
:1039B0004205002000681049884201D1012070476B
:1039C0000E49884201D1022070470D49884201D139
:1039D000032070470B49884201D1042070470A49EF
:1039E000884201D1052070470849884201D106204C
:1039F0007047002070470000004C00400044004029
:103A000000140140003801400050004000480040D0
:103A1000F0B5059D1C46002600F088F8224F0923CA
:103A2000DB06B84207D10B60012040021080236002
:103A30004000288035E01D4FB84206D10B600420BD
:103A400010802360082028802BE0194FB84208D14D
:103A500018480860012189021180206048002880F0
:103A60001FE0154FB84206D10B6001201080236083
:103A70000220288015E0114FB84207D10D48086098
:103A8000082111802060102028800AE00C4FB842E5
:103A900006D10B601020108023602020288000E0D9
:103AA000FF263046F0BD000040120020B01200207A
:103AB0002013002000040048901300200014002070
:103AC0007014002000B587B0002201A9154801F04C
:103AD000A7FB002206A9134801F080FB6946087B7A
:103AE000C1091148491CC1740299C903090CC1815B
:103AF0006946897901746946497941746946097949
:103B000081746946897E41756946497E8175694639
:103B1000097E01756946C97E7D22120189180183DB
:103B200007B000BDA80E00209C0D002000B50300CA
:103B300007F08FF807110507090B0D0F1100074853
:103B400000BD074800BD074800BD074800BD074845
:103B500000BD074800BD002000BD000090130020FC
:103B6000B012002070140020401200200014002029
:103B70002013002000B50179002907D0C2688168B0
:103B800000F010F8002809D0012000BD02680449A7
:103B9000516100688168182291438160002000BD56
:103BA000B71DC10430B51F2301252C469C400C4293
:103BB00002D15B1E5C1CF8D1002A11D0082A0BD060
:103BC000102A05D0182A0BD1072B09D3012030BDAC
:103BD000082B05D3012030BD102B01D3012030BDAF
:103BE0000368596100688168182399431143816013
:103BF000002030BD70B5044600200023257F012D34
:103C00000BD00125257702266677266A012E10D073
:103C1000022E13D0032E15D106E0022070BD8300C2
:103C20002668CB583360401C9042F8D32068036864
:103C300008E02046FDF75EFD034603E02046FDF761
:103C40003FFD0346657700202077184670BDF8B524
:103C5000044600200023257F012D0FD00125257764
:103C6000022666772668B7682F43B760266A012E5A
:103C700010D0022E13D0032E15D106E00220F8BD7D
:103C800083002668CB583360401C9042F8D32068EC
:103C9000036808E02046FDF72DFD034603E02046BB
:103CA000FDF70EFD03466577002020771846F8BD26
:103CB00010B50446002C03D0607F002802D006E037
:103CC000012010BD00202077204600F027F80220B8
:103CD00060772046FFF74EFF002801D0012010BD7D
:103CE0006079002814D02168206908612068816803
:103CF000602291436269114381602068816880225B
:103D00009143A2691143816001206077002010BDBA
:103D100000202168C0430861E8E7000008B50448B6
:103D2000426940210A43426140690840009008BD51
:103D300000100240F8B504462068016849084900AF
:103D4000016000F083FD06460027254620350EE081
:103D500000F07CFD811B7D20C000814207D9606B93
:103D6000202108436063032068702F70F8BD20682D
:103D70000068C007ECD1012068702F700020F8BDEA
:103D8000F8B50446F749F74DF64EF64F2068CB14C8
:103D9000783D643E503F88423FD9F3490A68A842C3
:103DA00001D1082137E0B04201D1802133E0B8428F
:103DB00001D119462FE0EB493C39884202D101215B
:103DC000C90328E0E7492839884202D10121C90402
:103DD00021E0E4491439884202D10121C9051AE0E1
:103DE000E1490831884201D1082114E0DE491C3143
:103DF000884201D180210EE0DB493031884201D177
:103E0000194608E0D8494431884202D10121C9034A
:103E100001E00121C9040A4044E0D24980390A681E
:103E2000A84201D108213CE0B04201D1802138E014
:103E3000B84201D1194634E0CA493C39884202D11E
:103E40000121C9032DE0C7492839884202D1012147
:103E5000C90426E0C3491439884202D10121C905A9
:103E60001FE0C049884201D101051AE0BE4908316E
:103E7000884201D1082114E0BB491C31884201D19C
:103E800080210EE0B8493031884201D1194608E05E
:103E9000B5494431884202D10121C90301E0012121
:103EA000C9040A40214620310091002A70D00168DF
:103EB000C94309076CD40168082291430160A949EC
:103EC000206888423ED9A84201D1082037E0B0429C
:103ED00001D1802033E0B84201D118462FE0A1493A
:103EE0003C39884202D10120C00328E09D4928398D
:103EF000884202D10120C00421E09A491439884245
:103F000002D10120C0051AE097490831884201D149
:103F1000082014E094491C31884201D180200EE031
:103F200091493031884201D1184608E08E49443128
:103F3000884202D10120C00301E00120C0048A4967
:103F4000486044E0A84201D108203DE0B04201D1E0
:103F5000802039E0B84201D1184635E0814A3C3A28
:103F6000904202D10120C0032EE07E4A283A9042BE
:103F700002D10120C00427E07A4A143A904202D1CB
:103F80000120C00520E0884203D10120C0061BE0CB
:103F90002CE075490831884201D1082014E07249AB
:103FA0001C31884201D180200EE06F4930318842B7
:103FB00001D1184608E06C494431884202D1012001
:103FC000C00301E00120C004664980394860606B8D
:103FD0000121084360630099042048700099002083
:103FE0000870216B002901D0204688475D49206870
:103FF0000B1588423FD95C490A68A84201D10421C7
:1040000037E0B04201D1402133E0B84201D1194636
:104010002FE054493C39884202D10121890328E02C
:1040200050492839884202D10121890421E04D49B3
:104030001439884202D1012189051AE04A49083120
:10404000884201D1042114E047491C31884201D142
:1040500040210EE044493031884201D1194608E040
:1040600041494431884202D10121890301E0012103
:1040700089040A4044E03B4980390A68A84201D1DA
:1040800004213CE0B04201D1402138E0B84201D1E6
:10409000194634E033493C39884202D10121890371
:1040A0002DE030492839884202D10121890426E0D7
:1040B0002C491439884202D1012189051FE0294980
:1040C000884201D1C1041AE027490831884201D150
:1040D000042114E024491C31884201D140210EE022
:1040E00021493031884201D1194608E01E49443146
:1040F000884202D10121890301E0012189040A409B
:10410000002A71D00168C94349076DD40168890646
:1041100003D4016804229143016012492068884257
:1041200042D9A84201D104203AE0B04201D1402056
:1041300036E0B84201D1184632E00A493C3988429B
:1041400002D1012080032BE006492839884202D1A0
:104150000120800424E003491439884206D101205B
:1041600080051DE08000024000040240C9498842E9
:1041700001D1042014E0C7491431884201D1402004
:104180000EE0C4492831884201D1184608E0C149EF
:104190003C31884202D10120800301E001208004EB
:1041A000BC490839486042E0A84201D104203BE004
:1041B000B04201D1402037E0B84201D1184633E087
:1041C000B54A904202D1012080032DE0B24A143258
:1041D000904202D10120800426E0AF4A283290426A
:1041E00003D1012080051FE029E0884202D101208F
:1041F000800619E0A749884201D1042014E0A549AE
:104200001431884201D140200EE0A2492831884271
:1042100001D1184608E09F493C31884202D1012073
:10422000800301E0012080049B49443948600098E4
:1042300011214170E16A002901D020468847964A41
:1042400020683C3290423FD9924908390B68A84215
:1042500001D1022136E0B04201D1202132E0B84242
:1042600002D1012149022DE08B49884202D101216E
:10427000490327E088491431884202D101214904C9
:1042800020E085492831884202D10121490519E001
:104290008049884201D1022114E07E4914318842CC
:1042A00001D120210EE07B492831884201D14115FE
:1042B00008E078493C31884202D10121490301E0FC
:1042C000012149040B4043E0734944390B68A8427B
:1042D00001D102213BE0B04201D1202137E0B842B8
:1042E00002D10121490232E06B49884202D1012109
:1042F00049032CE068491431884202D10121490464
:1043000025E065492831884202D1012149051EE096
:10431000904202D10121490619E05E49884201D14B
:10432000022114E05B491431884201D120210EE0C2
:1043300058492831884201D1411508E055493C319E
:10434000884202D10121490301E0012149040B40C7
:10435000002B72D00168C94389076ED401688906B1
:1043600003D40168022399430160206890423ED93A
:10437000A84201D1022036E0B04201D1202032E033
:10438000B84202D1012040022DE04349884202D1C7
:104390000120400327E040491431884202D1012026
:1043A000400420E03C492831884202D101204005E8
:1043B00019E03849884201D1022014E0354914310E
:1043C000884201D120200EE032492831884201D1B3
:1043D000401508E02F493C31884202D101204003BA
:1043E00001E0012040042B490839486043E0A8421D
:1043F00001D102203CE0B04201D1202038E0B84297
:1044000002D10120400233E02349884202D1012039
:1044100040032DE020491431884202D1012040049C
:1044200026E01D492831884202D1012040051FE0C5
:10443000904203D1012040061AE029E01549884244
:1044400001D1022014E013491431884201D1202007
:104450000EE010492831884201D1401508E00D498D
:104460003C31884202D10120400301E00120400498
:10447000094944394860606B6063009901204870C5
:10448000009900200870A16A002901D020468847C1
:10449000F8BD00000804024044000240F0B50028C6
:1044A00006D0014620314A780025002A02D002E0D9
:1044B0000120F0BD0D7002224A70026814680B4B97
:1044C0001C408668436807693343C6683E433343EC
:1044D0004669334386693343C669334323431360D4
:1044E0004563012048700020F0BD00000FC0FFFFB1
:1044F000F8B50446204620300578012D1ED0012550
:1045000005700226467020680768AF4307602046A2
:10451000FDF748FE206801683143016020680168AA
:1045200004221143016020680168082211430160E0
:1045300020680168294301600020F8BD0220F8BD11
:1045400031B500F083F9044600F080F90099001BB2
:104550008842F9D338BD0000F8B505460F4601265C
:104560002248017E01290BD0012101762868204CC8
:10457000012807D02046FEF755FF002813D030E071
:104580000220F8BD2046FEF74DFF002829D1FEF796
:10459000FDFE2046FEF746FF064616480169042246
:1045A000914301611DE00020C04338606C6812E057
:1045B0002046FEF7FDFE0E48FEF734FF06460D4886
:1045C0000169022291430161300001D03C6008E0A2
:1045D0000120C0022418A9686868C9024018A042D6
:1045E000E6D80248002101763046F8BDB00400202C
:1045F00050C300000020024003480169802211439B
:10460000016100207047000000200240F0B51FB497
:10461000074615461E4600241A48017E012907D088
:10462000012101761848FEF7FDFE002803D025E0A1
:10463000022005B0F0BD012F03D0022F03D00427C4
:104640001AE0012718E0022716E022012846314629
:10465000FBF7B8FD81B2019862001018FEF7BAFEB0
:104660000948FEF7DFFE09490A69520852000A614B
:10467000002803D1641CE4B2BC42E6D30149002205
:104680000A76D6E7B004002050C3000000200240A4
:1046900005480169090605D504494160044941609E
:1046A0000020704701207047002002402301674529
:1046B000AB89EFCDF8B5002293E001249440A446E5
:1046C0002340002B7ED04C68022C01D0122C0CD140
:1046D000D408A40027183D6A5407E40E0F26A6400C
:1046E000B5430E69A6402E433E6207685500032479
:1046F000AC40A7430E79B607B60FAE403E43066006
:104700004E68012E05D0022E03D0112E01D0122E9C
:104710000ED18768A743CE68AE403E4386604768A7
:104720006646B7430E79F606F60F96403E4346605E
:10473000C668A6438C68AC403443C4604C68E4004F
:104740004ED52B4CA56901263543A561A46934409B
:1047500000949508274CAD002F19BD689407240FCD
:104760000F26A640B5430926F606B04201D1002621
:1047700014E0214EB04201D101260FE01F4EB0429D
:1047800001D102260AE01E4EB04201D1032605E007
:104790001C4EB04201D1042600E00526A6402E435F
:1047A000BE60194D2C689C434E68F60300D51C432F
:1047B0002C606C689C434E68B60300D51C436C604B
:1047C000AC6800E00CE09C434E68F60200D51C4348
:1047D000AC60EC689C434E68B60200D51C43EC60AC
:1047E000521C0B681C46D44000D066E7F8BD0000A0
:1047F000001002400000014000040048000800488A
:10480000000C004800100048000401400069084204
:1048100001D0012070470020704742694A40426140
:104820007047002A01D081617047816270470000A3
:10483000024800680005000D704700000058014064
:1048400001480068000C70470058014001480068AA
:10485000704700001400002002480168491C0160F4
:10486000704700001400002010B5064801681022AF
:1048700011430160002000F007F800F016F8002056
:1048800010BD00000020024010B5044600F0C8F939
:104890007D21C900FBF780FC00F052FE002221467A
:1048A000501E00F017F8002010BD7047C106C90E59
:1048B00001208840014908607047000080E100E065
:1048C000C106C90E012088400149086070470000F8
:1048D00000E100E010B502F0C7F810BD0248016821
:1048E000821511430160704700700040F8B504461E
:1048F00020683C4DC00344D5296A03200002626849
:104900000140024091423CD0E86929040843E86133
:10491000E86908400090344F38680915084338604A
:10492000FFF794FF064606E0FFF790FF801B642820
:1049300001D90320F8BD3868C005F5D5286A0327DA
:104940003F02B8432A6A012109040A432A622A6AFB
:104950008A432A62286280070ED5FFF777FF064652
:1049600007E0FFF773FF811B2048814201D9032034
:10497000F8BD286A8007F4D5286A6168B8430843FF
:1049800028622078C00705D0286BA16880088000C5
:10499000084328632078800706D5286B0321090483
:1049A0008843E168084328632068400306D5286BE4
:1049B00003218904884321690843286320788006FD
:1049C00005D5286B10218843616908432863208836
:1049D000400505D5286B40218843A1690843286319
:1049E0000020F8BD00100240007000408813000055
:1049F000F8B504460F4687480068F021C007C00F8D
:104A0000854EB8427DD283480268520852003A432C
:104A100002600068C007C00FB84201D00120F8BD95
:104A20002078800704D570688843A16808437060C7
:104A30002078C00739D06068012808D002280BD040
:104A400003280ED03168890710D40120F8BD3168E1
:104A500089030BD40120F8BD3168890106D40120F7
:104A6000F8BD716BC90301D40120F8BD71688908D4
:104A7000890001437160FFF7E9FE0546606801287F
:104A800005D0022812D003281FD0644F34E0634FB2
:104A900006E0FFF7DBFE401BB84201D90320F8BD5A
:104AA00070680007800F0128F3D1A3E05B4F06E098
:104AB000FFF7CCFE401BB84201D90320F8BD706857
:104AC0000007800F0228F3D194E0544F06E0FFF76F
:104AD000BDFE401BB84201D90320F8BD7068000735
:104AE000800F0328F3D185E00BE0FFF7AFFE401BFA
:104AF000B84201D90320F8BD70680007800FF4D1D7
:104B000078E02078800704D570688843A16808435E
:104B100070602078C00760D06068012808D0022843
:104B20000BD003280ED03168890710D40120F8BDBE
:104B3000316889030BD40120F8BD3168890106D49E
:104B40000120F8BD716BC90301D40120F8BD716863
:104B50008908890001437160FFF778FE05466068A7
:104B600001280CD0022818D0032824D031E0FFF708
:104B70006DFE411B2948814201D90320F8BD7068B0
:104B80000007800F0128F2D127E0FFF75FFE411BED
:104B90002248814201D90320F8BD70680007800FC8
:104BA0000228F2D119E0FFF751FE411B1B48814258
:104BB00001D90320F8BD70680007800F0328F2D1E7
:104BC0000BE0FFF743FE411B1448814201D903204B
:104BD000F8BD70680007800FF3D10E4801684908DE
:104BE0004900394301600068C007C00FB84201D0D6
:104BF0000120F8BD2078400706D57068072109021A
:104C00008843E168084370600020FFF73DFE002004
:104C1000F8BD000000200240001002408813000090
:104C200010B500F021F805494968054A0906090F41
:104C3000515CC8400349086010BD000000100240EC
:104C40002C0101080000002010B5FFF7E9FF04491E
:104C50004968044A4905490F515CC84010BD00002D
:104C6000001002402C01010830B589B01CA001469B
:104C70000EC9C06805AC0EC408901DA001460EC93F
:104C8000C06801AC0EC404901D4D6A680C2011462A
:104C900001401C48042905D01B4B082904D00C29CD
:104CA00000D1184609B030BD9102090F05AC645C13
:104CB000E96A01AD0907090F695CD203920F022A64
:104CC00005D0032A07D0FBF767FA6043EAE7FBF752
:104CD00063FA6043E6E71846FBF75EFA6043E1E7F4
:104CE00002030405060708090A0B0C0D0E0F10102D
:104CF0000102030405060708090A0B0C0D0E0F102C
:104D00000010024000127A00006CDC02F8B5044684
:104D10002078FA4DC00775D068680007800F012819
:104D200016D068680007800F022804D16868C003A5
:104D3000800F02280CD0286801263604B043286072
:104D40002968B00081432960FFF780FD07460EE027
:104D50002868800356D56068002853D10120F8BD2B
:104D6000FFF774FDC01B642801D90320F8BD286833
:104D70008003F5D46068012813D0002815D00528D9
:104D80001DD029682846B143296001680122920498
:104D9000914301606068002826D0FFF757FD064662
:104DA0001EE0296831432960F4E729682846B143A9
:104DB00029600268012189048A430260EAE72A68BF
:104DC0002846012189040A432A60016831430160B1
:104DD000E0E7FFF73BFD801B642801D90320F8BD05
:104DE00028688003F5D50DE0FFF730FD064606E0A4
:104DF000FFF72CFD801B642801D90320F8BD28682B
:104E00008003F5D420780126800700284BDA6868F3
:104E10000007800F13D068680007800F022804D1B4
:104E20006868C003800F012809D0E068002828D0F6
:104E3000286830432860FFF709FD074616E0286818
:104E4000800704D5E068012801D00120F8BD28685A
:104E5000F82188432169C9000843286023E0FFF74F
:104E6000F5FCC01B642801D90320F8BD2868800721
:104E7000F5D52868F82188432169C90008432860CE
:104E800011E02868400840002860FFF7DFFC074673
:104E900006E0FFF7DBFCC01B642801D90320F8BD46
:104EA00028688007F5D42078000726D5206A0028D6
:104EB00011D0686A30436862FFF7C8FC074606E015
:104EC000FFF7C4FCC01B642801D90320F8BD686A41
:104ED0008007F5D511E0686A400840006862FFF776
:104EE000B5FC074606E0FFF7B1FCC01B642801D9FA
:104EF0000320F8BD686A8007F5D4207840077BD589
:104F0000E969012000070143E961E9690140009175
:104F10007B480168821511430160FFF797FC074643
:104F200006E0FFF793FCC01B642801D90320F8BDFD
:104F300073480068C005F4D5286A4008400028621C
:104F4000296A042081432962FFF780FC074607E0B5
:104F5000FFF77CFCC11B6B48814201D90320F8BDDF
:104F6000286A8007F4D4A068012813D0002815D03F
:104F700005281DD0296A2846490849002962026A85
:104F800004218A430262A068002826D0FFF75EFC55
:104F900007461EE0296A31432962F4E7296A284658
:104FA000490849002962026A04218A430262EAE749
:104FB000296A2846042211432962016A31430162A9
:104FC000E1E7FFF743FCC11B4E48814201D90320B2
:104FD000F8BD286A8007F4D50EE0FFF737FC0746D6
:104FE00007E0FFF733FCC11B4648814201D903208B
:104FF000F8BD286A8007F4D42078C00643D56069DC
:1050000001280DD0401D28D0686B04210843686337
:10501000686B400840006863FFF718FC06462FE005
:10502000686B042108436863686B30436863FFF76B
:105030000DFC064606E0FFF709FC801B642801D939
:105040000320F8BD686B8007F5D5686BF8218843AD
:10505000A169C9000843686315E0686B04218843AF
:105060006863686BF8218843A169C90008436863D5
:1050700009E0FFF7EBFB801B642801D90320F8BD92
:10508000686B8007F5D42078800647D568680007EC
:10509000800F032815D068680007800F022804D10C
:1050A0006868C003800F03280BD0E06900281BD07C
:1050B000686B0121090408436863FFF7C7FB0646D4
:1050C0000EE0686BC00329D5E069012826D00120D5
:1050D000F8BDFFF7BBFB801B642801D90320F8BD96
:1050E000686BC003F5D519E0686B0121090488439A
:1050F0006863FFF7ABFB06460DE0000000100240BE
:105100000070004088130000FFF7A0FB801B64289C
:1051100001D90320F8BD686BC003F5D4606A00288C
:105120004BD069680907890F022948D001273F063B
:10513000022806D02868B8432860FFF787FB04469A
:1051400038E02868B8432860FFF780FB064606E091
:10515000FFF77CFB801B642801D90320F8BD286879
:105160008001F5D4E86A216B000900010843E86278
:10517000A16AE06A084369687B22D203914308432D
:105180006860286838432860FFF760FB044606E043
:10519000FFF75CFB001B642801D90320F8BD2868D9
:1051A0008001F5D509E0FFF751FB001B642801D908
:1051B0000320F8BD28688001F5D40020F8BD012047
:1051C000F8BD006850308900081800687047006812
:1051D00050308900081802607047000010B50B4677
:1051E000006841680D480140080CD870CC04E40EFA
:1051F0005C708C06A40E9C700904490F1970002A7B
:105200000AD103F03BF8D870587803F037F858709B
:10521000987803F033F89870002010BD3FFFFF002E
:1052200010B50B460168896A5960006801680F482B
:1052300001408802800E18704C04640E5C704C06AD
:10524000640E9C70090C402421401972002A0AD176
:1052500003F014F81870587803F010F85870987824
:1052600003F00CF89870002010BD00007F7F7F00D5
:1052700070B50446002C03D0607F002802D006E001
:10528000012070BD00202077204600F043F8022066
:1052900060772168CA20486221685320486220460E
:1052A00003F082F8FF21002805D020684162042025
:1052B0006077012070BD20688268154B1A408260BB
:1052C00020688268636865691A4323692B431A431F
:1052D00082602268E06810612068026923891B04EB
:1052E0001A4302612068C26880239A43C260206822
:1052F000026CDB029A4302642068026CA3691A43C1
:1053000002642068416201206077002070BD0000C7
:10531000BFFF8FFF70470000F8B504460B46207FA3
:10532000012806D00120207702206077002A02D0D1
:1053300008E00220F8BD5878C10603D5EF210840E7
:105340000A305870002A23D0587802F097FF9878D6
:1053500002F094FFD8789D780004054358781978B6
:1053600000024903084305432168CA2048622168B6
:1053700053204862204603F017F80026FF27002834
:1053800017D0206847620420607726770120F8BD97
:10539000D87802F07BFF0504587802F077FF00020E
:1053A0000543987802F072FF0543187840030543DF
:1053B000DAE710480540206845602068C16880220F
:1053C0009143C1602068806880060BD4204600F0BD
:1053D0008FF8002806D0206847620420607726777F
:1053E0000120F8BD20684762012060772677002001
:1053F000F8BD00003FFFFF00F8B504460D46207FD2
:1054000001280ED001202077022060770026002A94
:1054100009D02068806840061BD5287802F02EFF4E
:1054200018E00220F8BD20688068400600D42E7283
:10543000287802F02BFF0704687802F027FF0002AB
:105440000743A87802F022FF0743287A00040743A5
:105450000AE02E722878AF78000407436878297A2A
:1054600000020904084307432168CA2048622168F2
:1054700053204862204602F097FF002807D0216899
:10548000FF2048620420607726770120F8BD174886
:1054900007402068076020688168012292049143D8
:1054A0008160E9682869014320688268114381604E
:1054B0002068C16880229143C160206880688006AE
:1054C0000CD4204600F014F8002807D02168FF20F3
:1054D00048620420607726770120F8BD2168FF200C
:1054E00048620120607726770020F8BD7F7F7F002B
:1054F00070B505462868C168A0229143C160FFF7D6
:10550000A5F904467D26F60006E0FFF79FF9001B8B
:10551000B04201D9032070BD2868C0688006F4D568
:10552000002070BD04220549042803D00869904377
:1055300008617047086910430861704700E000E0A7
:1055400010B50949401E884201D9012010BD074C01
:1055500060610321081F01F087FA0020A061072085
:105560002061002010BD0000FFFFFF0000E000E010
:1055700070B502462032137E012B1BD00124147615
:105580000223537603685D687026B5435D60036847
:105590005D680E6835435D6003689D688026B5438D
:1055A0009D600068836849680B43836054760020DF
:1055B000107670BD022070BD70B50446002C05D079
:1055C00025462035687E002802D006E0012070BD07
:1055D00000202876204600F00AF802206876211D77
:1055E000206804F0D7FE01206876002070BD704767
:1055F0000222014620314A760068036801221343E3
:1056000003604A7600207047704770B50446002C4E
:1056100017D002202646603670722068016849085B
:105620004900016020680025056020684560206809
:105630008560204600F0D9F8E56675723572002065
:1056400070BD012070BD000070B5044601256920C1
:1056500005552046FEF7AEF90B49095C022904D036
:105660000A4908182038C57770BD616E0968496815
:10567000401E8AB206498000085801682046283139
:1056800000F0C0F970BD0000CE01002088020020AB
:10569000C0110020F8B504462068C1692546C90735
:1056A00001266035002907D00168C90504D50662C6
:1056B000E06E3043E0666E722068C16904228B0799
:1056C0000221002B07DA8368DB0704D00162E06E59
:1056D0001043E0666E722068C3695B0707D5836874
:1056E000DB0704D00262E06E0843E0666E72206859
:1056F000C16908270907002907DA8168C90704D0AA
:105700000762E06E3843E0666E72E06E002802D0F9
:105710002046FFF799FF2068C169C90209D5816851
:10572000490206D50121090501626E722046FFF784
:105730006BFF2068C169890609D50068800606D517
:10574000204604F0D1FF20688169394381612068D7
:10575000C169090605D50068000602D5204605F096
:1057600005F92068C169490605D50068400602D5DB
:10577000204604F0A0FFF8BD70B50446002C05D00B
:1057800025466035687A002802D006E0012070BD09
:1057900000202872204600F029F802206872206854
:1057A0000168490849000160204604F0E7FF01282C
:1057B00019D0606A002802D0204604F08DFE2068CF
:1057C00041680922D20291434160206881682A22FF
:1057D00091438160206801680122114301602046E5
:1057E00004F0E0FE70BD012070BD7047F0B587B0D9
:1057F00001687C4B09207C4A022501240326C0064F
:10580000994224D19169A303194391619169194087
:10581000019151150291039504940596069402A9ED
:105820000746FEF747FFA0020290039504940596F1
:10583000069402A93846FEF73DFF002201211B20F5
:10584000FFF748F81B20FFF73BF807B0F0BD674BA8
:105850000427994222D1D369F9030B43D361D2695A
:105860000A4001920297039504940596069402A9B2
:105870000746FEF71FFF0820029003950494059643
:10588000069402A93846FEF715FF002201211C20CC
:10589000FFF720F81C20FFF713F8D6E7544B994286
:1058A00025D1D069012189040843D061D06908401D
:1058B000019008120290039504940596069702A998
:1058C0004C48FEF7F7FE0120C002029003950494B5
:1058D0000596069702A94748FEF7ECFE0022012133
:1058E0001D20FEF7F7FF1D20FEF7EAFFADE7424B54
:1058F000994224D1D3690121C9040B43D361D269F0
:105900000A40019202940395049405960697092093
:1059100002A9C006FEF7CEFE0295039504940596F3
:105920000697092002A9C006FEF7C4FE0022012145
:105930001D20FEF7CFFF1D20FEF7C2FF85E72F4B8E
:10594000994224D1D169012000050143D161D16977
:105950000140019108200290039504940596069752
:1059600002A92448FEF7A6FE102002900395049495
:105970000596069702A91F48FEF79CFE002201210A
:105980001D20FEF7A7FF1D20FEF79AFF5DE71C4BC9
:105990009942ABD19169202739439161916939408E
:1059A0000191102102910395049405960521069119
:1059B000092002A9C006FEF77DFE02970395049414
:1059C000059605200690092002A9C006FEF772FE82
:1059D000002201211D20FEF77DFF1D20FEF770FF34
:1059E00033E700000038014000100240004400404E
:1059F0000048004000040048004C004000500040B7
:105A000000140140F7B50446134625466035687A10
:105A1000012804D0687A122801D00220FEBD019A24
:105A2000002A26D0002B24D0287A012823D0012058
:105A300028726265582003530026E666687A1228A9
:105A40001BD022206872616E0D488862616E0D481D
:105A5000C862616E0C4808632168606E2431FEF7ED
:105A600047FD206881684022114381602E7200202A
:105A7000FEBD0120FEBD0220FEBD32206872E2E7BD
:105A80003BA6000873A6000819A6000870B50346D7
:105A900060335C7A012C04D05C7A122C01D0022095
:105AA00070BD002915D0002A13D01C7A012C12D009
:105AB00001241C724165014640310A834A83826891
:105AC0002603FF25B2420BD10269002A05D08D833F
:105AD00012E0012070BD022070BD1A4A8A830BE0DB
