:020000040800F2
:10000000686E0020410100086B0100089965000836
:1000100000000000000000000000000000000000E0
:1000200000000000000000000000000099AA000885
:100030000000000000000000FF00000889BA00086E
:1000400075010008750100087501000875010008B8
:1000500075010008750100087501000875010008A8
:10006000750100084D19000885190008F1190008EC
:100070007501000875010008750100087501000888
:100080007501000875010008750100087501000878
:100090007501000875010008750100087501000868
:1000A00075010008750100087501000845C30008C6
:1000B00065C3000885C3000875010008034885462C
:1000C00000F0B4F9004800477DDE0008686E0020AB
:1000D000064B19680868203080F30988022080F3F5
:1000E00014883FBCAE4662B600BD0000E0020020AE
:1000F000EFF3108072B6704780F310887047EFF30B
:1001000009800E4B1A6820381060F0C044464D46F6
:1001100056465F46F0C008B572B611F063F862B695
:100120000CBC116808681030F0C8A046A946B24659
:10013000BB4680F309882038F0C81847E002002049
:100140000D480E49026800608A4203D00C4880477F
:100150000C4800470C480D4901600D480B490160EF
:100160000C4801688D4640680047FEE7FEE7FEE761
:10017000FEE7FEE7FEE70000F07F0020EFBEADDE09
:1001800065BB0008BD000008181002400100000017
:100190000000014000D8FF1F30B50B46014600208B
:1001A0002022012409E00D46D5409D4205D31D467D
:1001B0009540491B2546954040191546521E002D75
:1001C000F1DC30BD70B500242546002801DA012499
:1001D0004042002901DA01254942FFF7DDFFAC4228
:1001E00000D04042002C00D0494270BD10B5202AFA
:1001F00004DB0846203AD040002110BD0B46D34016
:10020000D0402024A21A91400843194610BD000096
:1002100000487047F425010801464139192900D8E2
:100220002030704703460B439B0703D009E008C901
:10023000121F08C0042AFAD203E00B780370401C96
:10024000491C521EF9D27047D2B201E00270401C24
:10025000491EFBD270470022F6E710B513460A4646
:1002600004461946FFF7F0FF204610BD421E5378A2
:10027000521C002BFBD10B781370491C521C002B15
:10028000F9D1704710B5044605E00B780370401CA7
:10029000002B00D0491C521EF7D2204610BDCAB216
:1002A000401E4178401C8A4202D00029F9D100202A
:1002B0007047421C0178401C0029FBD1801A70470E
:1002C00010B5002200E0521C835C8C5CA34201D17B
:1002D000002BF8D1D8B2E1B2401A10BD30B50446B7
:1002E0000020034600E05B1C934203D2E05CCD5C3F
:1002F000401BF8D030BD03460A780270401C491CF0
:10030000002AF9D11846704730B50546002003464B
:1003100000E05B1C934205D2EC5CC85C201A01D162
:10032000002CF6D130BD70B506460CF0A5F8046877
:1003300005460A220021304600F040F82C6070BDCE
:1003400070B506460CF098F8046805460A220021AC
:10035000304600F033F82C6070BDF0B51FB406468F
:10036000002082B005464024019100901BE00199D5
:1003700022460F463046FFF739FF049A059B801A44
:10038000994110D310461946224600F061F8361AFA
:100390008F410197224601200021009F00F058F86C
:1003A00038184D4100902046641E0028DFDC019B78
:1003B00000982946324607B0F0BD0000F7B5009C12
:1003C0000F4600262578641C002D05D0FFF720FF7E
:1003D0000068405DC007F5D12B2D02D02D2D18D01F
:1003E000641E39462046029A00F042F8002F04D0DD
:1003F0003968A14201D100993960710502240029B0
:100400000BDA4042002803DD0CF036F80460A00748
:10041000FEBD012080020643E3E70028F8DA0CF075
:100420002BF804600048FEBDFFFFFF7F064C01254E
:10043000064E05E0E36807CC2B430C3C984710348C
:10044000B442F7D3FFF73EFE0443010824430108FA
:1004500010B5202A04DB0146203A9140002010BD4F
:10046000914020239C1A0346E3401943904010BD5D
:10047000F7B582B0029C00272078641C15460197CE
:10048000302802D0002D15D015E020780127641CFB
:10049000782804D0582802D0002D09D00BE0002D78
:1004A00001D0102D07D1002710252078641C02E010
:1004B000082500E00A250026009610E00099012793
:1004C00069430818020C294680B2714300908E18C7
:1004D0003804864201D3012001902078641C29460B
:1004E00000F019F80028E9DA0398002805D0002F59
:1004F00001D0641E00E0029C04600198002806D030
:100500000BF0BAFF02210160C81E05B0F0BD0099D2
:1005100030040843F9E73A2800D230382023024655
:100520009A43412A01D310463738884201D300202C
:10053000C043704770B58C180578401C6B075B0F83
:1005400001D10378401C2A1106D10278401C03E037
:1005500006780E70401C491C5B1EF9D12B0705D490
:100560000023521E0DD40B70491CFAE70378401C7F
:10057000CB1A921C03E01D780D70491C5B1C521EA7
:10058000F9D5A142D8D3002070BD000070B5054652
:1005900000269849681C085C3038C4B20846405DA3
:1005A000622828D1A81C085C2E28FAD1681C085C97
:1005B000302820DB681C085C36281CDC0A46E91C55
:1005C000501807228CA1FFF79FFE002814D1E000ED
:1005D00020188B494018007AC007C00F0028E0D1CE
:1005E000E00020184018007A01210843E10061185A
:1005F000834A89180872FAE07E4AE91C50180E22D4
:1006000080A1FFF781FE002815D1E00020187C4969
:100610004018007A022108400228ECD0E00020189F
:1006200077494018007A02210843E1006118744AB2
:1006300089180872DBE06F4AE91C50180C2275A17A
:10064000FFF762FE002864D1E00020186C494018D2
:10065000007A04210840042817D0E00020186849D7
:100660004018007A04210843E1006118644A89189F
:100670000872604A29460F315018FFF754FEE10016
:1006800061185F4A89188870B1E0E00020185C4961
:100690004018007A08210840082817D0E0002018E8
:1006A00057494018007A08210843E1006118544A6C
:1006B000891808724F4A29460F315018FFF733FE48
:1006C000E10061184E4A8918C87090E0E0002018D7
:1006D0004B494018007A10210840102817D0E0003C
:1006E000201847494018007A10210843E10061189A
:1006F000434A891808723F4A29460F315018FFF7BC
:1007000012FEE10061183E4A891808716FE00C2062
:1007100070BD384AE91C50180D2242A1FFF7F4FDC4
:10072000002864D1E000201835494018007A2021C3
:100730000840202817D0E000201831494018007ADE
:1007400020210843E10061182D4A89180872294ABE
:10075000294610315018FFF7E6FDE1006118284ADC
:100760008918487143E0E000201825494018007AB4
:1007700040210840402817D0E000201820494018A8
:10078000007A40210843E10061181D4A8918087267
:10079000184A294610315018FFF7C5FDE1006118CD
:1007A000174A8918887122E0E0002018144940187F
:1007B000007A80210840802817D0E00020181049D6
:1007C0004018007A80210843E10061180C4A89181A
:1007D0000872084A294610315018FFF7A4FDE100BD
:1007E0006118074A8918C87101E00D2090E730466A
:1007F0008EE700006A120020636C69636B65640019
:1008000050110020646F75626C6520636C69636BC6
:10081000656400007072657373656420666F722092
:100820000000000072656C656173656420666F721C
:1008300020000000F3B583B006460020029000249B
:10084000002500BF18E00B2060433D4A8118049842
:10085000FFF736FD00280ED1701E40003949085AB6
:100860000121A140084381B2701E4000354A115257
:10087000029805B0F0BD641C0A2CE4DB00250AE0F8
:10088000A800314A81180498FFF71AFD002801D109
:100890000620EEE76D1C042DF2DB01250BE00B209A
:1008A00068432A4A81180498FFF70AFD002801D1FD
:1008B0000720DEE76D1C264800788542EFDB2548DF
:1008C0002549086015E02448006800680768384634
:1008D000FFF7EFFC01903946019A0498FFF714FDE9
:1008E000002801D10820C4E71B48006840681A4965
:1008F0000860194800680028E5D100240EE00B20AC
:1009000060430F49085C002807D10B2161430C4A62
:1009100088180499FFF7EFFC02E0641C0A2CEEDB58
:1009200000BF701E40000749085A0121A14008433A
:1009300081B2701E4000034A1152029899E70000EC
:1009400082050020CA0900203823010893080020EE
:10095000840000209C020020F0000020F0B58DB043
:1009600005460C4600200C900027574800780028C8
:1009700009D0A100554A50580DF062FBA100544A1D
:1009800050580DF05DFB0420524908554E48007840
:10099000002805D0204603F011F8019005F06BF80F
:1009A00003A805AB04AA06A90090204602F058FF50
:1009B0006846008A079001200890002009900A905C
:1009C00007A9069803F026FE684680890790002054
:1009D00008900220099007A9059803F01BFEE0008B
:1009E00020183D4940184570611E8900EC314900CE
:1009F0003A4A505A02A901F081FF0646002E37D12B
:100A00006846008907123811A04206D13807000F46
:100A1000A84202D100200DB0F0BD200329020843F6
:100A200080B20290611E8900EC3149002B4A505A75
:100A30006946098901F0F4FF611E8900ED31490022
:100A4000264A505A002101F0EBFF611E8900EE3169
:100A50004900224A505A002101F0E2FF611E89003C
:100A6000EF3149001D4A505A002101F0D9FF29E019
:100A700020032902084381B20291611E8900EC31F2
:100A80004900164A505A6946098901F0C9FF611E9A
:100A90008900ED314900114A505A002101F0C0FF90
:100AA000611E8900EE3149000C4A505A002101F0C4
:100AB000B7FF611E8900EF314900084A505A0021F2
:100AC00001F0AEFF0C98A6E79C000020EC19002076
:100AD000081A002086000020501100202E17002048
:100AE000F8B504460E4600270025364800887D21CB
:100AF000C900884201DB0E20F8BDE007C00F0028C6
:100B00001FD03048008805B20AE02F48405D01211F
:100B10000843A04202D12C48445503E0681E05B2A8
:100B2000002DF2DA00BFF021264802880088401C20
:100B3000244B188024488154691C88B2FFF726FD95
:100B40003EE0802C02D0822C38D11BE080211D4851
:100B500002880088401C1B4B18801B488154194692
:100B60000A880988491C1980014650183146FFF748
:100B7000C2FB3046FFF79DFB124909884018114916
:100B800008801CE082210F4802880088401C0D4B21
:100B900018800D48815419460A880988491C198013
:100BA000014650183146FFF7A6FB3046FFF781FBA0
:100BB0000449098840180349088000E000BF00BFCD
:100BC000384699E71C0200206A120020F0B587B071
:100BD00004460D4616461F467D200001301AC1B25C
:100BE0006846C176447685760776002206A92548B0
:100BF00004F046FD002802D0FF2007B0F0BD694692
:100C00000E98087168460D99417169460C98887173
:100C1000002005900E980C2802DD18201A49487310
:100C20000F98012806D10020694608730C20164948
:100C300048730CE00F98022806D1402069460873DB
:100C40000C201149487302E018200F494873002214
:100C500001A90C4804F0A2FD002801D0FF20CCE738
:100C6000094A527B1202084B1B791A431146074A64
:100C7000908E01F0D5FE064A0121024804F037FCAF
:100C80000020BAE7C8110020B80400202E19002067
:100C9000F232000010B509F08DFD02F053FE01F0B4
:100CA00077FB06F0CBF906F06FF806F019FA05F0BD
:100CB00087FC002803D001F059FB06F06BFC05F01F
:100CC00011FD002814D032200AF06EFC06F0EEFA76
:100CD000E120400233498860012406E03148816800
:100CE00020460BF06FFB601CC4B2062CF6DD04E05E
:100CF00032200AF059FC06F0D9FA05F0F3FF0BF0A8
:100D00006FFB29480078002811D10122D102092067
:100D1000C00603F08AFDFF20F5300AF045FC0022F2
:100D20000121C9020920C00603F07FFD36E001223F
:100D3000D1020920C00603F078FDFF20F5300AF04B
:100D400033FC00220121C9020920C00603F06DFD19
:100D500064200AF029FC0122D1020920C00603F018
:100D600064FD64200AF020FC00220121C902092050
:100D7000C00603F05AFD64200AF016FC0122D102DD
:100D80000920C00603F051FD64200AF00DFC00228A
:100D90000121C9020920C00603F047FD01200349D3
:100DA000087010BDB8040020850000209C000020C1
:100DB00000B585B0402000900220019000200290F4
:100DC000032003900420049069460920C00603F024
:100DD00021FC02200090019000200290032003904B
:100DE000042004906946024803F014FC05B000BDDD
:100DF0000004004800B585B00120000300900020E9
:100E0000019002906946024803F004FC05B000BD61
:100E10000004004800B585B08020009001200190BA
:100E2000002002900320039069460920C00603F0C9
:100E3000F1FB05B000BD000000B585B004200090B6
:100E4000012001900020029003200390694602488F
:100E500003F0E0FB05B000BD0004004800B585B01C
:100E600001208003009001200190002002900320C7
:100E700003906946024803F0CDFB05B000BD0000B9
:100E800000040048FFB583B00D461C4600200290C8
:100E900000270026FF2D21DA012718E0781E4000E8
:100EA0004349085A2841C007C00F00280DD0701CC4
:100EB000C6B2A019401C2D2804DAA019401E3D49D5
:100EC0000F5402E0692007B0F0BD781CC7B23A4861
:100ED00000788742E2DDA01936490E54FF2D0BD170
:100EE000601C2D2808DA35480078401CC0B2334910
:100EF00008703049085518E0FF2D01D16920E2E75C
:100F0000FF2D0EDAA019801C2D280ADA2B48007854
:100F1000401CC1B229480170A019401C254A115437
:100F200003E0FF2D01DA6920CDE7FF2D03D1A01DDD
:100F3000C0B2029004E0701C2018801DC0B2029064
:100F4000039802F053F90120019027E01C48007833
:100F5000401E41001B48415A0198401E0141C807EC
:100F6000C00F002816D0FF2D0AD10298401F80B272
:100F70000090FF22059B0399019809F0A5FE09E066
:100F80000298401F80B20090FE22059B03990198B1
:100F900009F09AFE0198401CC0B201900198062801
:100FA000D4DD611C0348FFF756F900208BE70000F1
:100FB000CA090020280B0020840000209A0000208D
:100FC0008500002050050020F0B585B007460C468E
:100FD0000020039000BF00BF00BF601E2A490D5CC7
:100FE000601E322148432949401840780290601E13
:100FF000322148432549401880780102601E322280
:101000005043224A8018C078081880B201906A1FA5
:10101000601E322358431D4BC018011D1C48FFF7AA
:1010200001F9029802F0E2F8012624E0194800785C
:10103000401E40001849085A711E0841C007C00FE1
:10104000002816D0FF2F09D1681F80B20090FF2220
:101050003046019B029909F037FE0AE0FE2F08D1C5
:10106000681F80B20090FE223046019B029909F071
:101070002BFE701CC6B2062ED8DD691F0448FFF790
:10108000EAF8039805B0F0BD8D000020FC090020AF
:10109000280B0020850000205005002070B586B088
:1010A00000250026012455E2E0002018FE494018E2
:1010B0004078002876D0FD480078002803D1E10070
:1010C0006118F94A505402A804AB03AA05A900907C
:1010D000204602F0C5FB002268468189059803F08E
:1010E000A4FB0A200AF038FA68460189049803F044
:1010F0008FFB00280ED1012268468189059803F0F4
:1011000094FB0A200AF028FA68460189049803F043
:101110007FFB0546002268468189059803F085FB20
:10112000E0002018E04940184078012806D0022845
:101130000CD0032812D0042820D117E0012D01D1B2
:10114000042602E0002D00D1032618E0012D01D174
:10115000042602E0002D00D1032610E0012D01D16C
:10116000022602E0002D00D1012608E0012D01D168
:10117000012602E0002D00D1022600E000BF00BFE2
:10118000042E01D0022E12D1A000C9490858C94925
:10119000884208D2A000C6490858401CA100C44A91
:1011A000505004E0D4E10020A100C14A5050032E69
:1011B00001D0012E2CD1A000BF490858BD4988425A
:1011C00007D2A000BC490858401CA100BA4A5050A0
:1011D00003E00020A100B84A5050B8480078022827
:1011E0000BD1B748005DB7494979884205DCB4485E
:1011F000005D401CB24908550AE0B148005DB149A4
:101200004979884204DD0020AC490870AC49085592
:10121000A000A7490858AB490988884261D3A000BB
:10122000A3490858A749098888420BD10720E10043
:1012300061189D4A5054A0009D490858401CA100C7
:101240009B4A5050A0009C4908589E4909888842F2
:1012500003D90020A100984A5050A0009449085892
:1012600098494988884225D9A00091490858FF210A
:10127000F53188421ED291480078002803D1012020
:101280008E4908702DE08D480078022829D18C48BD
:10129000005D8C490979884223DD8948005D8949D0
:1012A000497988421DDA0320844908700020844966
:1012B000085516E0A0007E490858FF21F531884204
:1012C0000FD3A0007A4908587A49884209D27B484E
:1012D0000078002802D0002078490870204600F0ED
:1012E00043F9A0007449085876490988884255D3C3
:1012F000A000714908587349098888420BD1082019
:10130000E1006118684A5054A0006B490858401C1D
:10131000A100694A5050A0006549085869490988E8
:10132000884203D90020A100614A5050A0006249C0
:10133000085864494988884220D9A0005E49085865
:10134000FF21F531884219D25C480078012808D184
:101350000520E1006118544A505402205749087092
:101360001CE056480078032818D10620E1006118D7
:101370004D4A50540020514908700FE0A0004E49DA
:101380000858FF21F531884208D3A0004A4908587F
:101390004849884202D2204600F020F9E000201897
:1013A0004149085C401F03000BF058F80A182C064E
:1013B0000F40556A91A6BBD020460CF07FF8002064
:1013C000E1006118384A5054C1E020460CF078F82A
:1013D0000020E1006118344A5054B8E033480078E6
:1013E00000280ED1E00020182F494018007AC007CD
:1013F000C00F002805D001202C49087020460CF0B1
:101400005BF8A4E02948007800280ED1E0002018FD
:1014100025494018007A02210840002805D0012003
:101420002249087020460CF048F890E01F480078E8
:1014300000280FD1E00020181B494018007A042131
:101440000840002806D001201849087001212046D4
:101450000CF035F87BE01548007800280FD1E0004B
:10146000201811494018007A08210840002806D0A9
:1014700001200E490870022120460CF020F866E099
:101480000A480078002821D1E000201806494018B9
:10149000007A10210840002818D001200349087064
:1014A0000321204610E0000050110020B100002070
:1014B00090110020FFFF0000AC110020E700002089
:1014C000A9000020B80400200BF0F9FF3FE02448F9
:1014D000007800280FD1E000201822494018007A37
:1014E00020210840002806D001201D490870012154
:1014F00020460BF0E6FF2AE01948007800280FD1BB
:10150000E000201817494018007A402108400028C0
:1015100006D0012012490870022120460BF0D1FFAD
:1015200015E00F48007800280FD1E00020180D4981
:101530004018007A80210840002806D00120084980
:101540000870032120460BF0BCFF00E000BF00BF85
:10155000601CC4B2062C00DCA6E506B070BD00001D
:10156000B100002050110020F0B501460020CD0050
:101570004D19184EAD19AA78CD004D19AD19EB785B
:10158000CD004D19AD192C797D25ED006A436B43D3
:101590006C438D00104E7559954205D10925CE003A
:1015A0008E190C4FBD5514E08D000B4E75599D42A0
:1015B00005D10A25CE008E19064FBD5509E08D00D4
:1015C000054E7559A54204D10A25CE008E19014F4A
:1015D000BD55F0BD5011002090110020F0B501461E
:1015E0000020CD004D19184EAD196A79CD004D1966
:1015F000AD19AB79CD004D19AD19EC797D25ED0014
:101600006A436B436C438D00104E7559954205D16A
:101610000C25CE008E190C4FBD5514E08D000B4EDD
:1016200075599D4205D10D25CE008E19064FBD5529
:1016300009E08D00054E7559A54204D10D25CE0057
:101640008E19014FBD55F0BD50110020AC11002086
:1016500070B5002532211048FEF7FDFD012415E08C
:10166000601E40000C49085A002809D0621E520032
:101670000B46995A621C5200084B985A01F0D0F957
:10168000A01C1C2800DB0A25601CC4B2044800789A
:101690008442E5DD284670BD160800202E17002084
:1016A0008400002070B50024002511491148FEF780
:1016B000D2FD01201049087000201049087002F086
:1016C00093FF0F4801F018FD0E4801F05BFD054641
:1016D000002D03D00C48C069C0B270BD0B48006932
:1016E000022188430949086102F016FFE0B2F4E7DD
:1016F00026020000F0050020840000208500002064
:1017000000D8010850C30000480400200020024017
:101710008EB0342101A8FEF79EFD00BF0021C94311
:1017200001200EF021F971480079303870490880A5
:101730006E48C07830380A2148436D4909884018FE
:101740006B4908806948807830386421484368498B
:1017500009884018664908806448407830387D21FF
:10176000C900484362490988401861490880084611
:1017700000886049401803000AF070FE11111891AA
:101780000A0B0C0D0E0F1020912C3B914978910003
:1017900086E085E084E083E082E081E080E0012271
:1017A000D1020920C00603F040F879E000220121AF
:1017B000C9020920C00603F038F871E000204E4944
:1017C00008704E484079001FC1B24848401D0BF0D8
:1017D0007BFD65E001204A490870002046490870F9
:1017E00046484079001FC1B24048401D0BF080FEC2
:1017F00056E00020424908703F4908703F48407950
:10180000001FC1B23948401D0BF05EFD48E00020CA
:101810003949087035484079302804D139A101A8E8
:101820000AF008FE03E03EA101A80AF003FE4248C8
:1018300042490978405C032810D101A8FEF739FD20
:10184000C4B2214601A80BF03FFDFF202A490870D1
:1018500001213B4800680EF019FB06E001222349F4
:10186000491D384800780BF01BFD19E03248334918
:101870000978405C03280CD1002108460DF0FAFAE3
:10188000FF201D49087001212D4800680EF0FEFA66
:1018900004E02C48017801200DF0ECFA00E000BFD4
:1018A00000BF342101A8FEF7D6FC32210F48FEF715
:1018B000D2FC0020114948711F488079022812D0BB
:1018C0001D48807903280ED01B48807904280AD04F
:1018D000002019498871062002F070F804460122A0
:1018E000194904F053FC0EF08FF917E7F60A0020AF
:1018F00064020020FDF6FFFF580200208D0000204A
:1019000059020020436F6E6E656374696F6E2073B9
:101910007563636565646564202E2E2E0D0A0000D4
:10192000436F6E6E656374696F6E206661696C6586
:1019300064202E2E2E0D0A00860000209B00002021
:101940005C0200205A0200209300002010B50A48D3
:1019500002F08AF809480068002804D008480068A6
:10196000401C074908600648006804490968884225
:1019700001D309F077FF10BDD41E00208C02002097
:101980008002002010B5144800682021084040095A
:10199000002803D0114802F067F81BE010480068E7
:1019A000012149020840400A002813D00D4802F0E6
:1019B0005BF80D480068002804D00C480068401C03
:1019C0000A4908600948006807490968884201D344
:1019D00009F07EFF10BD0000000402409C1E0020A4
:1019E000000002400C1F0020900200208402002012
:1019F00010B51A480068012149040840400C00282D
:101A000003D0174802F030F827E01448006801219D
:101A100049050840400D002803D0124802F024F880
:101A20001BE011480068012149020840400A0028D3
:101A300013D00E4802F018F80D480068002804D0B2
:101A40000C480068401C0B4908600A4800680849B7
:101A50000968884201D309F071FF10BD00000240FF
:101A60002C1E0020641E002000040240441F0020A1
:101A7000940200208802002010B504686360446866
:101A8000102C04D10468A2600468E16003E00468DB
:101A9000A1600468E26010BDF8B50646002701F0B9
:101AA00055FD05468DA0007828708D4802788DA1DF
:101AB00093480AF0BFFC92492846FEF7D7FB9148AD
:101AC000027891A18E480AF0B5FC8D492846FEF7B0
:101AD000CDFB04200123002292A1009088480AF047
:101AE000A9FC87492846FEF7C1FB96A298A1844825
:101AF0000AF0A0FC82492846FEF7B8FB9AA29DA1F5
:101B00007F480AF097FC7E492846FEF7AFFBA0A16C
:101B10007B480AF08FFC7A492846FEF7A7FB012490
:101B200032E022469FA176480AF084FC7449284698
:101B3000FEF79CFB9D48005D03000AF08FFC050446
:101B4000090E13181D009AA16D480AF073FC14E0E9
:101B500099A16B480AF06EFC0FE09DA168480AF05D
:101B600069FC0AE09DA166480AF064FC05E0A2A1B8
:101B700063480AF05FFC00E000BF00BF60492846F0
:101B8000FEF774FB601CC4B2062CCADDA2A15C483F
:101B90000AF050FC5A492846FEF768FBA648006840
:101BA0004068002804D1A5A155480AF043FC0FE085
:101BB000AA49086801F020FE04469F49486A01F0DE
:101BC0001BFE23460246A6A100904D480AF032FCB7
:101BD0004B492846FEF74AFBAE480068406800289B
:101BE00004D1ADA146480AF025FC0FE09B494868A6
:101BF00001F002FE0446A749486A01F0FDFD2346B4
:101C00000246ADA100903E480AF014FC3C4928462B
:101C1000FEF72CFBB54800684068002804D1B4A149
:101C200037480AF007FC0FE08C49886801F0E4FDB2
:101C30000446AE49486A01F0DFFD23460246B4A1DE
:101C400000902F480AF0F6FB2D492846FEF70EFBC0
:101C500053A12846FEF70AFBBAA12846FEF706FB69
:101C60002846FEF726FB87B2012417E01C480078BF
:101C7000401E4000BB49085A611E0122D2030A419E
:101C80001040002808D02246B7A11D480AF0D2FB18
:101C90001B492846FEF7EAFA601CC4B2062CE5DDB3
:101CA0002846FEF706FBB84203D1B1A12846FEF74D
:101CB000DDFA3BA12846FEF7D9FA002E0CD02846C3
:101CC000FEF7F7FA84B20020C043322322462946A9
:101CD000009030460EF08EF8F8BD000000000000C5
:101CE000850000200A0D2A2A2A204D6F64756C6534
:101CF00020256420537461747573202A2A2A0A00EF
:101D0000680400209B0000200A0D436F6E6E65631F
:101D10007465642076696120706F72743A20502572
:101D2000640A0D000A0D4669726D7761726520764E
:101D3000657273696F6E3A2025642E25642E2564C2
:101D400000000000536570203233203230313800FB
:101D50000A0D4669726D7761726520646174653A37
:101D6000202020202573000031363A34333A3136B2
:101D7000000000000A0D4669726D7761726520747B
:101D8000696D653A2020202025730A0D00000000AF
:101D90000A0D506F727473205374617475733A0A2C
:101DA0000A0D00005025643A200000008600002043
:101DB000467265650A0D0000526563656976696E55
:101DC00067206D657373616765730A0D000000001D
:101DD00053747265616D696E670A0D0052656365C3
:101DE0006976696E67207573657220636F6D6D61CA
:101DF0006E64730A0D000000436F6E6E6563746558
:101E00006420746F206120627574746F6E2F737715
:101E1000697463680A0D00000A0D506F72742D74A6
:101E20006F2D706F727420444D4173205374617430
:101E300075733A0A0D000000D41E00200A0D506F81
:101E400072742D746F2D706F727420444D41203167
:101E50002069732066726565000000007C1F002009
:101E60000A0D506F72742D746F2D706F7274204450
:101E70004D4120312069732073747265616D696E04
:101E8000672066726F6D2050256420746F20502586
:101E9000640000000C1F00200A0D506F72742D7436
:101EA0006F2D706F727420444D4120322069732071
:101EB00066726565000000000A0D506F72742D7423
:101EC0006F2D706F727420444D4120322069732051
:101ED00073747265616D696E672066726F6D2050F4
:101EE000256420746F20502564000000441F0020EA
:101EF0000A0D506F72742D746F2D706F72742044C0
:101F00004D41203320697320667265650000000032
:101F10000A0D506F72742D746F2D706F727420449F
:101F20004D4120332069732073747265616D696E51
:101F3000672066726F6D2050256420746F205025D5
:101F4000640000000A0D546865736520706F727438
:101F500073206172652072657665727365643A20DC
:101F6000000000001608002050256420000000003A
:101F70004E6F6E6500000000F8B5064627A12E489A
:101F80000AF058FA2C48FEF794F984B20020C043B6
:101F9000322322462849009030460DF02BFF0124C1
:101FA00025E001251FE0601E40002449085A691EF3
:101FB0000122D2030A411040002812D02B462246AB
:101FC0001FA11D480AF036FA1B48FEF772F987B2C6
:101FD0000020C04332233A461749009030460DF0A6
:101FE00009FF681CC5B20A2DDDDD601CC4B21948AA
:101FF00000788442D5DD18A10F480AF01BFA0E487C
:10200000FEF757F984B20020C043322322460A4922
:10201000009030460DF0EEFEF8BD00000A0D546849
:1020200065736520706F72747320617265207265CC
:102030007665727365643A00680400201608002013
:102040000A0D4D6F64756C65202564203A2050257B
:1020500064000000840000200A0A0D416C6C206FAF
:102060007468657220706F72747320617265206E7F
:102070006F726D616C0A0D00F8B5064658A15D4897
:102080000AF0D8F95B48FEF714F984B20020C04387
:10209000322322465749009030460DF0ABFE012412
:1020A00013E0224654A153480AF0C4F95148FEF700
:1020B00000F985B20020C04332232A464D490090E2
:1020C00030460DF097FE601CC4B2062CE9DD0020FE
:1020D000C043322303224AA1009030460DF08AFE0D
:1020E00000246EE0621C47A142480AF0A3F941486F
:1020F000FEF7DFF885B20020C04332232A463D496F
:10210000009030460DF076FE16206043404A105A8B
:10211000062250433F4A811805223648FEF7B2F89E
:102120000020C043322305223249009030460DF092
:1021300061FE0020C043322301222DA100903046D1
:102140000DF058FE01252FE016206043304940185D
:102150006900405A002805D100222FA125480AF025
:1021600069F912E016206043294940186900405C73
:1021700043075B0F16206043254940186900405A09
:10218000C21026A11B480AF055F91A48FEF791F82B
:1021900087B20020C04332233A46164900903046A9
:1021A0000DF028FE681CC5B2062DCDDD0020C04311
:1021B000322302221BA1009030460DF01BFE601C52
:1021C000C4B21948007884428CDB0020C04332231B
:1021D000012216A1009030460DF00CFEF8BD000063
:1021E0000A0D284D6F64756C653A506F7274290939
:1021F0000900000068040020502564090000000068
:102200000A0A0D004D6F64756C652025643A09005B
:10221000F0050020D82201082564090025643A252C
:10222000640900000A0D0000840000200A0000007C
:102230000346062106221448018814480288002B10
:1022400015D0012B1DD1002A06D11148814201D1A0
:10225000002070470220FCE7002906D10C4882428A
:1022600001D10220F5E70020F3E7AB20F1E70029D8
:1022700001D10020EDE7002A01D10220E9E7AB20DF
:10228000E7E70020E5E7000000E0010800F00108B2
:10229000EEEE000010B5002402F0A6F92C4800F084
:1022A0002BFF2C4800F06EFF0446002C03D02A4878
:1022B000C06980B210BD294800F01EFF254800F01B
:1022C00061FF0446002C03D02348C06980B2F1E7C7
:1022D00023480069022188432149086100221346EE
:1022E0001B49012002F022F91A4800F04BFF044676
:1022F000002C03D01848C06980B2DBE71848006999
:102300004008400016490861164800F0F5FE1148E3
:1023100000F038FF0446002C03D00F48C06980B29B
:10232000C8E7114800F0E8FE0A4800F02BFF044619
:10233000002C03D00848C06980B2BBE70848006998
:10234000400840000649086102F0E6F82046B1E77F
:1023500000E0010850C300004804002000E8010824
:102360000020024000F0010800F8010810B50648FE
:10237000006B0649884206D0FFF78CFF002802D187
:1023800002480149086310BDC07F0020ADDEEFBEEA
:10239000FEB50620029006260025002001900027A9
:1023A000401E0090012402F01FF9012003E04200CA
:1023B000EC4B9852401CFF2137318842F7DDEA4848
:1023C00000880290E94806880298002872D0E849FF
:1023D0004018002872D0E749401800286CD1002E20
:1023E00020D1E14800F088FEE34800F0CBFE04462F
:1023F000002C03D0E148C06980B2FEBDE04800F087
:102400007BFEDD4800F0BEFE0446002C03D0DB4816
:10241000C06980B2F1E7DB48006902218843D949ED
:1024200008614AE0D2484042864236D1CE4800F0A8
:1024300063FED14800F0A6FE0446002C03D0CF482E
:10244000C06980B2D9E7CE4800F056FECA4800F015
:1024500099FE0446002C03D0C848C06980B2CCE77E
:10246000C848006902218843C64908610022134612
:10247000BE49012002F05AF8BF4800F083FE04462E
:10248000002C03D0BD48C06980B2B6E7BD480069E2
:1024900040084000BB4908610FE0FFF7FBFE04461F
:1024A000B54800F06FFE0446002C06D0B348C06962
:1024B00080B2A2E7B0E001E043E14EE1002E63D13B
:1024C000002526E0A848C0886900A64A515A8842DB
:1024D00001D128B200900098854218D06900A14A25
:1024E000505AA94900F00AFA0746012F0FD0690097
:1024F0009C4A505AA449098800F032FA01909E483B
:1025000000F040FE0446002C01D0019875E7681CDD
:1025100085B2FF2037308542D4DB00221346924932
:10252000012002F003F8944800F02CFE0446002C31
:1025300003D09248C06980B25FE7924800694008C2
:10254000400090490861894800F0D6FD8A4800F0B3
:1025500019FE0446002C03D08848C06980B24CE7BD
:102560008A4800F0C9FD844800F00CFE0446002CA7
:1025700003D08248C06980B23FE7824800690221E7
:1025800088438049086146E08148864236D17748D1
:1025900000F0B2FD784800F0F5FD0446002C03D0B1
:1025A0007648C06980B228E7784800F0A5FD7248F7
:1025B00000F0E8FD0446002C03D07048C06980B2EA
:1025C0001BE770480069022188436E4908610022B8
:1025D00013466549012001F0A9FF674800F0D2FDCC
:1025E0000446002C03D06548C06980B205E7654801
:1025F000006940084000634908610CE0FFF74AFEAB
:1026000004465D4800F0BEFD0446002C03D05B4844
:10261000C06980B2F1E6A0E0002E0AD1FFF73AFED1
:102620000446554800F0AEFD0446002C24D0204658
:10263000E3E65748864220D14C4800F05DFD4E4805
:1026400000F0A0FD0446002C03D04C48C06980B2C5
:10265000D3E64E4800F050FD474800F093FD044695
:10266000002C03D04548C06980B2C6E645480069E1
:10267000022188434349086162E0002526E03B4887
:10268000C0886900374A515A884201D128B2009067
:102690000098854218D06900324A505A3A4900F0F1
:1026A0002DF90746012F0FD069002E4A505A36499E
:1026B000098800F055F901902F4800F063FD0446A9
:1026C000002C01D0019898E6681C85B2FF203730B5
:1026D0008542D4DB002213462449012001F026FF65
:1026E000254800F04FFD0446002C03D02348C06964
:1026F00080B282E623480069400840002149086111
:10270000194800F0F9FC1C4800F03CFD0446002C80
:1027100003D01A48C06980B26FE6194800F0ECFC9B
:10272000154800F02FFD0446002C03D01348C06963
:1027300080B262E6134800690221884311490861AA
:102740000BE0FFF7A7FD04460B4800F01BFD044615
:10275000002C01D0204650E600BF00BF01F0DCFE97
:1027600000204AE62E17002000E0010800F00108D2
:102770001211FFFFEFEEFFFF50C3000048040020DE
:1027800000E80108002002402C02002000F80108A7
:10279000FFFF0000F3B585B0074600240020049039
:1027A0000390029000250026019001F01DFF0020FB
:1027B000FFF73EFD02900298022804D1474804909A
:1027C000474803900AE00298002804D14448049046
:1027D0004248039002E0AB2007B0F0BD414A00231D
:1027E0000120049901F0A2FE3F4800F0CBFC044612
:1027F000002C03D03D48C06980B2EDE73C48006939
:10280000400840003A4908613846069900F0A8F8A7
:102810000646002E01D03046DEE700251CE06800A9
:102820003449085AB84215D06900324A505A3249E0
:1028300000F064F80190019801280BD069002D4A3E
:10284000505A2D49098800F08BF80646002E01D019
:102850003046C1E7681C85B2FF2037308542DEDB99
:10286000039800F049FC204800F08CFC0446002C42
:1028700003D01E48C06980B2AEE70121C9020398A7
:10288000401800F039FC184800F07CFC0446002C8D
:1028900003D01648C06980B29EE71548006902213E
:1028A000884313490861002213460120049901F06E
:1028B0003DFE0D4800F066FC0446002C03D00B489A
:1028C000C06980B288E70A480069400840000849AA
:1028D000086101F021FE20467EE7000000E00108CB
:1028E00000F00108EEEE000050C300004804002094
:1028F000002002402E1700202C020020FEB50646C4
:102900000F46002514480290012001900024002069
:102910000090FFF78DFC0546AB2D00D1FEBDE8020F
:102920000E4940180090A81CC002891E44180CE0F3
:10293000208802900298B04206D120464038C08FCD
:1029400038800020019004E0241F0098801C8442FD
:10295000EED800BF0198E1E75555000000E00108FE
:10296000FEB505460E460020019000270024009089
:1029700001F03AFE0120FFF75BFC0746AB2F00D1C8
:10298000FEBDF80222494418B81CC002891E401836
:10299000009036E02068401C002831D132460023E8
:1029A0002146012001F0C2FD1A4800F0EBFB019026
:1029B0000198002803D01848C06980B2E0E71748A2
:1029C000006940084000154908612A460023A11CFF
:1029D000012001F0ABFD0F4800F0D4FB01900198FD
:1029E000002803D00C48C06980B2C9E70B480069D1
:1029F00040084000094908610748C06980B2BFE744
:102A0000241D00988442C5D301F086FD8020B7E7DD
:102A100000E0010850C300004804002000200240EC
:102A200070B505460E46002401F0DEFD314628460D
:102A3000FFF796FF0446802C04D131462846FFF765
:102A4000A9FE044601F068FD204670BDFEB50020D9
:102A50000290002400F07AFD019000BF3DE0224882
:102A6000005DC007C00F002835D01F48005DFE2163
:102A7000084080282DD1611C88B205F025FB002874
:102A800026D1651C1FE01848405D822815D11649E3
:102A9000681C0F1800BF012252023846019900F04D
:102AA0008DFD0646002EF6D10198FDF702FC014689
:102AB00000900198FDF7CFFB04E00B48405DF02843
:102AC00000D104E06D1C094800888542DBDD00BFB1
:102AD00000E000BF00BF601C84B20448008884424C
:102AE000BDDD0298FEBD00006A1200201C0200201D
:102AF000F0B589B000200890002707900690059057
:102B0000002400250490002603900120FE4908704F
:102B100002900FE0FD4909780298884206D0029899
:102B200000F04CFF0121019008F06CFF0298401C5E
:102B3000C0B2029002980628ECDDF448007800F05C
:102B4000A1FA0220F24908700127012625E0701E33
:102B50008000F049085A00281DD0781CC0B20746F2
:102B6000ED494870ED4807700020087003201023DD
:102B7000002211460090304608F0A6F83902701E77
:102B80008000E44A105C081881B2701E8000115267
:102B90000A200BF029FA701CC6B2062ED7DDE048D9
:102BA0000088E0490880012631E0701E8000D94984
:102BB000085A002829D0701E8000085A03900398F4
:102BC00000120690701E8000085C05900698C100F7
:102BD000059801437000D34A1152701E8000CD4900
:102BE000401841880698401E16225043CD4A115283
:102BF000C5480078C10031430698401E1622504354
:102C0000C84A8218059840001152701CC6B2062EA0
:102C1000CBDD022412E00B2078434200C149BE48BC
:102C2000FDF700FB0B20784342001121204608F0FD
:102C300009F93C200BF0D8F9601CC4B2BC42EADDB3
:102C4000C0E007970224BAE0012005E00122411EFE
:102C5000B14B5A54411CC8B20A28F7DD0020AE49D6
:102C600088720B220E21204608F0ECF80A200BF0A7
:102C7000BBF900220C21204608F0E4F864200BF098
:102C8000B3F901252DE0681E8000A749085A03907A
:102C90000398001206900398002820D00698002878
:102CA0001DD1781CC0B207469B4948709B480770ED
:102CB0003902681E80009C4A105C081881B2681EA8
:102CC0008000115201209449087008468570032243
:102CD0001021204608F0B6F80A200BF085F9681C90
:102CE000C5B20A2DCFDD01254AE0681E80008E495D
:102CF000085A002842D0681E8000085A03900398A2
:102D000000120690681E8000085C05900698012855
:102D100034D0601E16214843824940186900405A49
:102D200000280AD10698C10005980143601E1622AA
:102D300050437C4A80186A0081520698401E162132
:102D400048437849411805984000085A002815D191
:102D5000681E80007449401841880698401E16225B
:102D60005043704A1152E10029430698401E162232
:102D700050436C4A8218059840001152681CC5B235
:102D80000A2DB2DD28216848FDF765FA022512E018
:102D90000B207843420063495F48FDF743FA0B205C
:102DA000784342001121284608F04CF83C200BF0F3
:102DB0001BF9681CC5B2BD42EADD601CC4B2BC424E
:102DC00000DC41E70798B84200D03AE74F48007866
:102DD00000F058F9012411E0601E80004D49085AA6
:102DE00003900398001206900398002804D00698D8
:102DF000002801D105200890601CC4B2062CEBDD30
:102E000002241FE000220C21204608F01BF8642059
:102E10000BF0EAF8012511E0681E80004249085ACB
:102E200003900398001206900398002804D0069897
:102E3000002801D105200890681CC5B20A2DEBDDE1
:102E4000601CC4B2BC42DDDD0898002870D10126A8
:102E50000AE036480188701E0122D20302419143E4
:102E600032480180701CC6B2062EF2DD3C46A9E055
:102E7000012004907CE0601E162148432949411836
:102E800004984000085A002813D100210498401EDD
:102E9000214A1154601E40002449095A0498401EDA
:102EA0000122D20302419143601E40001F4A115289
:102EB0005AE0601E162148431A4941180498400000
:102EC000085A039003984005000E069003984007A7
:102ED000400F05900698401E40001449095A059875
:102EE000401E0122D20302411140002929D10121B3
:102EF0000498401E084A1154601E40000B49095AAC
:102F00000498401E012214E0850000209B00002050
:102F10003600002010050020280B0020840000202F
:102F200034000020F00500202805002016080020AD
:102F30005CE0D20302411143601E4000494A115235
:102F400012E000210498401E474A1154601E4000C0
:102F50004449095A0498421E0120C003104181438C
:102F6000601E40003F4A11520498401CC0B20490B9
:102F700004980A2800DC7EE72146012000F0D6F9FB
:102F8000601E3A49085C401E3949085C069020469C
:102F9000069900F0CBF905900698A04205D0059857
:102FA000401E3149085C012802D101202E49887257
:102FB0000B220E21204607F045FF0A200BF014F8E3
:102FC000601EC4B2022C00DB52E701260CE0294847
:102FD0000078864206D0304600F0F0FC00210290D6
:102FE00008F010FD701CC6B2062EF0DD089800280F
:102FF00026D164200AF0F8FF40201F49887102247E
:103000001AE000220121204607F01CFF611E174A2A
:10301000515CFF222D32514308460AF0E5FF174864
:103020000088002801D1089004E014480088022894
:1030300000D10890601CC4B2114800788442E0DDE1
:10304000089800280BD107F0CDFD07F0A5FD6420FE
:103050000AF0CAFF00221521FF2007F0F3FE0898AE
:1030600009B0F0BD16080020280B002048080020F9
:103070007A0800209B000020B8040020980000205F
:1030800084000020F8B505460026012418E0AC4273
:1030900014D00D48008800120C4908700A480078C6
:1030A00048700846847003200A23002211460090CD
:1030B000204607F009FE0A200AF096FF601CC4B201
:1030C000062CE4DD3046F8BD34000020280B00203B
:1030D00000200749C86107480069042108430549E1
:1030E00008610846006940210843024908617047A9
:1030F00048040020002002400021084AD16108490C
:10310000096902221143064A1161114648610969A1
:1031100040221143024A1161704700004804002018
:10312000002002400022054BDA61054A12690123A2
:103130001A43034B1A6101807047000048040020C5
:10314000002002400D48C06810210840102805D119
:103150000B48C069022108430949C8610748C06893
:1031600004210840042805D10548C069012108430D
:103170000349C86114200149C8607047002002401B
:103180004804002070B5044601F064FB05460BE0DE
:10319000601C002808D0002C04D001F05BFB401B11
:1031A000A04201D9032070BD0F48C068C007C00FFE
:1031B0000028EDD10C48C06820210840202801D10A
:1031C0000949C8600848C06810210840102805D087
:1031D0000548C06804210840042803D1FFF7B2FF66
:1031E0000120E0E70020DEE700200240F1B584B0D6
:1031F0000020019000250024002700904848007816
:10320000029002980AF046FE064600BF06E0002043
:1032100030556100434A5052601CC4B240480078A7
:103220008442F4DB781CC1B20F460498401E31542E
:10323000781CC7B2012525E00498401E162148439A
:10324000394940186900405A002819D00498401E96
:1032500040003449085A691E01228A40104381B255
:103260000498401E40002F4A11520498401E162117
:1032700048432D4940186900405AC010401E375439
:10328000681CC5B2062DD7DD00BF00200090781C59
:10329000C7B2002435E0315D781E81422FD101256F
:1032A0002BE016206043204940186900405A00284E
:1032B00021D0162060431C4940186900405AC010B4
:1032C000401E305C002816D160001649085A691E5D
:1032D00001228A4010436100124A50521620604376
:1032E000114940186900405AC010401E37540098D8
:1032F000401CC0B20090681CC5B2062DD1DD601C18
:10330000C4B2074800788442C5DB00980028BCD1CD
:103310000198039030460AF001FA039805B0F0BD19
:103320008400002050050020F0050020F0B58FB08B
:1033300005460E46342102A8FCF78DFF00200190BF
:1033400000240027009019215648FCF784FF002133
:10335000681E554A1154554A115401211CE0681E3B
:1033600016225043524A80184A00805A002812D030
:10337000681E162250434E4A80184A00805AC010D8
:10338000B04208D10122701E474B1A5445480670BE
:10339000C8B20FB0F0BD491C0629E0DD012009E0EC
:1033A000A84206D0FF22411E3F4B5A5400223F4BF9
:1033B0005A54401C3F4909788842F1DD3BE002A99C
:1033C00039480AF09DFD401CC4B2B44200D138E037
:1033D0000121601E02AA115401202AE0611E16225A
:1033E0005143334A89184200895A00291FD0611E6F
:1033F000162251432E4A89184200895A49050F0E58
:10340000791E02AA515C002911D1611E264A515C25
:10341000491CC9B20191791E525C01998A4206DDAC
:103420007A1E214B01999954791E204A5454411C0B
:10343000C8B20628D2DD02A807F0ECF80028BED0FA
:1034400000BF08E00098411CC9B2009115490C5416
:10345000601E16490C5C601E1449085C0028F1D1FE
:1034600001211BE0681E16225043114A80184A00B1
:10347000805A002811D0681E162250430C4A80182A
:103480004A00805AC210701E074B185C401E054B44
:10349000185C824201D1C8B27BE7491C0629E1DDF4
:1034A000002076E77A080020480800206108002004
:1034B000F005002084000020FEB50446002600BF71
:1034C00000BF00BF00BF601E1C490D5C3221484395
:1034D0001B4940184778601E32214843184940185C
:1034E00080780102601E32225043154A8018C0784D
:1034F000081880B201906A1F601E32235843104B97
:10350000C018011D0F48FCF78DFE601E322250438B
:103510000B4A115C0C480078FFF708FF0290681F07
:1035200080B20090601E3221484305490A5C39464A
:10353000019B029807F0C8FB3046FEBD8D000020BD
:10354000FC090020280B002085000020004870475F
:10355000D81F002030B50346002400200025156048
:1035600027E000E05B1C1D78002D02D01D78202D87
:10357000F8D100E05B1C1D78002D02D01D78202DB5
:10358000F8D01D78002D13D0641C8C4211D1184640
:1035900003E015686D1C15605B1C1D78002D02D0C2
:1035A0001D78202DF5D11568002D00D1002002E0F6
:1035B00001E08C42D5D300BF30BD0000F7B5054611
:1035C000012631480068002835D130482E4908606E
:1035D0002CE02D480068006807683846FCF769FE53
:1035E0000446285D202802D0285D002819D12246F3
:1035F00039462846FCF788FE002812D12248006888
:1036000000680C21415600290ADB28460AF0BEFD5D
:103610001D49096809680C228A56904200D000268C
:1036200008E01948006840681749086016480068B3
:103630000028CED100BF1448006800280AD0002E10
:1036400008D11349029A0198FCF71CFE00200E498C
:10365000086017E00C48006800280DD00A48006890
:1036600000682A4683680299019898470646002E0A
:1036700008D10549086005E00649029A0198FCF75F
:1036800001FE00263046FEBDA80200209C0200205C
:10369000D84101083042010870B505460026002DCA
:1036A00002D172B600BFFEE708200EF037FD0446D7
:1036B000002C02D172B600BFFEE7002C0CD00CF03B
:1036C00081FA256000206060044800684460034877
:1036D00004600CF085FA0126304670BDA40200207B
:1036E00000BFFEE71CB51E200AF0D4FB04461E21D5
:1036F0002046FCF7B0FD0948008B0849497D009140
:1037000001900648837D007D401E800004490A58D0
:103710000449204608F08EFE20461CBDB804002057
:1037200068000020A824010870B505460026002482
:103730002BA12846FCF7C4FD002802D129480078B7
:1037400070BD29A12846FCF7BBFD002801D1FF2050
:10375000F6E72878232815D1681CFCF7F1FDC6B2DE
:10376000002E05DD21480078864201DC3046E7E77F
:103770001C480078864202D11A480078E0E7012010
:10378000C043DDE700240FE00B206043184A811896
:103790002846FCF795FD002804D12878002801D0A0
:1037A000601CCDE7601CC4B2104800788442EBDB9B
:1037B00000240FE00B2060430E4A81182846FCF7D6
:1037C0007FFD002804D12002FE21084300B2B7E7A4
:1037D000601CC4B20A2CEDDB0020C043B0E700003F
:1037E0006D65000085000020616C6C008400002085
:1037F00093080020820500200146134A0868904281
:1038000001D101207047114A0868904201D102207D
:10381000F8E70F4A0868904201D10320F2E70D4A09
:103820000868904201D10420ECE70B4A08689042F6
:1038300001D10520E6E7094A0868904201D1062037
:10384000E0E70020DEE70000004C004000440040BC
:103850000014014000380140005000400048004082
:10386000FFB581B00C461D460A9E002000900198CD
:1038700000F0A4F807462C4887420CD10920C00666
:1038800020600120400210800920C006286001202D
:103890008002308045E0254887420AD10920C006D1
:1038A0002060042010800920C00628600820308095
:1038B00037E01F4887420AD11E482060012080025D
:1038C00010801C4828600120C002308029E01A487E
:1038D00087420AD10920C0062060012010800920FB
:1038E000C0062860022030801BE01448874208D1BF
:1038F00010482060082010800E482860102030807A
:103900000FE00F4887420AD10920C006206010202E
:1039100010800920C00628602020308001E0FF20B0
:103920000090009805B0F0BD741A0020E41A002041
:10393000541B002000040048C41B0020341C00203D
:10394000A41C002000B587B0002201A9194801F08D
:1039500005FE002206A9174801F0D2FD6846007B4B
:10396000C011401C1449C8740298C003000CC881DF
:103970006846817910480174684641790E4841745F
:10398000684601790C4881746846817E0A48417511
:103990006846417E084881756846007E064908757C
:1039A0006846C07E7D21090141180348018307B0A4
:1039B00000BD0000C8110020B804002000B5014679
:1039C0000B0008F04BFD07110507090B0D0F110047
:1039D000064800BD0648FCE70648FAE70648F8E74F
:1039E0000648F6E70648F4E70020F2E7C41B00208B
:1039F000E41A0020A41C0020741A0020341C0020AB
:103A0000541B002070B5044600252068006840085B
:103A100040002168086000F01DFF054614E000F03A
:103A200019FF401B7D21C90088420DD9606B202100
:103A30000843606303212120015500BF002120209D
:103A4000015500BF032070BD20680068C007C00F8B
:103A50000028E4D101212120015500BF00212020B0
:103A6000015500BF0020EEE710B50446F849206874
:103A7000884255D9F7480068F54A783A216891425A
:103A800001D108214AE0F24A643A2168914201D109
:103A9000802143E0EE4A503A2168914201D1C91495
:103AA0003CE0EB4A3C3A2168914202D10121C90332
:103AB00034E0E74A283A2168914202D10121C90441
:103AC0002CE0E34A143A2168914202D10121C90550
:103AD00024E0DF4A2168914201D109051EE0DD4A58
:103AE00008322168914201D1082117E0D94A1C32DD
:103AF0002168914201D1802110E0D64A30322168FC
:103B0000914201D1C91409E0D24A4432216891425C
:103B100002D10121C90301E00121C904084055E097
:103B2000CB4880380068CA4A783A2168914201D16E
:103B300008214AE0C64A643A2168914201D18021B5
:103B400043E0C34A503A2168914201D1C9143CE094
:103B5000BF4A3C3A2168914202D10121C90334E0B5
:103B6000BB4A283A2168914202D10121C9042CE0C4
:103B7000B74A143A2168914202D10121C90524E0D3
:103B8000B34A2168914201D109051EE0B14A0832C9
:103B90002168914201D1082117E0AE4A1C32216808
:103BA000914201D1802110E0AA4A3032216891422D
:103BB00001D1C91409E0A74A44322168914202D1D7
:103BC0000121C90301E00121C9040840002872D085
:103BD0002068006808210840C0080028F7D0206845
:103BE000006888432168086099492068884254D950
:103BF000974978392068884201D108204AE09449E1
:103C000064392068884201D1802043E090495039CE
:103C10002068884201D1C0143CE08D493C392068BD
:103C2000884202D10120C00334E089492839206844
:103C3000884202D10120C0042CE085491439206853
:103C4000884202D10120C00524E0814920688842D1
:103C500001D100051EE07F4908312068884201D16A
:103C6000082017E07B491C312068884201D1802060
:103C700010E0784930312068884201D1C01409E051
:103C8000744944312068884202D10120C00301E018
:103C90000120C0046F49486055E06D4978392068BB
:103CA000884201D108204BE0694964392068884284
:103CB00002D1802044E058E06549503920688842AC
:103CC00001D1C0143CE062493C392068884202D1ED
:103CD0000120C00334E05E4928392068884202D1BF
:103CE0000120C0042CE05A4914392068884202D1CE
:103CF0000120C00524E056492068884201D1000512
:103D00001EE0544908312068884201D1082017E09C
:103D100050491C312068884201D1802010E04D4973
:103D200030312068884201D1C01409E0494944314A
:103D30002068884202D10120C00301E00120C004B4
:103D4000434980394860606B012108436063042166
:103D50002120015500BF00212020015500BF206B0C
:103D6000002802D02046216B8847394920688842C4
:103D700055D938480068364A783A2168914201D1CD
:103D800004214AE0324A643A2168914201D140213B
:103D900043E02F4A503A2168914201D109153CE095
:103DA0002B4A3C3A2168914202D10121890334E037
:103DB000274A283A2168914202D1012189042CE046
:103DC000234A143A2168914202D10121890524E055
:103DD0001F4A2168914201D1C9041EE01D4A0832E0
:103DE0002168914201D1042117E01A4A1C3221684E
:103DF000914201D1402110E0164A303221689142AF
:103E000001D1091509E0134A44322168914202D1D7
:103E10000121890301E001218904084059E00C488F
:103E2000803800680A4A783A2168914201D1042119
:103E30004EE0074A643A2168914201D1402147E0AF
:103E4000034A503A2168914206D1091540E000002A
:103E50008000024000040240F74A2168914202D1EA
:103E60000121890334E0F44A14322168914202D1DD
:103E7000012189042CE0F04A28322168914202D1C4
:103E80000121890524E0EC4A3C322168914201D1AC
:103E9000C9041DE0E94A2168914201D1042117E0DB
:103EA000E64A14322168914201D1402110E0E34AF0
:103EB00028322168914201D1091509E0DF4A3C32DC
:103EC0002168914202D10121890301E00121890485
:103ED0000840002873D0206800680421084080084A
:103EE00000286CD02068006820210840002805D1F7
:103EF000206800680421884321680860CE493C316D
:103F00002068884254D9CC493C392068884201D184
:103F1000042049E0C84928392068884201D140205E
:103F200042E0C54914392068884201D100153BE0C0
:103F3000C1492068884202D10120800334E0BE4993
:103F400014312068884202D1012080042CE0BA4953
:103F500028312068884202D10120800524E0B6493A
:103F60003C312068884201D1C0041DE0B34920687B
:103F7000884201D1042017E0B049143120688842FA
:103F800001D1402010E0AD4928312068884201D19C
:103F9000001509E0A9493C312068884202D101207E
:103FA000800301E001208004A4490839486054E0FE
:103FB000A1493C392068884202D104204AE055E0FA
:103FC0009D4928392068884201D1402042E09A4921
:103FD00014392068884201D100153BE096492068D9
:103FE000884202D10120800334E0934914312068D3
:103FF000884202D1012080042CE08F4928312068BA
:10400000884202D10120800524E08B493C312068A0
:10401000884201D1C0041DE088492068884201D14E
:10402000042017E0854914312068884201D14020DE
:1040300010E0824928312068884201D1001509E04A
:104040007E493C312068884202D10120800301E092
:10405000012080047849443948601121212001550C
:10406000E06A002802D02046E16A884772493C3164
:104070002068884255D97148083800686E4A3C3A31
:104080002168914201D1022149E06B4A283A216816
:10409000914201D1202142E0674A143A21689142BD
:1040A00001D149153BE0644A2168914202D10121C6
:1040B000490334E0604A14322168914202D101215F
:1040C00049042CE05C4A28322168914202D1012146
:1040D000490524E0584A3C322168914201D18904C3
:1040E0001DE0564A2168914201D1022117E0534A4E
:1040F00014322168914201D1202110E04F4A283228
:104100002168914201D1491509E04C4A3C322168AD
:10411000914202D10121490301E0012149040840F3
:1041200054E0454844380068434A3C3A216891428B
:1041300001D1022149E0404A283A2168914201D147
:10414000202142E03C4A143A2168914201D14915AC
:104150003BE0394A2168914202D10121490334E010
:10416000354A14322168914202D1012149042CE0E0
:10417000314A28322168914202D10121490524E0C7
:104180002D4A3C322168914201D189041DE02B4A1D
:104190002168914201D1022117E0284A1432216896
:1041A000914201D1202110E0244A28322168914215
:1041B00001D1491509E0214A3C322168914202D1DE
:1041C0000121490301E001214904084000286FD082
:1041D00020680068022108404008002868D0206854
:1041E000006820210840002805D1206800680221CD
:1041F00088432168086010493C312068884258D9BA
:104200000D493C392068884201D102204CE00A491E
:1042100028392068884201D1202045E00649143918
:104220002068884201D140153EE003492068884259
:1042300006D10120400337E0440002400804024058
:104240004E492068884202D1012040042CE04B49AD
:1042500014312068884202D10120400524E04749FA
:1042600028312068884201D180041DE0444920683B
:10427000884201D1022017E0414914312068884268
:1042800001D1202010E03E4928312068884201D128
:10429000401509E03A493C312068884202D10120AA
:1042A000400301E00120400435490839486054E0EA
:1042B00063E0324950392068884201D1022049E048
:1042C0002E493C392068884201D1202042E02B4908
:1042D00028392068884201D140153BE0274914392C
:1042E0002068884202D10120400333E0234920683E
:1042F000884202D1012040042CE02049143120687A
:10430000884202D10120400524E01C492831206860
:10431000884201D180041DE019492068884201D1FA
:10432000022017E0164914312068884201D120206C
:1043300010E0134928312068884201D1401509E076
:104340000F493C312068884202D10120400301E03E
:1043500001204004094958394860606B60630121BD
:104360002120015500BF00212020015500BFA06A77
:10437000002802D02046A16A884710BD580002409C
:104380000804024001460022002901D101207047A3
:104390002120405C002802D1002320204354022326
:1043A00021204354086802680C4802408B68486822
:1043B0001843CB6818430B6918434B6918438B6942
:1043C0001843CB6918430243086802600020486321
:1043D0000123212043540020D9E700000FC0FFFF34
:1043E000F8B504460D4616461F4600BF2020005D66
:1043F000012801D10220F8BD01212020015500BF74
:1044000002212120015520680068400840002168F1
:1044100008603B46324629462046FDF72DFB2068C2
:1044200000680221084321680860206800680421B0
:104430000843216808602068006808210843216853
:104440000860206800680121084321680860002096
:10445000D1E731B5002400F0FDF9044600BF00F0BB
:10446000F9F9001B00998842F9D338BDF8B5044624
:104470000E460127002500BF2448007E012801D1F7
:104480000220F8BD01202149087600BF20680128DC
:1044900011D11F48FEF776FE002830D1FEF718FE36
:1044A0001B48FEF76FFE07461A480069042188433F
:1044B0001849086123E01648FEF764FE00281ED163
:1044C000401E3060656813E02846FEF715FE104870
:1044D000FEF758FE07460F480069022188430D4940
:1044E0000861002F01D0356008E00120C0022D18BE
:1044F000A168C90260684018A842E5D800BF00BFA3
:1045000000200249087600BF3846BAE74804002078
:1045100050C3000000200240034800698021084386
:10452000014908610020704700200240F0B51FB427
:1045300086B0074615461E46012003900024002041
:10454000029000BF2548007E012802D102200BB056
:10455000F0BD01202149087600BF2148FEF712FE78
:1045600003900398002831D1012F02D1012002903D
:1045700006E0022F02D10220029001E00420029006
:1045800000241FE022012846314604960595FBF7DA
:104590002DFE80B2610001900798081800900199E3
:1045A000FEF7C0FD0E48FEF7EDFD03900D480069D3
:1045B000400840000B4908610398002800D004E03F
:1045C000601CC4B202988442DCDB00BF00BF002044
:1045D0000249087600BF0398B9E7000048040020AC
:1045E00050C30000002002400748006980210840B5
:1045F000002805D00548044948600548486001E0A6
:10460000012070470020FCE700200240230167459D
:10461000AB89EFCD78B50346002200240020E3E00B
:10462000012696400D6835402C46002C7ED04D6802
:10463000022D02D04D68122D15D1D508AE001D46B1
:104640002035A8595507EE0E0F25B5400646AE4356
:1046500030465607F60E0D69B5402843D508AD0023
:104660001E4620367051186856000325B540064690
:10467000AE4330460D79AD07AD0F5600B540284327
:1046800018604D68012D08D04D68022D05D04D6889
:10469000112D02D04D68122D18D1986856000325AF
:1046A000B5400646AE4330465600CD68B540284377
:1046B00098605868012595400646AE43304610265E
:1046C0004D6835402D09954028435860D8685600FC
:1046D0000325B5400646AE43304656008D68B540CA
:1046E0002843D860012636074D683540B5427AD157
:1046F00000BF404DAD69012635433E4EB56135469C
:10470000AD69ED07ED0F009500BF00BF3A4D96086B
:10471000B600A85995072E0F0F25B5400646AE43A3
:1047200030460925ED06AB4203D100E05BE00025F1
:1047300014E0324DAB4201D101250FE0304DAB42C8
:1047400001D102250AE02F4DAB4201D1032505E03E
:104750002D4DAB4201D1042500E005259607360F0B
:10476000B5402843244D9608B600A851274D286827
:104770000546A5432846012636044D683540B54216
:1047800002D1054625432846204D28606868054625
:10479000A5432846012676044D683540B54202D12E
:1047A000054625432846194D6860A8680546A54377
:1047B0002846012636054D683540B54202D10546EA
:1047C00025432846114DA860E8680546A5432846BC
:1047D000012676054D683540B54202D10546254390
:1047E00028460A4DE860521C0D68D540002D00D0C7
:1047F00016E778BD001002400800014000040048A0
:1048000000080048000C0048001000480004014067
:10481000024613690B40002B01D0012000E000206C
:10482000704742694A4042617047002A01D0816165
:1048300000E0816270470000024800680005000D3A
:10484000704700000058014001480068000C7047A4
:104850000058014001480068704700001400002023
:1048600002480068401C014908607047140000209D
:1048700010B506480068102108430449086000206C
:1048800000F006F800F017F8002010BD00200240EC
:1048900070B5044600F054FA06467D21C900FBF7C6
:1048A0007BFC054601F04CF800222146501E00F02A
:1048B0000FF8002070BD704700BFC206D20E012164
:1048C0009140024A116000BF7047000000E100E023
:1048D00070B504460D4616462946204602F01EFED7
:1048E00070BD000003480068FF2101310843014901
:1048F0000860704700700040F8B5044600250026A7
:104900000121090420680840884266D15648006A9F
:104910000321090208400322120261681140884203
:104920005BD000BF5048C0690121090708434E49C8
:10493000C8610846C06909040840009000BF00BF74
:104940004A4800680915084348490860FFF782FF94
:10495000054606E0FFF77EFF401B642801D90320CF
:10496000F8BD42480068FF21013108400028F1D01D
:104970003D48006A03210902884306463A48006A16
:10498000012109040843384908620846006A0121E8
:104990000904884334490862084606620220304010
:1049A000002811D0FFF756FF054607E0FFF752FF3A
:1049B000401B2F49884201D90320D1E72A48006AC9
:1049C000022108400028F1D02748006A032109028B
:1049D000884361680843244908622078C007C00FF3
:1049E000002807D02048006B80088000A168084399
:1049F0001D490863022120680840022808D11A488E
:104A0000006B032109048843E168084316490863E1
:104A10000121890420680840884208D11248006BAF
:104A2000032189048843216908430F490863202131
:104A300020680840202807D10B48006B10218843CC
:104A40006169084308490863012189022068084018
:104A5000884207D10448006B40218843A16908437C
:104A60000149086300207BE700100240007000400D
:104A70008813000070B504460E460025AD48006856
:104A8000C007C00FB0426ED2AA480068400840007C
:104A90003043A849086008460068C007C00FB0420C
:104AA00001D0012070BD022120680840022807D1F2
:104AB000A1484068F0218843A16808439E494860A6
:104AC0002078C007C00F002848D06068012808D1AE
:104AD00099480068012149040840002821D101209B
:104AE000E0E76068022808D1934800680121490680
:104AF0000840002815D10120D4E76068032808D1B8
:104B00008D48406B012109040840002809D101208B
:104B1000C8E78948006802210840002801D1012027
:104B2000C0E7854840688008800061680843824982
:104B30004860FFF78FFE0546606801280FD107E047
:104B4000FFF788FE401B7D49884201D90320A9E771
:104B5000794840680C2108400428F1D1D6E060680B
:104B6000022810D108E031E0FFF774FE401B7349C2
:104B7000884201D9032095E76F4840680C2108401E
:104B80000828F1D1C2E0606803280FD107E0FFF7E1
:104B900061FE401B6949884201D9032082E76648CB
:104BA00040680C2108400C28F1D1AFE007E0FFF786
:104BB00051FE401B6149884201D9032072E75E48DB
:104BC00040680C2108400028F1D19FE002212068B4
:104BD0000840022807D158484068F0218843A1685E
:104BE0000843554948602078C007C00F00287ED090
:104BF0006068012808D15048006801214904084034
:104C0000002821D101204DE76068022808D14A48D8
:104C10000068012149060840002815D1012041E71C
:104C20006068032808D14448406B0121090408400A
:104C3000002809D1012035E73F48006802210840DB
:104C4000002801D101202DE73B4840688008800002
:104C50006168084338494860FFF7FCFD0546606815
:104C600001280FD107E0FFF7F5FD401B33498842CB
:104C700001D9032016E7304840680C210840042879
:104C8000F1D134E0606802280FD107E0FFF7E2FDC0
:104C9000401B2A49884201D9032003E7264840687F
:104CA0000C2108400828F1D121E0606803280FD1C9
:104CB00007E0FFF7CFFD401B2049884201D90320C0
:104CC000F0E61D4840680C2108400C28F1D10EE0A8
:104CD00007E0FFF7BFFD401B1849884201D90320B8
:104CE000E0E6154840680C2108400028F1D1114841
:104CF00000684008400030430E49086008460068DC
:104D0000C007C00FB04201D00120CBE604212068CB
:104D10000840042808D10848406807210902884350
:104D2000E1680843044948600020FFF7B1FD002016
:104D3000B8E6000000200240001002408813000086
:104D400010B500F025F806494968F022114009091C
:104D5000044A515CC840044908600846006810BD18
:104D600000100240C82201080000002010B5FFF723
:104D7000E7FF05494968072212021140090A034A60
:104D8000515CC84010BD000000100240C82201085C
:104D9000F0B589B02FA001460EC9C06805AC0EC49D
:104DA000089030A001460EC9C06801AC0EC4049042
:104DB0000024002600270025002000902D4844688C
:104DC0000C20204000283DD0042804D0082805D01D
:104DD0000C2836D132E02848009036E00F208004BD
:104DE0002040800C05A90D5C2248C06A0007000F16
:104DF00001A90E5C0320C003204001210904884260
:104E000006D131461C48FBF7C7F96843074613E053
:104E10000320C00320400321C903884206D1314644
:104E20001648FBF7B9F96843074605E031461248D2
:104E3000FBF7B2F968430746009706E00F48009079
:104E400003E000BF0C48009000BF00BF009809B00D
:104E5000F0BD000002030405060708090A0B0C0D4B
:104E60000E0F10100102030405060708090A0B0CB7
:104E70000D0E0F100010024000127A00006CDC02D0
:104E800038B5044600252078C007C00F00286FD031
:104E9000FE4840680C21084004280CD0FB484068BC
:104EA0000840082813D1F948406849030840012107
:104EB000090488420BD1F5480068012149040840E3
:104EC0000028E4D06068002852D1012038BD00BF1E
:104ED000EE480068012109048843EC49086008464F
:104EE0000068012189048843E849086000BFFFF792
:104EF000B1FC054606E0FFF7ADFC401B642801D974
:104F00000320E3E7E1480068012149040840002844
:104F1000F1D100BF6068012806D1DC480068491063
:104F20000843DA49086032E0606800280ED1D748AB
:104F30000068012109048843D449086008460068D4
:104F4000012189048843D149086020E06068052870
:104F50000FD1CE480068012189040843CB4908607D
:104F600008460068012109040843C84908600EE0AA
:104F700036E0C6480068012109048843C349086037
:104F800008460068012189048843C049086000BFC1
:104F90006068002812D0FFF75DFC054606E0FFF7C9
:104FA00059FC401B642801D903208FE7B7480068EB
:104FB0000121490408400028F1D011E0FFF74AFC24
:104FC000054606E0FFF746FC401B642801D9032094
:104FD0007CE7AE4800680121490408400028F1D16F
:104FE000022120680840022862D1A84840680C21AC
:104FF000084000280CD0A5484068084008281CD16B
:10500000A2484068490308400121C903884214D1DD
:105010009E48006802210840002804D0E06801286A
:1050200001D0012052E799480068F821884321699E
:10503000C9000843954908603AE0E068002820D09C
:10504000924800680121084390490860FFF702FC7C
:10505000054606E0FFF7FEFB401B642801D903204C
:1050600034E78A480068022108400028F2D08748C7
:105070000068F82188432169C90008438349086012
:1050800016E0824800684008400080490860FFF749
:10509000E1FB054606E0FFF7DDFB401B642801D974
:1050A000032013E779480068022108400028F2D164
:1050B000082120680840082831D1206A002817D02C
:1050C0007248406A0121084370494862FFF7C2FBF9
:1050D000054606E0FFF7BEFB401B642801D903200C
:1050E000F4E66A48406A022108400028F2D016E03F
:1050F0006648406A4008400064494862FFF7AAFBDE
:10510000054606E0FFF7A6FB401B642801D90320F3
:10511000DCE65E48406A022108400028F2D1042102
:1051200020680840042870D100BF5848C06989062B
:1051300008435649C8610846C06909040840009000
:1051400000BF00BF52480068091508435049086075
:10515000FFF780FB054606E0FFF77CFB401B642859
:1051600001D90320B2E64A480068FF210131084016
:105170000028F1D000BF4548006A4008400043497C
:1051800008620846006A042188434049086200BF5B
:10519000FFF760FB054607E0FFF75CFB401B3D495E
:1051A000884201D9032091E63848006A022108406C
:1051B0000028F1D100BFA068012806D13348006A59
:1051C00001210843314908622CE0A06800280CD175
:1051D0002E48006A400840002C4908620846006AD0
:1051E00004218843294908621CE0A06805280DD1E4
:1051F0002648006A04210843244908620846006AD8
:1052000001210843214908620CE034E01F48006A8C
:10521000400840001D4908620846006A042188438E
:105220001A49086200BFA068002812D0FFF712FBDD
:10523000054607E0FFF70EFB401B1649884201D9DF
:10524000032043E61148006A022108400028F1D0FB
:1052500011E0FFF7FFFA054607E0FFF7FBFA401BF6
:105260000C49884201D9032030E60848006A02212F
:1052700008400028F1D1102120680840102860D192
:10528000606901282DD10148406B05E00010024003
:105290000070004088130000042108438E494863D1
:1052A0000846406B012108438B494863FFF7D2FA57
:1052B000054606E0FFF7CEFA401B642801D903201B
:1052C00004E68548406B022108400028F2D082485D
:1052D000406BF8218843A169C90008437E494863AF
:1052E0002FE06069401D00280FD17B48406B0421EE
:1052F0008843794948630846406BF8218843A1698F
:10530000C9000843744948631BE07348406B04219B
:105310000843714948630846406B400840004863B1
:10532000FFF798FA054606E0FFF794FA401B642859
:1053300001D90320CAE56848406B022108400028D3
:10534000F2D1202120680840202852D162484068CC
:105350000C2108400C280AD05F4840680840082803
:1053600011D15D4840684903084088420BD15A4832
:10537000406B01210904084000283AD0E069012867
:1053800037D00120A2E5E069002819D05248406BCF
:1053900001210904084350494863FFF75BFA0546B9
:1053A00006E0FFF757FA401B642801D903208DE57A
:1053B0004948406B0121090408400028F1D018E059
:1053C0004548406B01210904884343494863FFF77E
:1053D00041FA054606E0FFF73DFA401B642801D973
:1053E000032073E53C48406B012109040840002874
:1053F000F1D1606A00286CD0374840680C21084021
:10540000082864D0606A022847D133480068012127
:105410000906884330490860FFF71CFA054606E094
:10542000FFF718FA401B642801D903204EE52A48EB
:1054300000680121490608400028F1D100BF264834
:10544000C06A00090001216B08432349C862A16AB0
:10545000E06A0843204949687B22D203914308430C
:105460001D49486000BF084600680121090608433D
:1054700019490860FFF7EEF9054606E0FFF7EAF97B
:10548000401B642801D9032020E51348006801214E
:10549000490608400028F1D01BE00F4800680121B0
:1054A000090688430C490860FFF7D4F9054606E071
:1054B000FFF7D0F9401B642801D9032006E5064810
:1054C00000680121490608400028F1D101E00120CF
:1054D000FCE40020FAE40000001002400246002331
:1054E0001068034650338800C3181868704710B519
:1054F00000230468234650338C00E3181A6010BD63
:10550000F0B506460C46174600253068406812493B
:1055100008400546FF2000042840000CE0701F20D2
:1055200000022840000A6070A806800EA0700720C4
:1055300040032840400B2070002F0BD1E07805F08D
:1055400079F8E070607805F075F86070A07805F083
:1055500071F8A0700020F0BD3FFFFF00F0B50646D7
:105560000C46174600253068806A60603068006825
:105570001249084005463F2000042840000C2070D6
:105580007F2000022840000A60706806400EA0706C
:10559000012080052840000C2072002F0BD12078BC
:1055A00005F048F82070607805F044F86070A07845
:1055B00005F040F8A0700020F0BD00007F7F7F0064
:1055C00010B50446002C01D1012010BD607F0028D9
:1055D00003D12077204600F051F80220607700BF09
:1055E000CA202168486253202168486200BF2046D3
:1055F00005F0BEF8002808D000BFFF2021684862EF
:1056000000BF042060770120DFE7206880681A4926
:10561000084021688860216960680843616908431F
:10562000216889680843216888602168E06808610A
:1056300020680069218909040843216808612068FD
:10564000C068802188432168C8602068006C0121FF
:1056500089048843216808642068006CA1690843B4
:105660002168086400BFFF202168486200BF012054
:1056700060770020A9E70000BFFF8FFF70470000A0
:10568000F8B504460D461646002700BF207F0128C6
:1056900001D10220F8BD0120207700BF02206077F1
:1056A000002E09D1687810210840102804D16878AC
:1056B000EF2108400A306870002E11D1E87804F01C
:1056C000C6FF0304687804F0C2FF00020343A87811
:1056D00004F0BDFF03432878400303431F4612E054
:1056E000687804F0A7FF0746A87804F0A3FF0746F0
:1056F000E8780004697809020843A9780843297802
:1057000049030843074600BFCA2021684862532066
:105710002168486200BF204605F02AF800280CD016
:1057200000BFFF202168486200BF0420607700BFEF
:105730000020207700BF0120ACE7174838402168DF
:1057400048602068C068802188432168C86020685C
:10575000806820210840002811D1204600F0C0F8C0
:1057600000280CD000BFFF202168486200BF042041
:10577000607700BF0020207700BF01208AE700BFCC
:10578000FF202168486200BF0120607700BF002031
:10579000207700BF00BF7DE73FFFFF00F8B504465C
:1057A0000D461646002700BF207F012801D10220A8
:1057B000F8BD0120207700BF02206077002E1BD1AA
:1057C0002068806840210840002800D002E00020C6
:1057D000287200BF287804F03AFF0304687804F0C8
:1057E00036FF00020343A87804F031FF0343287A10
:1057F000000403431F4618E02068806840210840E9
:10580000002804D0287804F015FF074602E00020A5
:10581000287200BF28780004697809020843A97833
:105820000843297A09040843074600BFCA202168B3
:10583000486253202168486200BF204604F098FF68
:1058400000280CD000BFFF202168486200BF042060
:10585000607700BF0020207700BF0120A8E71F4825
:1058600038402168086020688068012189048843E5
:10587000216888602969E8680843216889680843C5
:10588000216888602068C068802188432168C860DA
:105890002068806820210840002811D1204600F0AF
:1058A0001FF800280CD000BFFF202168486200BF0D
:1058B0000420607700BF0020207700BF012077E739
:1058C00000BFFF202168486200BF0120607700BF51
:1058D0000020207700BF00BF6AE700007F7F7F00C5
:1058E00070B5044600252068C068A021884321685F
:1058F000C860FEF7AFFF054608E0FEF7ABFF401BB0
:105900007D21C900884201D9032070BD2068C0688C
:10591000202108400028F0D00020F6E7042806D116
:105920000649096904221143044A116105E003494B
:10593000096904229143014A1161704700E000E0C7
:1059400070B504462546681E0949884201D90120E0
:105950000CE0681E074948610321081F01F0DEFDC5
:1059600000200449886107200861002070BD000004
:10597000FFFFFF0000E000E0024600BF3820805C2F
:10598000012801D10220704701233820835400BF31
:1059900002233920835410684068702398431368A9
:1059A0005860106840680B681843136858601068A6
:1059B00080688023984313689860106880684B68FB
:1059C00018431368986001233920835400BF0023D3
:1059D0003820835400BF0020D5E710B50446002CC2
:1059E00001D1012010BD3920005D002805D1002122
:1059F00038200155204600F00CF8022139200155CD
:105A0000211D206806F0EAF8012139200155002007
:105A1000E8E77047014602223920425408680068CE
:105A2000012210430A6810600122392042540020EC
:105A300070470000014602223920425400BF086826
:105A4000006A0B4A104000280BD10868006A9210C7
:105A50001040002805D108680068400840000A6826
:105A6000106000BF0122392042540020704700001E
:105A700011110000704710B50446002C01D101201F
:105A800010BD0221692001552068006840084000CF
:105A9000216808600020216808602168486021684A
:105AA0008860204600F002F90020E06600216920AD
:105AB000015500BF6820015500BF0020E0E700004D
:105AC00010B50446012169200155012202492046F2
:105AD00000F05CFB10BD00009300002010B50446F0
