:020000040800F2
:100000000080002019D10008A5D10008ADCA000861
:1000100000000000000000000000000000000000E0
:1000200000000000000000000000000095F1000842
:1000300000000000000000004DF20008A1CA000806
:10004000A5D10008A5D10008A5D10008A5D10008B8
:10005000A5D10008A5D10008A5D10008A5D10008A8
:10006000A5D10008FDCA000809CB000849CB00084B
:10007000A5D10008A5D10008A5D10008A5D1000888
:10008000A5D10008A5D10008A5D10008A5D1000878
:10009000A5D10008A5D10008A5D10008A5D1000868
:1000A000A5D10008A5D10008A5D10008B1CA000853
:0C00B000C1CA0008D1CA0008A5D1000890
:1000BC0010B5064C2378002B07D1054B002B02D032
:1000CC00044800E000BF0123237010BD100A00207B
:1000DC0000000000C46E0108044B10B5002B03D0C7
:1000EC000349044800E000BF10BDC04600000000FA
:1000FC00140A0020C46E010802780B78002A03D081
:10010C00013001319A42F7D0D01A70470023C25CFB
:10011C000133002AFBD1581E7047000002B471460F
:10012C0049084900095C49008E4402BC7047C0462E
:10013C0003B47146490840004900095E49008E44E9
:10014C0003BC7047002243088B4274D303098B42D3
:10015C005FD3030A8B4244D3030B8B4228D3030C8B
:10016C008B420DD3FF22090212BA030C8B4202D32D
:10017C001212090265D0030B8B4219D300E0090A55
:10018C00C30B8B4201D3CB03C01A5241830B8B425E
:10019C0001D38B03C01A5241430B8B4201D34B0347
:1001AC00C01A5241030B8B4201D30B03C01A5241AC
:1001BC00C30A8B4201D3CB02C01A5241830A8B4231
:1001CC0001D38B02C01A5241430A8B4201D34B021A
:1001DC00C01A5241030A8B4201D30B02C01A52417E
:1001EC00CDD2C3098B4201D3CB01C01A5241830932
:1001FC008B4201D38B01C01A524143098B4201D36C
:10020C004B01C01A524103098B4201D30B01C01A96
:10021C005241C3088B4201D3CB00C01A5241830810
:10022C008B4201D38B00C01A524143088B4201D33D
:10023C004B00C01A5241411A00D20146524110469D
:10024C007047FFE701B5002000F0F0F802BDC04692
:10025C000029F7D076E7704703460B437FD4002282
:10026C0043088B4274D303098B425FD3030A8B423E
:10027C0044D3030B8B4228D3030C8B420DD3FF22A8
:10028C00090212BA030C8B4202D31212090265D076
:10029C00030B8B4219D300E0090AC30B8B4201D329
:1002AC00CB03C01A5241830B8B4201D38B03C01A70
:1002BC005241430B8B4201D34B03C01A5241030BE7
:1002CC008B4201D30B03C01A5241C30A8B4201D398
:1002DC00CB02C01A5241830A8B4201D38B02C01A43
:1002EC005241430A8B4201D34B02C01A5241030ABA
:1002FC008B4201D30B02C01A5241CDD2C3098B429F
:10030C0001D3CB01C01A524183098B4201D38B011B
:10031C00C01A524143098B4201D34B01C01A5241BE
:10032C0003098B4201D30B01C01A5241C3088B4203
:10033C0001D3CB00C01A524183088B4201D38B00EE
:10034C00C01A524143088B4201D34B00C01A524190
:10035C00411A00D201465241104670475DE0CA0F67
:10036C0000D04942031000D34042534000229C4627
:10037C0003098B422DD3030A8B4212D3FC22890131
:10038C0012BA030A8B420CD3890192118B4208D307
:10039C00890192118B4204D389013AD0921100E069
:1003AC008909C3098B4201D3CB01C01A524183097D
:1003BC008B4201D38B01C01A524143098B4201D3AA
:1003CC004B01C01A524103098B4201D30B01C01AD5
:1003DC005241C3088B4201D3CB00C01A524183084F
:1003EC008B4201D38B00C01A5241D9D243088B42A5
:1003FC0001D34B00C01A5241411A00D20146634648
:10040C0052415B10104601D34042002B00D54942AB
:10041C00704763465B1000D3404201B5002000F0EA
:10042C0005F802BD0029F8D016E770477047C046A2
:10043C008446101C62468C46191C634600E0C0467C
:10044C001FB501F01BF9002801D40021C8421FBDC3
:10045C0010B501F073F84042013010BD10B501F039
:10046C000DF9002801DB002010BD012010BDC04695
:10047C0010B501F003F9002801DD002010BD0120AA
:10048C0010BDC04610B501F095F8002801DC002025
:10049C0010BD012010BDC04610B501F08BF800282E
:1004AC0001DA002010BD012010BDC0468446081C96
:1004BC006146FFE71FB500F0D3F9002801D40021F5
:1004CC00C8421FBD10B500F055F94042013010BDB7
:1004DC0010B500F0C5F9002801DB002010BD01208B
:1004EC0010BDC04610B500F0BBF9002801DD00209E
:1004FC0010BD012010BDC04610B500F063F90028F6
:10050C0001DC002010BD012010BDC04610B500F06C
:10051C0059F9002801DA002010BD012010BDC04699
:10052C00002B11D1002A0FD1002900D1002802D0B4
:10053C000021C943081C07B4024802A140180290CC
:10054C0003BDC046E9FEFFFF03B4684601B502983F
:10055C0000F04EF8019B9E4602B00CBC7047C046A2
:10056C00F0B5CE46474615042D0C2E0080B5070479
:10057C00140C3F0C9946030C7E435D436743634365
:10058C007F19340CE4199C46A54203D980235B02E5
:10059C009846C4444B4643435143250C36046544AA
:1005AC00360C2404A4195B19591820000CBC904675
:1005BC009946F0BD70B500220C4B04000D00FFF7FE
:1005CC006BFF002804D12000290001F095FE70BDBE
:1005DC00064B00222000290001F02AFB01F08CFEC2
:1005EC0080231B069C466044F1E7C0460000E041B6
:1005FC00F0B54F464646D646C0B5040082B00D0055
:10060C00914698468B422FD82CD04146484602F052
:10061C0009F829000600200002F004F8331A9C4661
:10062C00203B9A4600D576E04B46524693401F003D
:10063C004B46624693401E00AF4228D825D0534605
:10064C00A41BBD41002B00DA7BE0002200230092AA
:10065C000193012352469340019301236246934038
:10066C00009318E08242D0D900220023009201931B
:10067C000A9B002B01D01C605D600098019902B0B0
:10068C001CBC90469946A246F0BDA342D7D9002285
:10069C000023009201936346002BE9D0FB07984698
:1006AC00414672080A437B0866460EE0AB4201D114
:1006BC00A2420CD8A41A9D41012024196D4100219D
:1006CC00013E24184D41002E06D0AB42EED9013E1E
:1006DC0024196D41002EF8D1009801995346001948
:1006EC006941002B23DB2B005246D3402A00644681
:1006FC00E2401C0053461500002B2DDB260057460C
:10070C00BE40330026006746BE403200801A994135
:10071C0000900191ACE7624620239B1A4A46DA40CE
:10072C006146130042468A4017001F4380E7624629
:10073C0020239B1A2A0066469A402300F340134359
:10074C00D4E76246202300219B1A002200910192DB
:10075C000122DA40019280E72023624626009B1A90
:10076C00DE402F00B0466646B74046463B0033435A
:10077C00C8E7C04670B542004E024C0045026D0AF7
:10078C00120EC30F760A240EC90FFF2A0FD0FF2CAE
:10079C0011D00120A24200D070BDB542FCD18B42D9
:1007AC000DD0002AF8D12800451EA841F4E70120FD
:1007BC00002DF1D1EBE70120002EEDD1E9E700206F
:1007CC00EAE7C04670B54A004E02450244006D0A85
:1007DC00240EC30F760A120EC90FFF2C15D0FF2A58
:1007EC000ED0002C15D1002A01D1002E1CD0002DCA
:1007FC0014D08B4227D00220013B1840013870BD29
:10080C00002EEED002204042F9E7002DFAD1FF2A4B
:10081C000ED0002A0ED1002EEDD00BE001230139B1
:10082C00994308000130EAE70020002DE7D0E2E709
:10083C00002EE7D18B42DED1944205DD0221581EF9
:10084C0008400138DBE70024A24204DCB542D2D8D0
:10085C000020B542D3D2581E012398430130CEE775
:10086C0030B5420044024D02C30F4800640A120E18
:10087C006D0A000EC90FFF2A12D0FF280CD0002AD7
:10088C0012D1002819D1002D17D1002C2BD0022009
:10089C00013B1840013826E0002DF0D0022022E068
:1008AC00002CFBD1FF281FD000281FD1002D1DD1FB
:1008BC000220013B1840013815E0002C0ED08B4271
:1008CC00E5D10022904204DCAC42E0D80020AC42DE
:1008DC0009D2581E01239843013004E00123013949
:1008EC0099430800013030BD002DD7D18B42CED1B9
:1008FC008242E7DD0221581E08400138F3E7C0466A
:10090C00F0B54F464646D6460C000903C0B5490A19
:10091C00470F5E0039431F03DB0F9C4665007B0AC3
:10092C00570F1F436D0DE40F760DA146C000B8465E
:10093C00D200AB1B64457BD0002B5FDD002E00D0BA
:10094C00A4E03E00164300D112E15E1E002E00D042
:10095C009EE1871A4346B84280410125C91A40429C
:10096C00091A0B0200D431E149024E0A002E00D1C3
:10097C006EE1300001F038FE0300083B1F2B00DD58
:10098C0061E120223900D21A9E40D1409F400E4393
:10099C009D4200DD51E15D1B6B1C1F2B00DD7CE1DA
:1009AC002021C91A3D0030008F408840DD40791E5F
:1009BC008F41310007222843D940002507433A4094
:1009CC00002A09D00F233B40042B05D03B1DBB4212
:1009DC00BF417F42C9191F000B0200D426E26A1CDA
:1009EC00C64B55056D0D9A4200D106E1C44AFF086D
:1009FC000A40530752023B43120B8EE0002B00D0EF
:100A0C00B8E06B1C5B055B0D012B00DC30E1871A39
:100A1C004346B842B641CB1A76429E1B330200D5F0
:100A2C004CE13B003343A1D100220024002570E0AF
:100A3C00002B00DCE5E0002E00D183E0AF4EB54288
:100A4C0060D0802636043743B846382B00DC3EE1B4
:100A5C00434613431F007A1E97413F18874280413B
:100A6C00404209180B0200D4B0E0A44B01359D4262
:100A7C0000D1C3E0A24A7B080A4001210F401F436A
:100A8C005108D30707221F433A4099E79B4EB542C2
:100A9C0038D0802636043743B846382B00DDDCE0EE
:100AAC001F2B00DC30E11E004746203EF740BC46C1
:100ABC00202B04D04026F31A46469E4032431700A2
:100ACC0063467A1E97411F43CCE0002B00D104E211
:100ADC004346134300D159E14B07C0081843802308
:100AEC00C9081B03194208D04546ED081D4204D124
:100AFC004346D008590708432900420FC9007F4DCF
:100B0C001143C0004B07CA087C49C00803438D42FF
:100B1C0068D012036D05120B6D0D00211203180025
:100B2C00130B0A0D12051A43764B2D0513402B435C
:100B3C005B00E4075B08234319001CBC90469946F4
:100B4C00A246F0BD3E00164312D05E1E002E00D011
:100B5C0000E1871887428041414440420918012531
:100B6C000B0233D5022585E764463300414610005D
:100B7C001D00C7E7002D00D0DAE00C000443F3D0D1
:100B8C005C1C00D19FE15D4CA64200D12FE1DB4300
:100B9C00382B00DD66E11F2B00DD83E120240500EE
:100BAC00E41A0F00DD40D940A0404346A7405B1A31
:100BBC00441EA04198462F433843171ABA4292411B
:100BCC0043465242991A64463500CAE607223A4017
:100BDC00002A00D0F6E64B07CA084849FF083B43F9
:100BEC008D4296D11900114300D19EE18021090359
:100BFC000A431203120B414D8FE71500002200230C
:100C0C008BE7002B00D0C7E06B1C5F057F0D012F1D
:100C1C0000DCF1E0394DAB4200D1B9E085180A0097
:100C2C00854289414244494251180722CF076D0839
:100C3C002F4349083A401D00C2E607223049ED1AFD
:100C4C0031403A40BCE63E002838864000279FE6FB
:100C5C00380001F0C9FC20308EE6434613431F00D8
:100C6C007A1E9741C71BB84280414042091A78E668
:100C7C000E003B0006431343002D61D1002E00D023
:100C8C00F4E0002B00D11BE164463900100039E779
:100C9C001A4FBB427AD03300FFE630001F3DE840CC
:100CAC00202B03D04021CB1A9E4037437B1E9F4103
:100CBC00072207433A400021002589E7171A4346CB
:100CCC00BA42B641591A76428E1B64464EE61F2B29
:100CDC0000DDADE020264746F61AB740B9461700AE
:100CEC00B246DF404E463E4337005646B240561E93
:100CFC00B24117434246DA408918AEE6FF070000BE
:100D0C00FFFF7FFFFFFF0F8020264746F61AB740F4
:100D1C00B9461700B246DF404E463E4337005646B2
:100D2C00B240561EB24117434246DA40891A99E73F
:100D3C007F4CA6425BD0802424045B42214327E7EE
:100D4C00002E0CD1002B00D1CBE0644639001000F2
:100D5C00774DD7E6764FBB4218D0330075E6002BA3
:100D6C0014D04B07C00818438023C9081B03194231
:100D7C0007D0FC081C4204D17907D0080843E1468F
:100D8C0021004C46420FC9001143C000684DB9E622
:100D9C001D0000220023C0E6002D5BD10D00054391
:100DAC0000D1E2E65D1C00D1B0E0614DAE421FD037
:100DBC00DB43382B71DC1F2B00DD96E020250F0068
:100DCC00ED1AAF40B9460700AA46DF404D463D43F9
:100DDC002F005546A840D940451EA84188440743DA
:100DEC00BF18974292415142414435003AE664465D
:100DFC0035004146100085E60B000343002D00D062
:100E0C0063E6002BF5D04346134300D17AE68718EE
:100E1C008742804107224144404209183A400B0264
:100E2C0000D4D5E6434B01351940C9E5380069E6D5
:100E3C001E004746203EF740BC46202B04D04026DF
:100E4C00F31A46469E403243170063467A1E97417A
:100E5C001F4302E6364DAE42CAD080252D045B42BC
:100E6C002943A6E70843411E8841A6E6002B00D182
:100E7C0048E6871A4346B842B641CB1A76429E1BC7
:100E8C0033024BD5171A4346BA429241591A524271
:100E9C00891A072264463A4092E501430F00791EF5
:100EAC008F419DE71C000F00203CE740202B03D016
:100EBC004024E31A99400843411E884138437CE69C
:100ECC000022002425E6171A4346BA429241591AC9
:100EDC005242891A6446350043E541461000144DD0
:100EEC0010E680220024120380E61D000F00203D36
:100EFC00EF40BC46202B03D04025EB1A9940084309
:100F0C0007006346781E87411F4369E7871897429D
:100F1C009B4141445B42C9183500A3E53B00334378
:100F2C00CED0072231003A4052E600231A00F4E5F5
:100F3C00FF070000FFFF7FFFF0B55746DE464E4629
:100F4C004546E0B5834607000E03480085B092463F
:100F5C001C00360B400DCD0F002800D19DE0954BA9
:100F6C00984239D08023F6001B041E43924A7B0F13
:100F7C0033439946944603006344009300230026B0
:100F8C00FF00029323031B0B98466300E40F5246A9
:100F9C005B0D019400D1B3E086498B4200D19EE0F9
:100FAC004246D100802212040A435146490F114394
:100FBC008B46814952468C4600996344CB1A0021DA
:100FCC00D20000932B0063409A460F2E00D905E106
:100FDC007A4BB6009B599F465B463343994600D0EB
:100FEC00B8E002230826002700900293CAE7CB46FC
:100FFC003A0002990195019B9A46022927D00329B0
:10100C0000D180E2012944D06D49009B8C46634499
:10101C001C00002C38DD530700D013E2D2085B46CD
:10102C00DB0109D55946674B19408B468021C90015
:10103C008C46009B63441C00634B9C4207DC5B4664
:10104C0064055F075B0217431B0B620D02E0002374
:10105C000027584A00211B031C0B0B0D1B052343B7
:10106C0014055A4A380013401C4353466400DB07EE
:10107C0064081C43210005B03CBC90469946A2462E
:10108C00AB46F0BD0122524201231B1B382B00DC66
:10109C00ADE1002200230027DCE75B463343994691
:1010AC005ED0002E00D18AE1300001F09DFA0300E1
:1010BC000B3B1C2B00DD7BE11D22D31A5A46010091
:1010CC00DA4008398E4013005F46334399468F400F
:1010DC003F4B00261B1A00930023029352E7414614
:1010EC0053460B433B499B468C46009B6344009301
:1010FC005B46002B3BD1022300221E43022161E7F9
:10110C00434613439B4637D04346002B00D162E144
:10111C00404601F069FA03000B3B1C2B00DD53E148
:10112C0002004146083A914088461D21CB1A51468F
:10113C00D9400B0041460B439B46534693401A0043
:10114C00009B25499C46604403008C4663440093F5
:10115C00002137E70323B14600900C26029311E7D8
:10116C000023009301330426002702930AE703238C
:10117C00C3461E43032125E701331E4300220121F0
:10118C0020E700239A46802300271B03094A61E7C6
:10119C00802349461B03194200D1E2E0594619420B
:1011AC0000D0DEE00B431B0317001B0BA246014AC9
:1011BC0050E7C046FF07000001FCFFFF146F010859
:1011CC00FF030000FFFFFFFEFE070000FFFF0F8084
:1011DC000DFCFFFF01F8FFFFF3030000D94500D918
:1011EC00CBE000D1C6E03C0048460027009B013B09
:1011FC0000935B46160E1B021E43130298463304E3
:10120C001B0C9946310C0191FFF722F84A464243D8
:10121C000B04210C050019438A4207D98919013D99
:10122C008E4203D88A4201D9851E8919881A0199E0
:10123C00FFF70EF809048C464A46210464464243E3
:10124C00090C030021438A4204D98919013B8E42BF
:10125C0000D8F1E02D041D43AB464346891A4246A3
:10126C00280C12041D0C5B46140C22001B041B0CD6
:10127C005A4303946B434443029568431B19150C62
:10128C00EB189C4203D980246402A44660441C0CD5
:10129C0015041B042D0C20185D19814277D373D0D3
:1012AC000C1AA24A7D1BAF42BF419446009B7F4261
:1012BC006344E01B1C00864200D1DBE00199FEF781
:1012CC00C7FF4A4642430B04290C070019438A42C4
:1012DC0007D98919013F8E4203D88A4201D9871E4A
:1012EC008919881A0199FEF7B3FF09044A46894601
:1012FC0029044D464243090C030029438A4207D96D
:10130C008919013B8E4203D88A4201D9831E89195F
:10131C003F04891A3A00039F1A43380013041B0C2C
:10132C00584381460298150C6F4343434543484646
:10133C00000C8446DB1963449F4203D98020400291
:10134C008446654448461F0C00041B04000C7D19A0
:10135C001818A94200D284E000D17FE001231A437F
:10136C0057E680234A461B0313431B031B0BAA4659
:10137C006F4A6FE6BA4200D935E74B46DC0758088E
:10138C007B081C43FF0734E70024AF4289D2474453
:10139C004745A4415B466442A4196418013BA6422C
:1013AC001ED2A0426DD800D1B6E0241A9B4678E735
:1013BC0003005A46283B9A400027914688E6584637
:1013CC0001F012F9203072E603005246283B9A4095
:1013DC0093460022B4E6504601F006F920309AE616
:1013EC00A642E2D1B845DCD9341A9B4659E71F2BEB
:1013FC0065DC504C0099A4465C46614408008C4066
:10140C0011008240D940501E82410C4314435A466D
:10141C00DA401300620709D00F222240042A05D0BB
:10142C002200141D9442894149425B181A0262D56C
:10143C000122002300270DE68A4200D80AE7831E0A
:10144C00891907E70F231340042B00D1E6E5171D7C
:10145C009742924153429B44FA08E0E5002800D1A0
:10146C00D7E57118531EB14227D3A94215D358D0D2
:10147C001A0073E7002B00DC04E6012300229B44D6
:10148C00CDE502234744474589415B429C4649428E
:10149C0089190C19E344241A03E743465F004745B6
:1014AC009B41B8465B429E19023A8919A94200D069
:1014BC0054E7404500D051E7ABE51A00F6E71F2191
:1014CC005F4649420C1BE740202B07D01A49009B72
:1014DC008C46634418005B4683401A43501E82417D
:1014EC003A4307270023174009D00F21002311404E
:1014FC001400042995D122005F075B021B0BD20854
:10150C0017430022A6E5802359461B030B431B03FC
:10151C0017001B0B064A9DE5BD42B2D89B46002422
:10152C00BFE68045B9D31A00C3E7C046FF030000ED
:10153C00FF0700001E0400003E040000F0B54F46FB
:10154C004646D6468446C0B58046194E18030F034E
:10155C004D00000B5C0082463F0B6D0DC90F914690
:10156C00640DDB0F0120B5420AD0B44203D0A54272
:10157C0001D157450CD01CBC90469946A246F0BDF3
:10158C0066463E43F7D1AC42F5D154461443F2D1F2
:10159C000120C845EFD1994207D0002DEBD163460D
:1015AC001F433800471EB841E5E70020E3E7C0467B
:1015BC00FF070000F0B54F464646D6464D00C0B575
:1015CC000E03C90F8A462C491F035C008046360B5C
:1015DC006D0D91463F0B640DDB0F8D421ED08C427E
:1015EC0016D0002D1ED130438446002C01D13A4335
:1015FC0023D06246002A1AD09A4529D0514602209F
:10160C000139084001381CBC90469946A246F0BDF1
:10161C0039001143E5D002204042F4E73043FAD1BF
:10162C00AC420FD0002C0FD13A43E7D00CE0012292
:10163C00013B934318000130E5E763460020002B83
:10164C00E1D0DBE73A43E6D19A45D7D1A542D5DCC8
:10165C00A54205DBBE42D1D808D00020BE42D2D272
:10166C0050460123013898430130CCE7C845C5D812
:10167C000020C845F4D3C6E7FF070000F0B54F467D
:10168C004646D6464D00C0B50E03C90F8A462E49B4
:10169C001F035C008046360B6D0D91463F0B640DAD
:1016AC00DB0F8D4218D08C4211D0002D18D1304355
:1016BC008446002C1ED13A431CD163460020002BDB
:1016CC0030D0514602200139084001382AE0390057
:1016DC001143EAD0022025E03043FBD1AC4226D0A6
:1016EC00002C26D13A4324D151460220013908401E
:1016FC00013817E06246002A0FD09A45E1D1A54285
:10170C0005DBBE42DDD819D00020BE420AD25046BD
:10171C00012301389843013004E00122013B93433B
:10172C00180001301CBC90469946A246F0BD3A43C5
:10173C00D0D19A45C5D1A542C3DCE0E7C845C0D895
:10174C000020C845E3D3EDE7FF070000F0B557468E
:10175C00DE464E464546E0B5834606000F0348007C
:10176C0087B092461D003F0B400DCC0F002800D1D6
:10177C006FE0DE4B984238D08023FF001B041F43E0
:10178C00730F3B430193DA4B0027994600239B468A
:10179C00F60081442B0369001B0B52469846490DF9
:1017AC00ED0F002900D185E0D04B994200D173E0B8
:1017BC004346DA0080231B0413435246CC48520F95
:1017CC0084461343524600206144D20089442100D0
:1017DC00694000918C46012149448A460F2F00D95B
:1017EC0090E0C449BF00CF59BF465B463B430193D1
:1017FC0000D06AE102230827002681469B46C9E7F0
:10180C0032005846019B61460091022800D175E0D8
:10181C00032800D1FEE1012800D02CE10023002791
:10182C00002600253F032A0D3F0BB34812053A430F
:10183C0002401B051343009A5B00D1075B080B4366
:10184C003000190007B03CBC90469946A246AB4606
:10185C00F0BD5B463B43019300D12FE1002F00D13B
:10186C00A5E1380000F0C0FE03000B3B1C2B00DD93
:10187C0096E11D22D31A5A460100DA405E46083919
:10188C008F4013008E403B4301939C4B00271B1A47
:10189C00994600239B467DE7414653460B439349AB
:1018AC008C46E144002B00D01AE10222022017439F
:1018BC0000228CE7134300D10DE14346002B00D1ED
:1018CC0081E1404600F090FE02000B3A1C2A00DD3C
:1018DC0072E10100434608398B4098461D239A1A41
:1018EC005346D3401A004346134352468A40494656
:1018FC00081A824989468144002068E77B4B0027FF
:10190C0000268EE7140C1204120C1100370C36044E
:10191C00350C794328008C462E0060436044834686
:10192C0056432100300C804658467943404402917E
:10193C00844506D98846802149028C46E0444146BC
:10194C0002913604010C360C00048B4681191E0CD6
:10195C001B041B0C0391190079438C46280075431A
:10196C006544A8465843050C45447743A94203D91E
:10197C00802149028C466744290C8C4639000004AE
:10198C00000C2D042D186144AB440591594604916B
:10199C0001990F043F0C080C390051434243904607
:1019AC0002008C46090C8B4662437C4344445C44E5
:1019BC00A04503D98021490288464244210C88461F
:1019CC0061460904090C8C46390059434343704362
:1019DC007E430F0CF6182404BE19644442448C4612
:1019EC00B34203D980235B0298464044029B614674
:1019FC009846049B370443449B46AB45AD416B4230
:101A0C000D0405992D0C8C467F196744FD18A846CA
:101A1C005D462D19A542A44193466442A446C34495
:101A2C00DC448F42BF4198459B4193459241A4456C
:101A3C00A4415B427F421F43360C52426442BF19A1
:101A4C002243BF18624638184302D20D0399134340
:101A5C006A020A43501E82416146ED0D2A434E0232
:101A6C003243D90100D4B3E001265008324002437E
:101A7C00DE0732435B08224C5444002C62DD5107D4
:101A8C0009D00F201040042805D0101D904292411F
:101A9C0052429B180200D90104D580241948E40055
:101AAC00034054441848844200DD27E75E075B027C
:101ABC00D2081F0B630516435B0DB2E60023994653
:101ACC000133042700269B4664E6032301978146D5
:101ADC000C279B465EE6012201201743002276E686
:101AEC00032303201F43434671E6C046FF07000053
:101AFC0001FCFFFF546F0108FFFF0F800DFCFFFF7F
:101B0C00FF030000FFFFFFFEFE07000000238027FD
:101B1C0000933F030026434B83E6019B3200A4460F
:101B2C00584670E6AC466EE6802701993F03394271
:101B3C002DD03B422BD11F433F033F0B009516008A
:101B4C00384B6EE601252D1B382D00DD66E61F2D6A
:101B5C0040DC35481C005044160082408440EE4066
:101B6C00501E824134431443EB40620709D00F22CC
:101B7C002240042A05D02200141D94428041404288
:101B8C001B181A023ED501230027002649E68027A0
:101B9C00019B3F031F433F033F0B0094214B40E647
:101BAC0003005A46283B9A40002601926DE658469F
:101BBC0000F01AFD203057E603005246283B9A40AD
:101BCC001300002293E6504600F00EFD20307BE619
:101BDC00CA4650E71F201E004042041BE640202D41
:101BEC0003D0124C5444A3401A43501E824132433A
:101BFC0007260027164009D00F20002310401400A0
:101C0C000428B9D122005E075B021F0BD2081643D1
:101C1C00002306E680273F031F433F033F0B1600BC
:101C2C00004BFEE5FF0700001E0400003E04000010
:101C3C00F8B557464E464546DE460C000903E0B55E
:101C4C00490A460F5F0031431E03DB0F760A9B46A1
:101C5C00530F3343C84E6500C000E40FD2006D0D26
:101C6C00A24681467F0D9C469046B74200D1B9E012
:101C7C005B46012673409B46EE1BA34500D183E0D7
:101C8C00002E63DD002F00D0B1E06346134300D17A
:101C9C0023E1731E002B00D0BAE1861A6346B042D2
:101CAC0080410125C91A4042091A0B0200D447E1B0
:101CBC0049024B0A98464346002B00D189E1404625
:101CCC0000F092FC0300083B1F2B00DD7CE120227E
:101CDC003000D21A4146D040994002009E400A433F
:101CEC009D4200DD6AE15D1B6B1C1F2B00DD94E146
:101CFC00202110003500C91A8E40DA408840DD40A2
:101D0C00711E8E41110007222843002506433240E4
:101D1C00002A09D00F233340042B05D0331DB342C6
:101D2C00B641764289191E000B0200D43DE26A1CB2
:101D3C00914B55056D0D9A4200D119E18F4AF60869
:101D4C000A40570752023743120B9BE0002E00D07B
:101D5C00C5E06E1C7605760D012E00DC48E1674669
:101D6C00861ACB1BB042BF417F42B8461F00434688
:101D7C00FF1A3B00B8461B0200D55FE137439AD1EE
:101D8C0000220024002579E0002E00DCFAE0002F70
:101D9C0000D18DE0784B9D4267D0802367461B04B1
:101DAC001F43BC46382E00DC52E1634613435A1ED7
:101DBC0093411E1886428041404209180B0200D400
:101DCC00BEE06D4B01359D4200D1D2E06B4A7308E9
:101DDC000A4001210E401E435108D30707221E431F
:101DEC00324095E71E00164300D045E740E7624BB2
:101DFC009D423AD0802367461B041F43BC46382EB5
:101E0C0000DDEBE01F2E00DC3AE133006746203B9F
:101E1C00DF403B00202E05D04027BF1B6646BE404E
:101E2C00324390464646721E96413343DAE0002B0D
:101E3C0000D114E26346134300D168E180234E07BE
:101E4C00C008C9081B030643194208D06046C008E5
:101E5C00184204D163460100D2085E071643F30012
:101E6C009946C900720F444D11434B46DE08424B54
:101E7C004F073743CA089D4200D16EE012036D052F
:101E8C00120B6D0D00211203130B0A0D12051A43D0
:101E9C003B4B2D0513402B435B00E4075B082343AE
:101EAC00380019003CBC90469946A246AB46F8BD9A
:101EBC006346134311D0731E002B00D007E1861824
:101ECC008642804161444042091801250B0237D5F6
:101EDC0002257BE73E00614691463500C5E75C462E
:101EEC00002D00D0E1E00B000343F3D0731C00D1B4
:101EFC00ACE1214B9F4200D13AE1F343382B00DD9A
:101F0C006FE11F2B00DD8CE120250E00ED1AAE4099
:101F1C00B0460600AA46DE40454635432E005546DF
:101F2C00D940A8406346451EA8415B1A9C463043E5
:101F3C00161AB242924163465242991A3D00B4E6D7
:101F4C0007223240002A00D0E4E60B4BF6084F077C
:101F5C003743CA089D4200D090E73B00134300D1A1
:101F6C00A6E180231B031A431203120B024D89E7CF
:101F7C0015000022002785E7FF070000FFFF7FFF09
:101F8C00FFFF0F80002E00D0C7E06B1C5E05760DA6
:101F9C00012E00DCF0E0C84DAB4200D1B9E0851851
:101FAC000A00854289416244494251180722CE07F2
:101FBC006D082E43490832401D00A9E6BF49ED1AB1
:101FCC00114007223240A3E6320028388240002616
:101FDC0086E6300000F008FB203073E663461343BE
:101FEC005A1E9341C61AB04280414042091A5CE61F
:101FFC000E00674606431743002D5ED1002E00D01D
:10200C00F3E0002F00D11EE15C46614691462CE7BF
:10201C00A94FBE427BD01E00F1E610001F3DE840E8
:10202C00202B03D04021CB1A9A401643731E9E419D
:10203C000722064332400021002583E7161A634627
:10204C00B2428041591A40420B1A98465C4632E61D
:10205C001F2E00DDABE02027BB1B9A46634657467C
:10206C00BB40994613004F46F3401F433B00574675
:10207C00BA40571EBA4113436246F240891898E69B
:10208C002027BB1B9A4663465746BB409946130014
:10209C004F46F3401F433B005746BA40571EBA41C8
:1020AC0013436246F240891A9CE7834B9F425FD0F0
:1020BC0080252D047342294320E7002E0CD1002FDC
:1020CC0000D1D0E05C46614691467B4DCDE67A4F1F
:1020DC00BE421CD01E0065E6002F18D0C0084E076B
:1020EC0006438020C9080003014208D06346DC087F
:1020FC00044204D12100DA46D2085E071643F300ED
:10210C00994601245346C900720F11431C406A4D75
:10211C00ABE61D0000220027B4E6002D59D10B00C0
:10212C00034300D1D6E6731C00D1B2E0624B9F4250
:10213C001ED0F343382B6FDC1F2B00DD97E02025DE
:10214C000E00ED1AAE40B0460600AA46DE404546EB
:10215C0035432E005546A840D940451EA8418C4415
:10216C000643B61896429241514261443D0025E621
:10217C003D006146914678E60B000343002D00D0EC
:10218C0055E6002BF5D06346134300D16DE6861857
:10219C008642804161444042091800220B0200D45F
:1021AC00D0E6464B01351940B2E5B1465DE6330049
:1021BC006746203BDF403B00202E05D04027BF1B4D
:1021CC006646BE40324390464646721E96413343A5
:1021DC00EFE5394B9F42CBD080252D047342294328
:1021EC00A8E70843411E8841A2E6002F00D13CE637
:1021FC006346861ACF1AB0429B415B42FB1A984643
:10220C001B024ED5161A6346B2429241591A5242DB
:10221C00891A5C4600227BE501430E00711E8E413B
:10222C009FE71D000E00203DEE40B046202B04D051
:10223C004025EB1A99400843814648464346411EC7
:10224C008841184374E60022002417E6161A6346E8
:10225C00B2429241591A5242891A3D0025E5614613
:10226C009146154D01E680220024120379E61D00EB
:10227C000E00203DEE40B046202B04D04025EB1A3A
:10228C009940084381464E464346711E8E411E437B
:10229C0067E7861896429B4161445B42C9183D0032
:1022AC008CE547463743CED007224146324049E6BB
:1022BC0000273A00E6E5C046FF070000FFFF7FFF5E
:1022CC0070B50C4E0D031C0349005B002D0B490D22
:1022DC00240B5B0DB14208D0064900208B4203D180
:1022EC0014432000441EA04170BD05430120002D65
:1022FC00FAD1F1E7FF07000030B5144D0A034B008B
:10230C00120B5B0DC90F0024AB4211DD104CA34224
:10231C0010DC8024640322430E4CE41A1F2C0CDDC9
:10232C000D48C31ADA4013005C42002900D11C008E
:10233C00200030BD094BCC18FAE7094DE040AC4603
:10234C0063449A4013000343EEE7C046FE030000CB
:10235C001D0400003304000013040000FFFFFF7F86
:10236C00EDFBFFFF70B500282DD0C317C5185D40DD
:10237C00C40F280000F038F9154B1B1A5B055B0DD8
:10238C000A2815DD0B38854000222D032D0B00216A
:10239C0010002D030A0D2D0B12052A430D4D1B05A4
:1023AC002A4013435B00E4075B082343190070BD0C
:1023BC0002002900153291400A000B21081AC54071
:1023CC002D032D0BE3E70024002300250022DEE77C
:1023DC001E040000FFFF0F8010B5041E25D000F076
:1023EC0003F9144B1B1A5B055B0D0A2812DD0B3825
:1023FC00844000222403240B0021100024030A0D26
:10240C00240B120522430C4C1B05224013435B008A
:10241C00590810BD02002100153291400A000B2111
:10242C00081AC4402403240BE6E7002300240022EE
:10243C00E2E7C0461E040000FFFF0F804100090EBA
:10244C004B1C70B5DBB24602750AC40F012B14DDB0
:10245C00E0239B006D07360BCB1800210A0D2800DA
:10246C0012051C4D32435B052A405B0813435B008D
:10247C00E4075B082343190070BD002914D1002D1B
:10248C001ED0280000F0B0F80A281CDC0B232A0010
:10249C001B1ADA40030015339D400F4B12031B1A15
:1024AC005B05160B5B0DD8E7002D06D0320B802692
:1024BC0036036D071643094BCFE7084B0026CCE7D4
:1024CC0000230026C9E703002A000B3B9A40002595
:1024DC00E3E7C046FFFF0F8089030000FF07000001
:1024EC00F0B54C00640D0B03621C5B0A460F5205E1
:1024FC00C90F1E43C500520D012A29DD374BE718C1
:10250C00FE2F1CDC002F3BDD8001431E984107226F
:10251C00F3006D0F03432B431A40002A04D00F2203
:10252C001A40042A00D004338022D2041A4024D04A
:10253C000137FAB2FF2F02D09B01580A01E0FF22AB
:10254C0000204002D205400AC90710430843F0BDE1
:10255C003543002C04D1002D0AD100220020F0E7D5
:10256C00002DECD08020C0033043FF22E9E700248B
:10257C0000235B02580AE2B2E3E7DB083C00F8E711
:10258C003B001733F3DB80231B0433431E26F61B5F
:10259C001F2E14DD02225242D71B1A00FA401700DC
:1025AC00202E04D00E4A94466444A3401D432B00B5
:1025BC005D1EAB4107223B431A400027ADE7094A99
:1025CC002800A218954093406C1EA541F0400722AC
:1025DC002B4303431A4000279FE7C04680FCFFFFB4
:1025EC00A2FCFFFF82FCFFFF1C2101231B0498426D
:1025FC0001D3000C10391B0A984201D3000A083988
:10260C001B09984201D30009043902A2105C40183E
:10261C007047C046040302020101010100000000E2
:10262C000000000010B5002903D1FFF7DDFF2030BA
:10263C0002E0081CFFF7D8FF10BDC046BFF34F8F58
:10264C00034B044ADA60BFF34F8FC046FDE7C04628
:10265C0000ED00E00400FA050020704710B50028DA
:10266C0001D172B6FEE7FFF7E9FF000070B582B04A
:10267C0004001500002301930093002801D172B6C9
:10268C00FEE701AA012128000AF0D6FE0023C3565A
:10269C00702B0CD06A46022128000AF0CDFE0FF0F8
:1026AC008CFD13220F49200010F011F816E00130B8
:1026BC000FF083FD06006A46022128000AF0BCFEDA
:1026CC000FF07BFD0500F0B229000AF015FDFF2389
:1026DC0033402A000449200010F0FCF9002002B01D
:1026EC0070BDC0462C8001080480010810B500287C
:1026FC0001D172B6FEE7034B1A88034910F0EAF9D0
:10270C00002010BDCCF7FF1FA477010870B500287E
:10271C001ED0154B1A7893009B185B0013495B5C19
:10272C00002B17D1124910F0D5F980252D019024DA
:10273C00E4050122290020000DF09CFFC8200AF0BE
:10274C0062FD0022290020000DF094FF002070BDD6
:10275C0072B6FEE793009B185B0004495B180549B1
:10276C0010F0B8F9E1E7C04608120020041100206F
:10277C00847C0108987C010810B50CF0CFFCC4B225
:10278C00200007F033FB200007F05EFB10BD0000BB
:10279C00F0B5D6464F464646C0B58AB0040006AAE8
:1027AC007A4B23CB23C21B881380002C01D172B629
:1027BC00FEE7774B187801235B42009333333722C3
:1027CC0074490AF02BFC744B1B78002B00D1D0E021
:1027DC000025724B9846BAE0704B9946AB009A466E
:1027EC005B199B004B441A7CD3009B1A06AA944697
:1027FC0063443A006A49200010F06CF953465B19A7
:10280C009B004A469B5C012B2DD0032B00D0A9E0EA
:10281C00A900491989000631604B994649440422A4
:10282C0005A80FF054FFAD00AD19AD004D44EA788A
:10283C00013A53009B189B005A4AD3189B6899463F
:10284C000598FFF7FBFD029003916B78013B5A0052
:10285C00D218554B9B1800934B462200534920002D
:10286C0010F038F97EE0AB005B199B004B4AD31893
:10287C00DB78053BDAB2092A74D893004C4AD3585A
:10288C009F4614236B43454AD2189378D268009222
:10289C0022004849200010F01DF963E014236B431B
:1028AC003E4AD2189378D268009222004249200006
:1028BC0010F010F956E014236B43384AD218937871
:1028CC00D16801911279009222003C49200010F04D
:1028DC0001F947E014236B43304AD2189378D1683E
:1028EC0001911279009222003549200010F0F2F883
:1028FC0038E0344B22003449200010F0EBF831481A
:10290C00FDF704FC020000212E480FF0E9FE29001F
:10291C00F06807F041F90028EBD12000FDF7F6FB39
:10292C0020180C2229490FF0D2FE2000FDF7EEFBF7
:10293C0082B2174B187801235B420093333321008A
:10294C000AF06CFB3D00144B1B78BB4211D96F1C79
:10295C00FFB22E00AB005B199B0042469B5C002B28
:10296C0000D039E7174DB3009B199B000B4EF6189E
:10297C00CDE7A722164920000FF0A9FE00200AB0CF
:10298C001CBC90469946A246F0BDC046E06E0108BC
:10299C002F0A00204C82010853140020806A00206A
:1029AC008482010840000020987A0108F082010816
:1029BC00946F010890820108A4820108BC8201086E
:1029CC00D4820108A40E00200083010808830108AA
:1029DC001483010810B5041E01D172B6FEE70CF089
:1029EC0091FD03041B0C1B4A94466344082B2AD804
:1029FC009B00194AD3589F46184A1949200010F0D9
:102A0C0069F80CF079FD030B22001649200010F038
:102A1C0061F8002010BD144A1149200010F05AF83A
:102A2C00EFE7124A0E49200010F054F8E9E7104A7B
:102A3C000B49200010F04EF8E3E70E4A084920003D
:102A4C0010F048F8DDE70C4A0549200010F042F878
:102A5C00D7E7C046C0FBFFFFBC6F010894790108A3
:102A6C00A0790108EC790108B4790108C079010852
:102A7C00CC790108D8790108E479010870B5041EF5
:102A8C0001D172B6FEE70E2211490FF020FE114B58
:102A9C001B68114D22002900200010F01BF80F4B71
:102AAC001B6822002900200010F014F80C4B1B6846
:102ABC0022002900200010F00DF82000FDF726FB65
:102ACC002018032207490FF002FE002070BDC046FB
:102ADC00A0920108ACF7FF1FB0920108B0F7FF1FDE
:102AEC00B4F7FF1F60880108F0B5C64600B582B088
:102AFC0004001600002301930093002801D172B644
:102B0C00FEE701AA012130000AF096FC0500744B87
:102B1C0018600422734910F021F8002800D090E0CE
:102B2C002F1D019B1E1F32006F49380010F016F844
:102B3C0000281ED16D4B9B79602B09D16C4A6D49D5
:102B4C0020000FF0C7FF002002B004BC9046F0BD7F
:102B5C00202B05D1684A674920000FF0BBFFF2E734
:102B6C00002B00D0B6E0654A624920000FF0B2FF9E
:102B7C00E9E73200624938000FF0F0FF00281AD163
:102B8C005A4BDB79032B05D1594A5A4920000FF0D7
:102B9C00A1FFD8E7012B05D1574A564920000FF069
:102BAC0099FFD0E7002B00D094E0544A5149200003
:102BBC000FF090FFC7E73200524938000FF0CEFFFC
:102BCC00002806D1494B9A684F4920000FF082FF2C
:102BDC00B9E732004D4938000FF0C0FF002806D18C
:102BEC00424B1A88484920000FF074FFABE73200C3
:102BFC00474938000FF0B2FF002806D13B4B5A88EA
:102C0C00414920000FF066FF9DE732004149380032
:102C1C000FF0A4FF002806D1344B1A793A49200052
:102C2C000FF058FF8FE732003B4938000FF096FF4A
:102C3C0000280DD12D4B5A79334920000FF04AFF53
:102C4C0081E70522354928000FF088FF002805D0C0
:102C5C001322334920000FF03AFD74E76A46022133
:102C6C0030000AF0E9FB05002E4F00263900280041
:102C7C00FDF742FA002811D00136F6B20A370A2EB7
:102C8C00F4D12A00284920000FF024FF5BE72B0029
:102C9C002200264920000FF01DFF15E02A002449D0
:102CAC0020000FF017FF234B1B78002B00D14AE7B5
:102CBC0001252B00B34098461F4F1E4E6B1E5B0028
:102CCC00DB5B42461A42E2D10135EDB23378AB42BE
:102CDC00F4D238E72A00194920000FF0FBFE32E746
:102CEC004C120020E8770108F0770108086A0020F0
:102CFC00FC7701085C72010800780108047801086F
:102D0C000C780108147801086094010820780108F7
:102D1C002C7801083C780108507801086478010887
:102D2C0074780108E40E0020887801086C7801089A
:102D3C00A47801081C000020480F0020B878010876
:102D4C0010B5041E01D172B6FEE7512204490FF0F2
:102D5C00BEFC200050300BF0F7FE002010BDC0462A
:102D6C00C47C010810B5041E01D172B6FEE75B22CB
:102D7C0004490FF0ACFC20005A300BF085FE00200B
:102D8C0010BDC046287D010830B585B0124AD16906
:102D9C00802040000143D161D36903400193019B22
:102DAC000E4C0F4B23600EF0DBF80E49FDF7CAF901
:102DBC0060600025A5600C4BE36020000EF0F6FB74
:102DCC000295039502A920000EF00AFC20000EF0DB
:102DDC0064FB05B030BDC04600100240246A0020E0
:102DEC000020004040420F00FFFF000030B585B0CE
:102DFC00124A91698020400201439161936903401A
:102E0C000193019B0E4C0F4B23600EF0A9F8FA2195
:102E1C008900FDF797F960600025A5600A4BE36017
:102E2C0020000EF0C3FB0295039502A920000EF0C2
:102E3C00D7FB20000EF031FB05B030BD0010024076
:102E4C005469002000400140FFFF0000F0B50B78F2
:102E5C00FF24002B00D104780A4B1D78002D0EDDC9
:102E6C000023002702E00133AB4209DAC25CA24224
:102E7C00F9D2CE5C002EF6D1DFB21400F3E70027B6
:102E8C003800F0BD1C000020074B1978002908D031
:102E9C000300411801201A78104001338B42FAD1FB
:102EAC0070470120FCE7C0461C00002010B5062826
:102EBC000AD88000194B1B589F46194B18680023E1
:102ECC00022200210BF0FEFE10BD164B18680023E9
:102EDC00022200210BF0F6FEF6E7134B18680023D4
:102EEC00022200210BF0EEFEEEE7104B18680023D7
:102EFC00022200210BF0E6FEE6E70D4B18680023DA
:102F0C00022200210BF0DEFEDEE70A4B18680023DC
:102F1C00022200210BF0D6FED6E7C046E06F010876
:102F2C009C160020A0160020A4160020A816002035
:102F3C00AC160020B0160020F0B5DE4657464E46C3
:102F4C004546E0B589B01522002102A80FF0C8FB58
:102F5C000DF076F972480DF035FA72480DF08CF9D7
:102F6C00002812D1704A136902218B4313616F4BF5
:102F7C001B78002B13D16E4B1B78002B00D1CAE0B1
:102F8C0000256C4C6C4B98466EE06C4BD869C0B20B
:102F9C0009B03CBC90469946A246AB46F0BD684A87
:102FAC0012781202D21892B200235D4901200DF062
:102FBC0091F95C480DF060F9002811D15A4A136957
:102FCC0001218B4313615E4B1B7801229146022534
:102FDC00002BD0D016239B465A4B9A4698462AE093
:102FEC00564BD869C0B2D3E7544BD869C0B2CFE7BF
:102FFC000234B44217D04346FB5A002BF8D0228837
:10300C00474BE918002301200DF064F90235ADB2ED
:10301C0044480DF031F90028E6D1434A13690121E7
:10302C008B431361E4E74B460133DBB29946444BC7
:10303C001B784B459FD35E464B465E433400163C93
:10304C00544456445F1E5B465F43D4E73B4BD86900
:10305C00C0B29DE7394BD869C0B299E70135EDB2E2
:10306C00334B1B78AB4256D90195AB005B199B00D7
:10307C0042469B5C002BF1D0FE2302AA1370A900E0
:10308C00491989002C4B9C466144142202AB581CF4
:10309C000FF01DFB14239B46A34402AE361B224F9C
:1030AC00325B0023210001200DF014F91D480DF0B6
:1030BC00E3F80028CAD13B69012293433B610234F7
:1030CC005C45EDD10027019A93009E18B6001A4B6F
:1030DC009A46B244144B9B465346DE683000FDF7CB
:1030EC0015F8013040088742B8D27B00F25A002311
:1030FC00210001200DF0EEF80A480DF0BDF8002873
:10310C00A8D15B461B69012293435A4613610234D2
:10311C000137FFB2E0E70DF0A5F8002038E7C04614
:10312C0000D8010850C30000002002400812002003
:10313C005314002000DC0108806A0020286E002057
:10314C001C000020300A0020F0B585B005001000EE
:10315C0000230393002D01D172B6FEE703AA0121CF
:10316C000AF06AF90FF023F80190C6B2002E03D0D2
:10317C00274B1B78B34207D22322264928000FF095
:10318C00A6FA002005B0F0BD6B461A79013A224828
:10319C001423534300271F54C418677002331818A4
:1031AC00042239000FF09CFA2774E0680FF04CF8F9
:1031BC00E760174B1F78BE4213D26B461979142265
:1031CC0014004C43144824187B1E9B1BDBB25B1869
:1031DC00534380181E182378002B0DD11434B4429D
:1031EC00F9D17B1E0A4A1370FFF7A6FE36220B4953
:1031FC0028000FF06CFAC4E71422210020001438C8
:10320C000FF065FA1422002120000FF069FAE5E7AF
:10321C005314002060770108806A00202877010889
:10322C0010B582B00400100000230193002C01D1D2
:10323C0072B6FEE701AA01210AF0FEF80EF0B7FF04
:10324C00C3B2002B03D00E4A12789A4207D2232223
:10325C000C4920000FF03BFA002002B010BDC0B2A8
:10326C000138142343430848C01800230374FFF7A4
:10327C0063FE3522054920000FF029FAECE7C04621
:10328C005314002060770108806A00203C7C010800
:10329C0010B582B00400100000230193002C01D162
:1032AC0072B6FEE701AA01210AF0C6F80EF07FFF04
:1032BC00C3B2002B03D00E4A12789A4207D22322B3
:1032CC000C4920000FF003FA002002B010BDC0B270
:1032DC000138142343430848C01801230374FFF733
:1032EC002BFE3822054920000FF0F1F9ECE7C0461F
:1032FC005314002060770108806A00204074010894
:10330C0010B5074A002107480FF0EAF9064B0122D5
:10331C001A70064B00221A70FFF70EFE10BDC04645
:10332C0026020000300A00201C0000200812002099
:10333C00F0B5DE4657464E46C0B582B032200EF090
:10334C0079FF071E00D171E0394B1B78FF20FE2B53
:10335C0066D1384E9A3B9B46B344354D7B1C01934A
:10336C00354B994623E000243B19013B1B78002B7D
:10337C0001D00134E4B220000EF05CFF5346D8605B
:10338C0000283FD0220039000FF0A1F94B461B78E2
:10339C0001334A4613702200002138000FF0A0F9C7
:1033AC00009B1B78FE2B37D114365E4534D0280099
:1033BC0014302B00791B1A78CA5401338342FAD18A
:1033CC001435B2461422019930000FF080F9142202
:1033DC00002138000FF084F900952A78931CDBB299
:1033EC00012BC0D9390000240A7001350134E4B234
:1033FC0000952A78931CDBB2012BB5D90131322C04
:10340C00F2D1B1E71422002150460FF069F93800CF
:10341C000EF01AFF0E2003E038000EF015FF00200E
:10342C0002B01CBC91469A46A346F0BDFB20F7E7C0
:10343C0000DC0108806A002053140020F0B51C4BFE
:10344C001B889BB21B4A934225D01A0A2BD01A49CF
:10345C000A701A4A1370184B1D780020002D19D0D1
:10346C00012402231627164E3A006243163A92198B
:10347C001800163080B20E49591809881180023391
:10348C009BB202328342F6D10134E4B20300AC4267
:10349C00EAD90020F0BD084B01221A70074B00221C
:1034AC001A70FA20F6E7044A01211170D1E7C046E0
:1034BC0000D80108FFFF00001C00002008120020AB
:1034CC00300A0020F0B583B0114B1B78002B1AD0BA
:1034DC000124002301930F4E0D4F08E0601C06F0F1
:1034EC00FBFD0AE00134E4B23B78A3420DD3250086
:1034FC00631E5B00995B0029F0D102351B2DF1DDB9
:10350C000A230193EEE700230193019803B0F0BD69
:10351C001C000020580C0020F0B583B03222002192
:10352C0013480FF0DDF8134B1B78002B1AD0012435
:10353C00002301930E4E0F4F08E0601C06F0CCFDEB
:10354C000AE00134E4B23B78A3420DD32500631E9C
:10355C005B00995B0029F0D102351B2DF1DD0A23AC
:10356C000193EEE700230193019803B0F0BDC04630
:10357C00580C00201C000020F8B50F4B1B780025C0
:10358C00002B17D00D49022006F076FD01240025F2
:10359C00094F0A4E0134E4B23B78A3420AD3611EB0
:1035AC0049007118601C06F067FDA31C1B2BF1DD94
:1035BC000A25EFE72800F8BD1C000020580C00205D
:1035CC00F0B5D6464F464646C0B500260023984671
:1035DC001A4B9A461A4B994605E00136F6B24B4601
:1035EC001B78B34224D3B3009B195B0052469B5CFF
:1035FC00002BF2D0B500AD196D00104B9C46654404
:10360C0044461C34A4B247462137BFB22B781B0268
:10361C006978C91889B2200006F05EFD02350134C4
:10362C00A4B2BC42F2D1434605339BB29846D4E7D0
:10363C0000201CBC90469946A246F0BD0411002007
:10364C001C000020F0B5DE4657464E464546E0B518
:10365C0083B06B460022DA801C240027184B9A4654
:10366C009B460CE04B469B004B445B005B440022AA
:10367C005A720137FFB2134B1B78BB4217D3BD00F4
:10368C00ED196D005544631D9BB298466B469E1D0B
:10369C00B9463100200006F0EFFC33886B701B0A32
:1036AC002B700134A4B20235A045F2D1DAE7002028
:1036BC0003B03CBC90469946A246AB46F0BDC04612
:1036CC00041100201C000020F0B5D6464F4646469B
:1036DC00C0B582B06B460022DA80224B1B78002BDF
:1036EC001DD00025204E1F4CE9B24900711828004E
:1036FC00CB3080B206F0C0FC0135ADB22278EBB213
:10370C009A42F1D8194B99462C009934A4B2CB3576
:10371C00ABB298466B469E1D00239A4609E00025E5
:10372C00F0E74B4652465A720A239C46E144444504
:10373C0010D0671DBFB24D463100200006F09CFC36
:10374C0033886B701B0A2B700134A4B20235BC4257
:10375C00F2D1E6E7002002B01CBC90469946A24686
:10376C00F0BDC0461C000020480F0020E40E0020D5
:10377C00F8B5DE4657464E464546E0B50F001600F6
:10378C0099460AAB1B789B460BAB1D780CAB1B7890
:10379C009A460DAB1C780EAB1B78984681B2E42090
:1037AC0006F09AFC390A89B2E52006F095FCB9B20C
:1037BC00E62006F091FC310A89B2E72006F08CFC79
:1037CC00B1B2E82006F088FC4B461902594489B284
:1037DC00E92006F081FC2D025544A9B2EA2006F03E
:1037EC007BFC24024444A1B2EB2006F075FC0020C3
:1037FC003CBC90469946A246AB46F8BD10B582B08B
:10380C008A206B46991D400006F036FC002800D03B
:10381C0064E06B4606331B88494A93711B0AD371CB
:10382C0016206B46991DFF3006F026FC00285CD153
:10383C006B46DA88424B1A808B206B46991D4000F0
:10384C0006F01AFC002855D16B46DA883C4B5A809E
:10385C0018206B46991DFF3006F00EFC00284ED147
:10386C006B4606331B88364A13711B0A53718C2026
:10387C006B46991D400006F0FFFB04001A2001A9BD
:10388C00FF3006F0F9FB0443A4B2002C3ED101AB8F
:10389C001B881B046A46063212881343284A93601D
:1038AC008D206B46991D400006F0E6FB00283BD1AD
:1038BC006B4606331B88224A13731B0A53731C2056
:1038CC006B46991DFF3006F0D7FB002832D01D4BFC
:1038DC00DA7E1B4BDA76002002B010BD184B194A69
:1038EC0091799971D279DA719AE7164B1A88144B3F
:1038FC001A80A1E7134B5A88114B5A80A8E7104B3A
:10390C00104A1179197152795A71B0E70E4B1B7824
:10391C00002B04D00A4BE12252029A60C0E7094BFB
:10392C009A68074B9A60BBE7054B18225A73002222
:10393C001A73C4E76B46DA88014BDA76CBE7C046DC
:10394C00086A0020000000202E0A002010B51A4C36
:10395C00E3795B01A17919438A20400006F0BCFB96
:10396C0021881620FF3006F0B7FB61888B204000C1
:10397C0006F0B2FB63791B02217B19431820FF3040
:10398C0006F0AAFB21898C20400006F0A5FB61897A
:10399C001A20FF3006F0A0FB637B1B022179194330
:1039AC008D20400006F098FBE17E1C20FF3006F0D5
:1039BC0093FB002010BDC046086A002010B5064BD2
:1039CC00064A12689A4206D006F02EFC002802D154
:1039DC00024B014A1A6010BDADDEEFBEF07F002035
:1039EC0010B5C20012181B4B9B189C7882001A4B06
:1039FC00D15863011B1B9B001B19DB0099421CD087
:103A0C00C2001218134B9B18DC7863011B1B9B0024
:103A1C001B19DB00994217D0C20012180D4B9B18D2
:103A2C001C7963011B1B9B001B19DB00994209D1FC
:103A3C001000084B0A22C25404E0C3001818054BAE
:103A4C000922C254002010BD1000024B0A22C2549D
:103A5C00F8E7C046DC0C0020C012002010B5C200F4
:103A6C0012181B4B9B185C7982001A4BD1586301BE
:103A7C001B1B9B001B19DB0099421CD0C2001218A7
:103A8C00134B9B189C7963011B1B9B001B19DB00C0
:103A9C00994217D0C20012180D4B9B18DC796301A8
:103AAC001B1B9B001B19DB00994209D11000084B12
:103ABC000D22C25404E0C3001818054B0C22C2544A
:103ACC00002010BD1000024B0D22C254F8E7C04676
:103ADC00DC0C0020E81200207047704770477047DC
:103AEC00704770470120704770470000F0B5CE4614
:103AFC0000B58EB005AC344B220043CB43C202AAB6
:103B0C00324B03CB03C21B781370152002AB9C46BF
:103B1C0060440EF04CFBC3B299460026A67106A871
:103B2C000EF045FBC7B2E6700124294E02E00134C9
:103B3C000D2C09D0A300043BF15805A8FCF7DCFAC6
:103B4C000028F4D1E5B2F2E702AB981D0EF02FFB82
:103B5C00009005AC0026667102ABD81C0EF027FB5A
:103B6C000190A67002A80EF022FB04000DA94B4692
:103B7C00CB704D708F7001230B70002215480DF027
:103B8C00BBFBFF23002819D108A90C70019B4B70BB
:103B9C00009B8B7000230B720F4A18305073CB6054
:103BAC000B6100220B480DF021FBFF23002805D1EF
:103BBC000A4A012107480DF063FC002318000EB0DF
:103BCC0004BC9146F0BDC0461C7401082874010861
:103BDC00307B0108606A0020086A0020F232000085
:103BEC0010B51C4A116A80231B020B4313621A483E
:103BFC001A4B0360002343607C228260184AC26027
:103C0C000361436183610DF093FAFF2300281ED1F9
:103C1C00012111480DF03AFC124B98420ED10D4B7C
:103C2C005B6A1B0102D5104B00221A70094B5B6AB0
:103C3C005B0105D50C4B01221A7001E0FFF756FF12
:103C4C00044A516A80235B040B435362002318001F
:103C5C0010BDC04600100240606A002000280040E1
:103C6C00CF070000F2320000BE0C002010B5044B50
:103C7C009968FCF741FA43425841C0B210BDC046A6
:103C8C004000002070B504001B49FCF735FA060013
:103C9C000625002E23D019492000FCF72DFA002808
:103CAC001FD017492000FCF727FA00281BD0154914
:103CBC002000FCF721FA002817D013492000FCF74C
:103CCC001BFA002813D011492000FCF715FA002824
:103CDC000FD0013DEDB2002DDBD1002070BD0120D5
:103CEC00FCE70220FAE70320F8E70420F6E70520BA
:103CFC00F4E70620F2E7C0460474010808740108D2
:103D0C000C7401081074010814740108187401086B
:103D1C00F0B59BB001240D940E94109410231193C4
:103D2C000227169780267602179680235B0318933A
:103D3C00002519950DA80CF0B3FC072309930A97DD
:103D4C000B950C95012109A80CF06CFF1A4B0293F2
:103D5C0004950595069502A80DF012F9174DEA6920
:103D6C00802149050A43EA61EB690B400093009BF3
:103D7C000CF08CFC0296C0239B00039302A80DF060
:103D8C00FFF80DF0D9F8FA218900FCF7DBF90BF0FC
:103D9C0009FC04200BF022FCAB692343AB61AB693B
:103DAC001C400194019B01200022002140420BF099
:103DBC00B1FB1BB0F0BDC046030004000010024074
:103DCC0010B52F4809F09AFA2E4809F097FA2E48A8
:103DDC0009F094FA2D4809F091FA2D4809F08EFA61
:103DEC002C4809F08BFA2C4809F088FA2B4809F07A
:103DFC0085FA2B4809F082FA2A4809F07FFA2A48FA
:103E0C0009F07CFA294809F079FA294809F076FA80
:103E1C00284809F073FA284809F070FA274809F085
:103E2C006DFA274809F06AFA264809F067FA26481D
:103E3C0009F064FA254809F061FA254809F05EFAA0
:103E4C00244809F05BFA244809F058FA234809F091
:103E5C0055FA234809F052FA224809F04FFA224841
:103E6C0009F04CFA214809F049FA214809F046FAC0
:103E7C00204B1D221A7006F0ADFFFFF735FE10BD6A
:103E8C00847D0108187D0108B47C01080C760108BA
:103E9C0094770108387F01082C7C0108847901088B
:103EAC00CC830108887A0108F47F0108F4740108B6
:103EBC00287F01083C820108D8780108187701088E
:103ECC00449201088076010840800108B8920108EC
:103EDC00047A0108C4770108BC83010878740108CE
:103EEC00747C0108847701085876010890920108C7
:103EFC00D89101085069002006280DD88000084B85
:103F0C001B589F4607480AE0074808E0074806E0A8
:103F1C00074804E0074802E0002000E0064870472C
:103F2C00FC6F0108506D0020706C0020006C0020AC
:103F3C00906B0020206B0020E06C0020F0B585B069
:103F4C000E0015000F226A4413701C000AAB1F7878
:103F5C00BC4257D0002C00D1BAE0002F00D1BBE0FE
:103F6C00002854D0012800D189E06723022800D012
:103F7C00AFE02000FFF7C0FF04003800FFF7BCFFE4
:103F8C0001000122200005F091FF0300172800D149
:103F9C009FE06801401B80004019C000FA21890095
:103FAC00FCF7D0F804000F256D444C4B00932B000C
:103FBC00002201004A480AF055FF2D786B1E9B0029
:103FCC00484A9E500AAB1878FFF796FF0700280066
:103FDC00FFF792FF01000122380005F067FF030094
:103FEC00172876D03D4B00930AAB002221003C48A9
:103FFC000AF038FF05000AAB1B78013B9B00394ADD
:10400C009E502CE0384B02221A55672361E02000A9
:10401C00FFF772FF04003800FFF76EFF010001226A
:10402C00200005F043FF0300172852D00F246C44E6
:10403C006801401B80004019C000FA218900FCF780
:10404C0081F80100254B00932300002224480AF03C
:10405C0009FF05002378013B9B00224A9E50002358
:10406C00002D36D00AF01EF9020001235B420093AA
:10407C000023012128000AF015FF002329E0380055
:10408C00FFF73AFF07002000FFF736FF010001227F
:10409C00380005F00BFF030017281AD06801401BED
:1040AC0080004019C000FA218900FCF74BF8010090
:1040BC000A4B00930AAB002209480AF0D3FE050014
:1040CC000F236B441B78013B9B00064A9E50C6E7AE
:1040DC006723180005B0F0BD6723FAE785270008B1
:1040EC00347401087C160020B812002070B584B01E
:1040FC000E21694400230B8003AA1380E42005F0F1
:10410C00BBFF0026002802D10E236B441E780E2123
:10411C006944E52005F0B0FF040003A9E62005F092
:10412C00ABFF0443A4B20025002C06D10E236B4434
:10413C001D882D0403AB1B88ED180E216944E72064
:10414C0005F09AFF040003A9E82005F095FF204331
:10415C0080B20024002806D10E236B441C88240452
:10416C0003AB1B88E4180E216944E92005F084FF99
:10417C00002807D10E236B441B88190A284A11709A
:10418C00284A13700E216944EA2005F075FF0028B7
:10419C0007D10E236B441B88190A234A1170234A3A
:1041AC0013700E216944EB2005F066FF002807D13F
:1041BC000E236B441B88190A1D4A11701D4A13707B
:1041CC00174B1B78002B03D0164A1278002A12D1F9
:1041DC00154B1B78002B03D0144A1278002A11D1EE
:1041EC00134B1B78002B03D0124A1278002A10D1E3
:1041FC00002004B070BD0092220029003000FFF7AF
:10420C009DFEE5E70092220029003000FFF796FEA4
:10421C00E6E70092220029003000FFF78FFEE7E767
:10422C0065130020E00E002066130020E10E002034
:10423C0067130020E20E002070B50E0015001C0064
:10424C00FFF75AFE2B4B98421AD02B4B984225D095
:10425C002A4B98422DD02A4B984236D0294B984263
:10426C003ED0294AFF23904216D19023DB053360C0
:10427C0010222A8023602023049A138000230BE051
:10428C009023DB053360802292002A8023608023F8
:10429C00DB00049A13800023180070BD9023DB050B
:1042AC00336004222A8023600823049A138000239D
:1042BC00F2E7164B33608022D2002A8023608023E1
:1042CC001B01049A13800023E6E79023DB0533607F
:1042DC0001222A8023600223049A13800023DBE747
:1042EC000A4B336008222A8023601023049A13801F
:1042FC000023D1E7006C0020506D0020206B0020C3
:10430C00E06C0020906B0020706C002000040048D2
:10431C0010B5FFF7F1FD0400E1231B02436080237D
:10432C00DB00036180235B0183600DF0D9FD226803
:10433C00136820210B43136010BD0000F0B5D64666
:10434C00474680B585B00400100000230393624BF0
:10435C001A7C02AB1A70002C01D172B6FEE703AACC
:10436C00012109F069F805005C49FBF7C5FE00283E
:10437C0073D15B4B1A785B4B9B18013B1E78012564
:10438C00574B984615E02A00574920000EF0A2FB27
:10439C002000FBF7BBFE82B2514B187864230093CC
:1043AC005A3B210008F03AFE2FE00135072D00D1D1
:1043BC007FE0EBB29A4643461B785345F5D00EF09E
:1043CC00A7F902AF3870642300935A3B01223900DD
:1043DC00504608F023FE5046FFF78EFD03689B8C79
:1043EC003A78DBB29A42CED02A00404920000EF037
:1043FC0071FB2000FBF78AFE82B2394B18786423DC
:10440C0000935A3B210008F009FE54223849200041
:10441C000EF05DF92000FBF779FE82B2304B187874
:10442C00642300935A3B210008F0F8FD01362C4B15
:10443C001B78013B9B012F4AD3189B5D002BB4D1F9
:10444C009246274F01200BF049F83B78013B9B012A
:10445C0053449B5D002BF5D0A7E70023EB56702B44
:10446C0005D00F22244920000EF031F921E0681C00
:10447C000DF0A3FE0500C7B27B1E052B25D80EF050
:10448C0047F902AE307064230093323B01223100B5
:10449C00380008F0C3FD3800FFF72EFD03689B8C35
:1044AC003278DBB29A420AD1EAB20F4920000EF000
:1044BC0011FB002005B00CBC90469A46F0BDEAB248
:1044CC000A4920000EF006FBF3E71B220B492000E3
:1044DC000EF0FDF8EDE7C046E06E0108FC77010830
:1044EC002F0A00200C160020289101084491010885
:1044FC00589101088C140020AC910108BC91010862
:10450C00F0B5DE4657464E464546E0B585B000AFA1
:10451C00474B1B789C460733DB08DB006A46D31AF3
:10452C009D466C466346002B0DD02300414A6146E4
:10453C004D1EEDB201352D1900211970118001337A
:10454C000232AB42F9D101380123235416224243E3
:10455C000232394BD2180021364D400001239846C7
:10456C00A34603E001310232062911D01388002B37
:10457C00F8D0465BB14646468E40B2464E4654464F
:10458C0026434653DB085B44013B02241C70E9E7DD
:10459C005C460226284B02337B6001239B46B046C7
:1045AC00260043460133DBB298466346002B35D0D8
:1045BC0000220023FB60013B434499461EE001307E
:1045CC000231062815D00B88002BF8D0DB08013BF4
:1045DC00F55C002DF3D1174AA55A5A468240154373
:1045EC00144AA5524246F254FB680133DBB2FB601D
:1045FC00E5E7BA680132D3B263450CD2B35C4B45E4
:10460C00F8D1162151437B689A465144530000203F
:10461C00BA601C00D7E7FB68002BC2D10020BD4656
:10462C0005B03CBC90469946A246AB46F0BDC04690
:10463C001C0000208C0C0020300A0020F0B5DE4657
:10464C0057464E464546E0B587B080460291140069
:10465C00039310AB1F880300134300D169E10028BA
:10466C0059D1931CDBB26720012B00D943E1002008
:10467C0009F080FD04900521002009F08BFDBA4B58
:10468C0048221A7012325A70029B002B00D066E13D
:10469C00013FB64BDD5DB448F900C91BC900B44FEE
:1046AC00C9192A0003300EF012F8AF4B9A469D70D0
:1046BC00EF1C3A001900AF480EF009F8FE1703235F
:1046CC009B461E40F619B6103200AA49AA480BF0B8
:1046DC0048F85346D8555B463B4200D0F3E03822AD
:1046EC000021A4480DF0FCFF0234E4B2012C00D9E7
:1046FC00F3E0039B002B05D1029B002B02D19A4BBC
:10470C001B7902930298FFF7FBFE002601249B4BBA
:10471C0098469B4FFBE0029B002B02D0002A00D155
:10472C0009E1002009F026FD04900521002009F084
:10473C0031FD8D4B48221A7012325A70039B002B9C
:10474C00A6D0029B002B02D18D4B1B78029386497D
:10475C0000238B70CC70029B0B718A4AD3799B001F
:10476C0092791343FF2203988242924152425200A3
:10477C001343DBB24B71887100229246FF2803D998
:10478C00020ACA71012292462E2F2FD98022524240
:10479C001343754A53717C4B1F8000252E275346BB
:1047AC000733944663440593774B1E88002E2BD019
:1047BC0039003000FBF7C6FC80B2002841D16A4BAF
:1047CC005A797F231340684A5371704D2B88704976
:1047DC00C918320005980DF07AFF00232B806A4A25
:1047EC001380351D5544EDB23700DDE753460733D2
:1047FC005D48C018654B1B886549C9183A000DF017
:10480C0066FF3D1D5544EDB2624B1B78002B00D169
:10481C004BE7614B1B78FF2B00D190E05F4A12787D
:10482C009446002A4DD001269E405D48012300216C
:10483C004D4A9146B94422006446AC4655469246D0
:10484C0017E00097039B220002994046FFF7F6FE03
:10485C000A2008F0D8FC4C4A1388DB1B13804B4A07
:10486C001388FB1813809FE701339BB20230A342DD
:10487C000DD802881642F7D00131C9B27A1801322C
:10488C002D2A5ADC4A46521852199371ECE75446B9
:10489C00AA46654653460733DB195B18324AD15496
:1048AC007F18023769202D2F25DC3E480278013213
:1048BC00D2B202702C48C3185A7002356D18EDB282
:1048CC00F3E60021E6E7B6002A49711801222A48CE
:1048DC000AF01BFF244BD85501E72A1D322322492D
:1048EC00404608F0E5FB0499002009F053FC2E4BE0
:1048FC0002221A70002007B03CBC90469946A24692
:10490C00AB46F0BD0134E4B20136072CEBD03B785A
:10491C00013B5B0042469B5A3341DB07F2D52A1D13
:10492C0032231149200008F0C3FB01200AF0D6FD08
:10493C00E8E76720DFE76720DDE76920DBE77B1C22
:10494C0069202D2BD7DC174A13780133DBB2137097
:10495C00054AD7195744FB710135EDB2A5E6039B07
:10496C00002B00D194E6F2E694100020CC1000202D
:10497C00500D002014160020C06D00208C0C00205F
:10498C0008120020086A002068130020DC120020A6
:10499C00D41000202C0A00201D0000201C00002038
:1049AC00480F00208A0C00201013002000B583B0A3
:1049BC000C4B00221A700C4B1870FF2809D0009178
:1049CC000023FE2200210020FFF738FE002003B058
:1049DC0000BD00910023FF3200210020FFF72EFEC6
:1049EC00F4E7C0462C0A00201D00002030B583B02F
:1049FC001C000F4B01251D700E4B1970FF290ED09A
:104A0C0000941300FE2201000020FFF717FE220085
:104A1C00002109480DF064FE002003B030BD009465
:104A2C001300FF2201000020FFF708FEEFE7C0464D
:104A3C002C0A00201D000020D4100020F0B5C64622
:104A4C0000B582B0060001240F4B98460F4D03278A
:104A5C00A6420FD043461B881A0A2A706B70AC70A2
:104A6C0000970A23002200212000FFF7E7FD0A200F
:104A7C0008F0C9FB0134E4B2072CE9D1002002B0E4
:104A8C0004BC9046F0BDC0461E000020D41000208F
:104A9C0010B504000AF0B0FB002C06D0044B1A68C9
:104AAC00516A536A5B1AA342FBD90AF0B1FB10BDE1
:104ABC00246A0020F0B5DE4657464E464546E0B522
:104ACC0089B0BD4D09350424012600239B46994627
:104ADC0011E10E2302AA9446634419880122079817
:104AEC000BF0C8FD0A20FFF7D3FF05AB1988069819
:104AFC000BF0BAFD814626E1012B05D14B46012B6B
:104B0C0046D0002B00D1C5E15B46042B01D0022B13
:104B1C0007D1AA4BE358AA4A934242D80133A74A79
:104B2C00A350FD235A461340012B00D1B6E1A34BF1
:104B3C00E358A44A128893426FD345D0A24BE35852
:104B4C009A4202D2A04B0022E2509C4BE3589D4A61
:104B5C005288934252D9F422FF3293424ED89B4B47
:104B6C001B78002B37D1994BF33AFF3A1A7054E06B
:104B7C004B46012B0FD0002BC6D103239B468DE156
:104B8C004B46012B0AD0002BBED101239B4685E15D
:104B9C0004239B46BDE704239B46BAE702239B46AE
:104BAC00B7E7864B0022E250BBE7874B0022E2506E
:104BBC007DE1874BF35C834A52799A4200D282E1C1
:104BCC000133834AB354B2E70721404601700133E5
:104BDC007A496350B2E7022B1FD17D4BF35C794AC3
:104BEC0012799A4219D2774A52799A4215D9774B4F
:104BFC0003221A70764B0022F2540EE0F53BFF3B79
:104C0C00744A934209D8714B1B78002B02D06F4B1E
:104C1C0000221A700398FEF7E3FE6B4BE358694AC7
:104C2C00128893424DD32BD0644BE3589A4202D254
:104C3C00624B0022E250644BE358624A5288934222
:104C4C003AD9F422FF32934236D8604B1B78012BB1
:104C5C001DD0032B35D10333424613705B4B00221E
:104C6C001A705D4B1B78002B3FD143461B7A9B0778
:104C7C003BD5594B01221A700398FEF730FF34E0F4
:104C8C0008214046017001334F496350CCE704338F
:104C9C00424613704D4B02221A704F4B1B78002B5F
:104CAC0023D143461B7ADB071FD54B4B01221A70CD
:104CBC000398FEF713FF18E0F53BFF3B454A934280
:104CCC0009D943461B78053BDAB2092A0DD8930063
:104CDC00424AD3589F460398FEF7C0FEF1E703986B
:104CEC00FEF7FAFE002342461370013609350434F0
:104CFC001C2C00D1EDE0F3B20393A8466B78002B8B
:104D0C00F3D0354B1B78002B00D12B700E2302AA4D
:104D1C00944663449A4605AF009706AB524607A9E2
:104D2C000398FFF789FA53461988002207980BF06D
:104D3C00A1FC0A20FFF7ACFE398806980BF094FC16
:104D4C00002800D1C5E60E2302AA944663441988B4
:104D5C00002207980BF08EFC43465B78022B00D1A7
:104D6C0006E7DAB2022A00D8C6E6032B00D107E721
:104D7C00042B00D0C8E64B46012B00D18DE0002B54
:104D8C0000D0C1E602239B46C3E60398FEF7A5FEBE
:104D9C00002342461370A8E70F4B1B78002BA4D1BD
:104DAC0043461B7A5B07A0D50B4B01221A700121DD
:104DBC000398FEF795FE98E7DC0C0020C01200204B
:104DCC00FEFF0000086A0020E8120020A10E00205F
:104DDC00D80E00200AFE0000DF0E0020187001081B
:104DEC003F4B1B78002B00D07FE743461B7A1B07F9
:104DFC0000D47AE73A4B01221A7002210398FEF78D
:104E0C006FFE72E7364B1B78002B00D06DE74346E4
:104E1C001B7ADB0600D468E7314B01221A700321A0
:104E2C000398FEF75DFE60E72D4B1B78002B00D03E
:104E3C005BE743461B7A9B0600D456E7284B0122BE
:104E4C001A7001210398FEF74CFE4EE7244B1B7899
:104E5C00002B00D049E743461B7A5B0600D444E79D
:104E6C001F4B01221A7002210398FEF73AFE3CE711
:104E7C001B4B1B78002B00D037E743461B7A7F2B4C
:104E8C0000D832E7164B01221A7003210398FEF763
:104E9C0028FE2AE703239B4600E0CB46114BE35840
:104EAC00114A934200D980E601330E4AA3500F4BAE
:104EBC001B78022B00D17CE60D4BF25C0D4B5B7921
:104ECC009A4200D833E60023084A1370084AB354B8
:104EDC002DE609B03CBC90469946A246AB46F0BDC7
:104EEC00DF0E0020E8120020FEFF0000A10E0020C3
:104EFC00D80E0020086A002010B504000AF07CF9D6
:104F0C00002C06D0044B1A68516A536A5B1AA342F0
:104F1C00FBD90AF07DF910BD5469002070B592B030
:104F2C00394B596980208002014359615A6902400A
:104F3C000392039A59698020C002014359615A694E
:104F4C0002400492049A596980200003014359617C
:104F5C005A6902400592059A5A69802149030A430D
:104F6C005A615B690B400693069B22256D4408AB86
:104F7C0000930BAB2A000CA90120FFF75DF907ACDD
:104F8C00009409AB1E226A440AA90620FFF754F9C3
:104F9C0001230E9300260F962B880D930DA90C98C8
:104FAC000BF082FA0E9602230F9323880D930DA912
:104FBC0009980BF079FA298800220C980BF05AFB0F
:104FCC000520FFF799FF218809980BF04DFB00286D
:104FDC0006D00E4B012252421A60002012B070BD56
:104FEC0022236B44198801220C980BF043FB0520FB
:104FFC00FFF782FF07AB198809980BF035FB0128E6
:10500C00E7D10120EAE7C04600100240F07F002003
:10501C0070B58EB012256D4404AB009307AB2A001B
:10502C0008A90120FFF708F903AC009405AB0E2288
:10503C006A4406A90220FFF7FFF801230A93002611
:10504C000B962B88099309A908980BF02DFA0A9650
:10505C0002230B932388099309A905980BF024FAD2
:10506C002988002208980BF005FB0520FFF744FF68
:10507C00218805980BF0F8FA0023002802D01800BC
:10508C000EB070BD12336B441988012208980BF0D6
:10509C00F1FA0520FFF730FF03AB198805980BF0E8
:1050AC00E3FA013843424341DBB2E8E770B5041E32
:1050BC0003D0012902D0002916D070BD06F0F0FBF8
:1050CC00144B1B78013B144D5B0001388021090205
:1050DC000A000241585B02435A530823636261631E
:1050EC0020000CF0FDFEE8E706F0DAFB094B1B781C
:1050FC00013B094D5B0001388021090201415A5BDB
:10510C008A435A53082363620023636320000CF024
:10511C00E7FED2E708120020580C0020F0B5DE465E
:10512C0057464E464546E0B58FB005008A463222BA
:10513C00002101A80DF0D4FA192200215A480DF0D3
:10514C00CFFA2900681E0023584A1354584A1354A6
:10515C00162545430235574BED182A0001205346BE
:10516C009CB203E00130023207280FD01388002BC9
:10517C00F8D0DB08A342F5D14C4B5344013B012240
:10518C001A70494B52461A70C0B285E04A4B1E78D1
:10519C00002E11DD0123FF24454F0020AC4602E018
:1051AC000133B34207DC9942FAD05A1E3F4DAC543E
:1051BC00BA181070F4E7654600243E4B98460E234F
:1051CC00434456469B46A9461DE04D46B246340024
:1051DC0034E00231814215D00B88002BF9D0DB086A
:1051EC00DBB2013BD75C002FF3D1304F7F5D013731
:1051FC00FFB22E4EF65CBE42EBD92C4EF7542C4E21
:10520C00F454E6E7564601A8FDF73EFE002813D1FC
:10521C0001A92648FDF71AFE0130C4B2B442D4D01D
:10522C00651E01AB01225A5516206843811C41446E
:10523C0058441A00B246CFE74D46B2461C4B1B19D8
:10524C00013B1A780023002A0ED017498C46184EC1
:10525C0000E00A00581C6146CC54B318013B197885
:10526C001400C3B20029F4D101200F490F4B534451
:10527C001F00013F03E00130023507280BD02B88BB
:10528C00002BF8D03A788A18013A1278DB089A4247
:10529C00F1D1C0B200E000200FB03CBC9046994662
:1052AC00A246AB46F0BDC0461413002030130020BC
:1052BC004C130020300A00201C00002030B583B0B5
:1052CC0005000B4B00221A70421ED3009B1ADB0008
:1052DC00084A9C5C084B18782100FFF71FFF0095CB
:1052EC00002322000021FFF7A9F9002003B030BDF4
:1052FC002C0A0020500D002008120020F0B583B0BD
:10530C0004000E001500FF2812D00D4F3878210034
:10531C00FFF704FF3978009533002200FFF78EF970
:10532C002A00002107480DF0DBF9002003B0F0BD86
:10533C00034B187813000A00FF21FFF757FBF4E723
:10534C0008120020D410002070B582B004001000A8
:10535C0000230193002C01D172B6FEE701AA0121B2
:10536C0008F06AF80500019E32001E490DF0F6FBAC
:10537C0000281ED032001C4928000DF0EFFB00283D
:10538C002AD100221621FF20FFF7B8FF174B02226B
:10539C001A70642007F037FFFEF7BEF8FDF7B0FF78
:1053AC00642007F030FF4022114920000DF08FF9E6
:1053BC000FE01049104B0A0023CB23C223CB23C28E
:1053CC001B681360FEF7C2FA27220C4920000DF06F
:1053DC007EF9002002B070BD0F22094920000DF0AB
:1053EC0076F9F6E790760108C07601087A0F00206E
:1053FC00D8760108086A0020000000209876010881
:10540C00C8760108F0B5D6464F464646C0B584B0BE
:10541C0005000390564C574B220043CB43C21968EE
:10542C0011609B8893802000FAF770FE82B20123F2
:10543C005B42009333332100280007F0EFFD012479
:10544C004D4F4B4D012676422200390028000DF0BD
:10545C0041FB2800FAF75AFE82B20096322329004B
:10546C00039807F0DBFD0134072CEDD101235B42DF
:10547C000093333303224149039807F0CFFD404B8F
:10548C001B78002B65D0002601277F423D4B9946A7
:10549C000E234B449A462AE007231340D2083A497C
:1054AC0033480DF017FB324D2800FAF72FFE82B26D
:1054BC00009732232900039807F0B0FD0234B44260
:1054CC0007D02288002AE7D1304929480DF002FB89
:1054DC00E9E746460097322302222D49039807F04C
:1054EC009DFD0136F6B2264B1B78B34231D9721CA6
:1054FC001F4C284920000DF0EDFA2000FAF706FEAB
:10550C0082B2009732232100039807F087FD1625FD
:10551C0075434B46EB5A5900C91849001E4BC91824
:10552C00052220000DF02BFB0097322305222100D1
:10553C00039C200007F072FD0097322301221749CB
:10554C00200007F06BFDAC1C4C445544B0462E00BB
:10555C00B7E701235B4200933333012210490398D0
:10556C0007F05CFD04B01CBC90469946A246F0BD09
:10557C0068120020CC730108E0730108B097010891
:10558C001C000020300A0020F8730108F473010895
:10559C0074720108E8730108AC7A0108DC73010825
:1055AC00EC8A0108F0B5C64600B584B0050003903E
:1055BC00304C314B220043CB43C243CB43C21B681C
:1055CC0013602000FAF7A2FD82B201235B42009324
:1055DC0033332100280007F021FD284B1B780122D2
:1055EC009046002B2CD0264E25E023000A2C1AD0F6
:1055FC005C1CA95B802212021A410A42F5D01D4F95
:10560C00230042461F4938000DF064FA3800FAF7BF
:10561C007DFD82B201235B42009333333900039842
:10562C0007F0FCFCE1E743460133DBB29846134B31
:10563C001B78434504D300234246551E6D00D7E723
:10564C000C4C114B220023CB23C223CB23C203CB04
:10565C0003C22000FAF75AFD82B201235B42009389
:10566C0033332100039807F0D9FC04B004BC9046F6
:10567C00F0BDC046681200207C7301081C0000209D
:10568C00580C002098730108AC730108F0B5D6468D
:10569C0000B584B0039007F0CBFE04000023037028
:1056AC008D4B1A788D4D8E4928000DF013FA290078
:1056BC0020000DF02FFA8B4B1A788B4928000DF037
:1056CC0009FA290020000DF025FA03230093013B71
:1056DC000022864928000DF0FDF9290020000DF06C
:1056EC0019FA834A834928000DF0F4F929002000A7
:1056FC000DF010FA804A814928000DF0EBF92900D1
:10570C0020000DF007FA7E4B2A0043CB43C21968E8
:10571C001160998891809B799371290020000DF07C
:10572C00F9F901276D4D774B9A460EE06B4B764A93
:10573C00116819609188998092799A716749200053
:10574C000DF0E8F90137072F39D03A006F492800DE
:10575C000DF0C0F9290020000DF0DCF95346FB5C7C
:10576C00042BEBD85346FB5C9B00694AD3589F46ED
:10577C005A49684B0A0043CB43C203CB03C21B7884
:10578C001370DBE7554A644B43CB43C2D6E753490E
:10579C00624B0A0043CB43C243CB43C21B881380EA
:1057AC00CCE74E495E4B0A0043CB43C243CB43C2CA
:1057BC0019681160998891809B799371BEE747496C
:1057CC00584B0A0061CB61C261CB61C220000DF065
:1057DC00A1F9554F01260DE0404D320053492800E8
:1057EC000DF078F9290020000DF094F901363837C6
:1057FC00072E18D03B68002BEED0786A06F050F8D4
:10580C000500B300043B4A4AD05806F049F8009012
:10581C002B003200474931480DF05CF92F4920002C
:10582C000DF078F9E2E72000FAF770FC201803225B
:10583C0041490CF04CFF2000FAF768FC20181D229F
:10584C003E490CF044FF2000FAF760FC824600222F
:10585C003B4F214E02E02A00062D13D0551C337805
:10586C00013B5B00D95B80231B0213410B42F2D03E
:10587C002A00344919480DF02DF9184920000DF073
:10588C0049F9E8E72000FAF741FC53461B041B0CCE
:10589C0098420ED02000FAF739FC20180322264932
:1058AC000CF015FF039B002B09D104B004BC9246ED
:1058BC00F0BD2018052224490CF009FFEAE720006E
:1058CC00FAF724FC82B201235B42009333332100AC
:1058DC00039807F0A3FBE8E70812002068120020E9
:1058EC00D87101082F0A0020F47101081072010808
:1058FC001C740108307201082874010848720108F0
:10590C0064720108B81200208072010878720108D4
:10591C004070010888720108A0720108AC7201087D
:10592C00C8720108E8720108A01900200073010870
:10593C00641600201C730108747201084C73010872
:10594C00580C00206C7301087473010810B5002802
:10595C0001D172B6FEE70020FFF798FE002010BDC3
:10596C00F0B5C64600B505002949FAF7C5FB002875
:10597C0010D028492800FAF7BFFB002845D02B7817
:10598C009846232B0BD0244B1F78002F2AD0234E64
:10599C0000241CE0224B187804BC9046F0BD681C17
:1059AC000CF00BFCC3B2002B03D01B4A12789A42AA
:1059BC0006D21B4A127866209A42EDD110B2EBE760
:1059CC0018B2E9E70134E4B20A36BC420AD031001D
:1059DC002800FAF791FB0028F4D14346002BF1D0B4
:1059EC0020B2D9E70F4F002639002800FAF784FBC4
:1059FC00002805D001360A370A2EF5D16420CBE7F2
:105A0C003402FE20204300B2C6E7FF20C4E7C046A4
:105A1C0000740108FC7701081C0000200411002010
:105A2C0008120020E40E0020F0B583B001900D00A8
:105A3C002A4C2700103721002800FAF75DFB0028BC
:105A4C0043D00434BC42F6D1254B1B78012B0FD923
:105A5C00244C9F00FF187F0023000A3BFF182100F5
:105A6C002800FAF749FB002831D00A34BC42F6D1A1
:105A7C001D4C2700643721002800FAF73DFB002855
:105A8C0028D00A34BC42F6D1184C194B1C601E00AD
:105A9C0023681F683800FAF739FB02003900280028
:105AAC000DF05CF8002817D064683460002CEFD13E
:105ABC00019B98009C46604440000E4E80192900C2
:105ACC000DF044F8FDF77CFD02E0062000E0072015
