:020000040800F2
:100000000080002059E40008E5E40008A5D70008B6
:1000100000000000000000000000000000000000E0
:10002000000000000000000000000000A5E900083A
:10003000000000000000000055EA000899D7000801
:10004000E5E40008E5E40008E5E40008E5E400086C
:10005000E5E40008E5E40008E5E40008E5E400085C
:10006000E5E40008F5D7000801D8000841D80008E9
:10007000E5E40008E5E40008E5E40008E5E400083C
:10008000E5E40008E5E40008E5E40008E5E400082C
:10009000E5E40008E5E40008E5E40008E5E400081C
:1000A000E5E40008E5E40008E5E40008A9D7000855
:0C00B000B9D70008C9D70008E5E4000833
:1000BC0010B5064C2378002B07D1054B002B02D032
:1000CC00044800E000BF0123237010BD900A0020FB
:1000DC0000000000409B0108044B10B5002B03D01E
:1000EC000349044800E000BF10BDC04600000000FA
:1000FC00940A0020409B010802780B78002A03D058
:10010C00013001319A42F7D0D01A70470023C25CFB
:10011C000133002AFBD1581E7047000002B471460F
:10012C0049084900095C49008E4402BC7047C0462E
:10013C0003B47146490840004900095A49008E44ED
:10014C0003BC7047002243088B4274D303098B42D3
:10015C005FD3030A8B4244D3030B8B4228D3030C8B
:10016C008B420DD3FF22090212BA030C8B4202D32D
:10017C001212090265D0030B8B4219D300E0090A55
:10018C00C30B8B4201D3CB03C01A5241830B8B425E
:10019C0001D38B03C01A5241430B8B4201D34B0347
:1001AC00C01A5241030B8B4201D30B03C01A5241AC
:1001BC00C30A8B4201D3CB02C01A5241830A8B4231
:1001CC0001D38B02C01A5241430A8B4201D34B021A
:1001DC00C01A5241030A8B4201D30B02C01A52417E
:1001EC00CDD2C3098B4201D3CB01C01A5241830932
:1001FC008B4201D38B01C01A524143098B4201D36C
:10020C004B01C01A524103098B4201D30B01C01A96
:10021C005241C3088B4201D3CB00C01A5241830810
:10022C008B4201D38B00C01A524143088B4201D33D
:10023C004B00C01A5241411A00D20146524110469D
:10024C007047FFE701B5002000F0F0F802BDC04692
:10025C000029F7D076E7704703460B437FD4002282
:10026C0043088B4274D303098B425FD3030A8B423E
:10027C0044D3030B8B4228D3030C8B420DD3FF22A8
:10028C00090212BA030C8B4202D31212090265D076
:10029C00030B8B4219D300E0090AC30B8B4201D329
:1002AC00CB03C01A5241830B8B4201D38B03C01A70
:1002BC005241430B8B4201D34B03C01A5241030BE7
:1002CC008B4201D30B03C01A5241C30A8B4201D398
:1002DC00CB02C01A5241830A8B4201D38B02C01A43
:1002EC005241430A8B4201D34B02C01A5241030ABA
:1002FC008B4201D30B02C01A5241CDD2C3098B429F
:10030C0001D3CB01C01A524183098B4201D38B011B
:10031C00C01A524143098B4201D34B01C01A5241BE
:10032C0003098B4201D30B01C01A5241C3088B4203
:10033C0001D3CB00C01A524183088B4201D38B00EE
:10034C00C01A524143088B4201D34B00C01A524190
:10035C00411A00D201465241104670475DE0CA0F67
:10036C0000D04942031000D34042534000229C4627
:10037C0003098B422DD3030A8B4212D3FC22890131
:10038C0012BA030A8B420CD3890192118B4208D307
:10039C00890192118B4204D389013AD0921100E069
:1003AC008909C3098B4201D3CB01C01A524183097D
:1003BC008B4201D38B01C01A524143098B4201D3AA
:1003CC004B01C01A524103098B4201D30B01C01AD5
:1003DC005241C3088B4201D3CB00C01A524183084F
:1003EC008B4201D38B00C01A5241D9D243088B42A5
:1003FC0001D34B00C01A5241411A00D20146634648
:10040C0052415B10104601D34042002B00D54942AB
:10041C00704763465B1000D3404201B5002000F0EA
:10042C0005F802BD0029F8D016E770477047C046A2
:10043C008446101C62468C46191C634600E0C0467C
:10044C001FB501F005FD002801D40021C8421FBDD5
:10045C0010B501F04FFC4042013010BD10B501F059
:10046C00F7FC002801DB002010BD012010BDC046A8
:10047C0010B501F0EDFC002801DD002010BD0120BD
:10048C0010BDC04610B501F071FC002801DC002045
:10049C0010BD012010BDC04610B501F067FC00284E
:1004AC0001DA002010BD012010BDC0468446081C96
:1004BC006146FFE71FB500F043FA002801D4002184
:1004CC00C8421FBD10B500F0C7F94042013010BD45
:1004DC0010B500F035FA002801DB002010BD01201A
:1004EC0010BDC04610B500F02BFA002801DD00202D
:1004FC0010BD012010BDC04610B500F0D5F9002884
:10050C0001DC002010BD012010BDC04610B500F06C
:10051C00CBF9002801DA002010BD012010BDC04627
:10052C00002B11D1002A0FD1002900D1002802D0B4
:10053C000021C943081C07B4024802A140180290CC
:10054C0003BDC046E9FEFFFF03B4684601B502983F
:10055C0000F0B6F8019B9E4602B00CBC7047C0463A
:10056C00F0B515042D0C0F0001002E00C646844674
:10057C000004140C000C090C46434D4360436143CA
:10058C004019340C241800B5A54203D98020400230
:10059C0080464144250C6D18614659437A4330041A
:1005AC0049192404000C2018891880BCB846F0BDE9
:1005BC009E2110B5C905041CFFF7A8FF002803D124
:1005CC00201C00F0E9FC10BD9E21201CC90500F088
:1005DC001BFB00F0E1FC80231B069C466044F2E709
:1005EC0070B500220C4B04000D00FFF755FF0028DE
:1005FC0004D12000290002F0B7FA70BD064B00228E
:10060C002000290001F000FF02F0AEFA80231B0647
:10061C009C466044F1E7C0460000E04170B505001F
:10062C000C000022002328002100FFF717FF0028F0
:10063C0008D12800210000F00FF802000B00100078
:10064C00190070BD80231B06E118280000F004F887
:10065C00002342428B41F2E770B500220B4B0D0098
:10066C00040001F065FCFFF7BBFF060002F0E2FAA4
:10067C000022074B01F05CFC02000B00200029005B
:10068C0001F0C2FEFFF7ACFF310070BD0000F03D81
:10069C000000F04170B50600080002F09BFA002241
:1006AC00064B01F045FC0D000400300002F0C2FACC
:1006BC002B00220000F0CCFC70BDC0460000F041C5
:1006CC00F0B557464E464546DE46E0B504000D00F3
:1006DC009246994683B08B4230D82DD0494650462D
:1006EC0002F0BCFB29000600200002F0B7FB331A15
:1006FC009846203B9B4633D45A4653469340424639
:10070C001F00534693401E00AF423AD8AF4200D16F
:10071C0078E05B46A41BBD41002B00DA75E000229B
:10072C0000230092019301235A4693400193012325
:10073C0042469340009328E08242CFD90022002306
:10074C00009201930C9B002B01D01C605D60009803
:10075C00019903B0F0BCBB46B246A946A046F0BD19
:10076C00424620239B1A5246DA40414613004A4621
:10077C008A40170042461F43534693401E00AF4227
:10078C00C4D900220023009201934346002BD9D0F8
:10079C00FB0772081A4346467B080EE0AB4201D1B8
:1007AC00A2420CD8A41A9D41012024196D410021AC
:1007BC00013E24184D41002E06D0AB42EED9013E2D
:1007CC0024196D41002EF8D1009801995B4600194F
:1007DC006941002B24DB2B005A464446D3402A00A7
:1007EC00E2401C005B461500002B2ADB26009E40D5
:1007FC00330026004746BE403200801A99410090D3
:10080C0001919FE7A342BCD883E7424620230021F5
:10081C009B1A0022009101920122DA40019286E794
:10082C00424620239B1A2A0046469A402300F34056
:10083C00444613432A00E2401C005B461500002B83
:10084C00D4DA42462F002023260097409B1ADE4024
:10085C003B003343CDE7C04670B542004E024C001E
:10086C0045026D0A120EC30F760A240EC90FFF2A19
:10087C000FD0FF2C11D00120A24200D070BDB54288
:10088C00FCD18B420DD0002AF8D12800451EA8417E
:10089C00F4E70120002DF1D1EBE70120002EEDD182
:1008AC00E9E70020EAE7C046F0B5420046024D02F7
:1008BC004C00C30F760A120E6D0A240EC80FFF2AC5
:1008CC001FD0FF2C10D0002A1FD171427141002C77
:1008DC0001D1002D1ED000290ED183421ED0022141
:1008EC00581E08400138F0BD002D26D1002AF4D145
:1008FC00714271410029F0D00028F4D1012040420E
:10090C00F1E7002E19D1FF2CEED0002CE5D1002DF3
:10091C00E3D1E4E70020002EE5D0E0E7A24205DCBD
:10092C00EADBAE4202D8E7D30020DCE7414241418A
:10093C004842022108400138D5E702204042D2E764
:10094C00F0B5420046024D024C00C30F760A120E5F
:10095C006D0A240EC80FFF2A0DD0FF2C0FD0002AD1
:10096C0023D171427141002C0FD1002D0DD10020EB
:10097C00002E14D00DE0002E10D1FF2C15D1002D1F
:10098C000CD1002A03D171427141002908D1834254
:10099C0010D00221581E0840013800E00220F0BDA2
:1009AC000028FCD101204042F9E7002CEFD1002DAA
:1009BC00EDD1EEE7A24205DCF2DBAE4202D8EFD37A
:1009CC000020ECE7414241414842022108400138F5
:1009DC00E5E7C046F8B557464E464546DE46440266
:1009EC00E0B545000F1C640A2D0EC60F002D47D034
:1009FC00FF2D4DD0002380209A469B46E400C00476
:100A0C0004437F3D7802430A99467A00FB0F9846CF
:100A1C00120E4B4644D0FF2A11D0D8008023DB04A1
:100A2C000343994600207F3AAD184746534677401A
:100A3C00691C0F2B3FD8724A9B00D3589F46FF3539
:100A4C00002B00D079E0524602231A439246022032
:100A5C00EBE747464C4683465B46022B28D0032BDC
:100A6C0000D1C6E0012B4FD100200024C005FF07A8
:100A7C0020433843F0BCBB46B246A946A046F8BD5D
:100A8C00002C71D104239A46033B00259B46B9E701
:100A9C00002C63D108239A46063BFF259B46B1E701
:100AAC00002B50D1524601331A4392460120BCE729
:100ABC00FF200024DAE74846260C2404220C040408
:100ACC00240C4B4620001B0C504374435A435E438A
:100ADC001219030C9B189C4203D980225202944693
:100AEC00664400041A04000C12189401601E844120
:100AFC001B0C920E9B1914439B011C431B0172D5BA
:100B0C000120630804401C4308007F3000283CDDB2
:100B1C00630704D00F232340042B00D0043423019B
:100B2C0003D580310800374B1C40FE28C0DCA401E3
:100B3C00640AC0B29AE737008EE7524603231A4381
:100B4C009246032071E7484602F06AF94A46431F71
:100B5C009A402D1A91460020763D66E70C239A4662
:100B6C00093BFF259B464DE7200002F059F97625FD
:100B7C00431F9C4000236D429A469B462D1A41E729
:100B8C0080240027FF20E40370E701231B1A1B2B92
:100B9C0000DD69E79E3120008C40D840631E9C41EB
:100BAC000443630704D00F232340042B00D00434E8
:100BBC0063011AD50120002458E78020C0030442A9
:100BCC0009D04B46034206D14C46044364024746C7
:100BDC00FF20640A4AE78020C00304436402370004
:100BEC00FF20640A42E729008EE7A4010020640A72
:100BFC003CE78020C00304436402FF20640A35E70D
:100C0C0064A20108FFFFFFF7F0B54646D6464F46F3
:100C1C0043025B0ADA0094464A02C0B54400560A05
:100C2C00051CB046240E4E0092091F00200092466F
:100C3C00ED0F360EC90FFF2E00D17FE0012251407F
:100C4C008D4251D0A21B9146002A00DC7EE0002E82
:100C5C0000D199E0FF2C00D18CE080235246DB04BC
:100C6C001A4392464A4601231B2A08DC534620218C
:100C7C00D340891A52468A40511E8A411343624618
:100C8C00D31A5A0100D4F3E09B019E09300002F004
:100C9C00C7F805388640844200DDF7E03200041BBB
:100CAC0020200134E240041BA64033005E1EB341F9
:100CBC00002413435A0704D00F221A40042A00D0F0
:100CCC0004335A0100D4D6E0621CFE2C00D1DAE0C9
:100CDC009B015F0AD0B2C0053843ED072843E0BC46
:100CEC00BA46B146A846F0BDA21B9146002A63DD68
:100CFC00002E00D199E0FF2C3CD080235246DB041F
:100D0C001A4392464A4601231B2A08DC53462021EB
:100D1C00D340891A52468A40511E8A411343634478
:100D2C005A0100D4A4E00134FF2C00D1ABE0012225
:100D3C0097491A405B080B401343BBE7002A32D09B
:100D4C008D4235D0FF2252429146A1444A46002A98
:100D5C0051D0301B002C00D09CE06346002B00D1FE
:100D6C00DFE00138002800D1F7E0FF2E00D099E039
:100D7C000D004346002B00D185E08027FF031F4365
:100D8C007F02FF207F0AA6E75246002A74D0012278
:100D9C0052429046C1444A46002A00D1C8E0FF2C7A
:100DAC0000D05FE7E6E701225140A94200D049E7B5
:100DBC00FF2252429146A1444A46002A43D0311B9D
:100DCC00002C00D18CE0FF2E00D192E080236246F3
:100DDC00DB041A43944601231B2909DC20206346BB
:100DEC006246CB40411A8A401100481E81410B4398
:100DFC003400534494E7FE22661C324264D1002C2A
:100E0C0000D082E06346002B00D1ABE05346002BB0
:100E1C0000D160E7634652469B1A5A0100D4AAE0FF
:100E2C00634652460D00D31A44E75246002A23D09B
:100E3C00012252429046C1444A46002A75D0FF2CEA
:100E4C0000D05FE796E7FE260134264253D10028F6
:100E5C0072D16346002B00D193E05346002B00D196
:100E6C0039E7634400245A0102D54A4A013413403D
:100E7C005A0700D020E7DB08FF2C00D17AE75B0291
:100E8C005F0AE0B227E7FF20002724E7414B241A32
:100E9C0033400FE7FF2E00D16AE780236246DB0464
:100EAC001A43944601231B2809DC2024634662461E
:100EBC00C340201A82401000441EA04103435246F6
:100ECC000D003400D31ADCE6634652469E1A7301B9
:100EDC0017D4002E00D0D9E6002500200027FAE612
:100EEC006346002B44D0013900294CD0FF2E00D092
:100EFC0071E743463EE7FF2CC5D052466244530887
:100F0C00B6E763460D00D61AC0E66246002A16D133
:100F1C005346002B00D02BE780270025FF20FF0332
:100F2C00D9E60D0043463400A6E753466344F7E682
:100F3C00634652469B1AA4E66246002AD9D0524612
:100F4C00002A00D116E78022D203134200D111E708
:100F5C004046104200D00DE70AE752460D0034001F
:100F6C00D31A8EE65346002B08D00D004746B2E646
:100F7C004346340080E7002B00D079E7002500279A
:100F8C00A9E64746A7E6534634006344C8E6C04684
:100F9C00FFFFFF7DFFFFFFFB41024200C30F490A29
:100FAC000020120E7E2A03D99D2A02D9094A9818CC
:100FBC007047802000040143952A07DC9620821A92
:100FCC00D1404842002BF3D10800F1E7963A91400A
:100FDC00F7E7C046FFFFFF7F70B5051E0ED001F08E
:100FEC001FFF9E2304001B1A962B0CDC082801DD26
:100FFC00083CA5406D026D0AD8B201E00020002526
:10100C00C005284370BD992B09DD020029001B3255
:10101C0091404A1E91410522121AD5400D43052CD0
:10102C0001DD621F95402900084E31406A0709D046
:10103C000F202840042805D004314A0102D59F23F3
:10104C0031401B1B89014D0AD8B2D9E7FFFFFFFBCA
:10105C00F0B54F46D64646460D0001001800C0B507
:10106C0017002B035A0A4B0F1343CA009146020375
:10107C006E004100520AEC0F7D0F1543760D490DA1
:10108C00C00F8246AC46FF00721A844200D198E031
:10109C00002A00DC81E0002900D1B6E0C9498E426B
:1010AC0000D172E180212800090408438446382AC3
:1010BC0000DD5EE11F2A00DDEEE1202039006546EF
:1010CC00801A8740D14085400D4339004F1EB941ED
:1010DC006746D7402943DB1B4A46551AA945894127
:1010EC0049425B1A984643461B0200D4CCE0434667
:1010FC005B025B0A98464346002B00D12CE140462C
:10110C0001F08EFE01000839202228004346521AB5
:10111C008B40D0408D4003438E4200DD17E18E1B87
:10112C00721C1F2A00DDA7E1202118002E00891A4D
:10113C008D408840D640D340691E8D41304398463F
:10114C00002605436B0709D00F232B40042B05D039
:10115C002B1DAB42AD416D42A8441D0043461B0202
:10116C0000D494E0974B721C9A4200D19DE041460A
:10117C00954BED0819400B00520549075B022943BA
:10118C001B0B520D12051343E407234308001900EF
:10119C00E0BCBA46B146A846F0BD002A43D08A1B33
:1011AC00002E00D02AE14C461C4300D1D1E1541E44
:1011BC00012A00D11FE2834DAA4200D172E2220023
:1011CC0023E1002A00DC98E0002942D07D498E42C0
:1011DC0000D1DAE080212800090408438446382A2B
:1011EC0000DD29E11F2A00DC87E11100654620396A
:1011FC00CD40202A04D040206146821A91400F43F2
:10120C0039004F1EB9410D431BE12900394300D170
:10121C00B5E0511E012A00D1ABE16A48824200D1EF
:10122C00B2E10A0043E76949751C0D4200D0CFE0DA
:10123C00002E00D093E14946194300D1D1E161461B
:10124C00394300D0E3E149465807C9080143DB089C
:10125C0026E02900394300D191E0511E012A05D026
:10126C005848824200D18FE10A00B8E73D004D4456
:10127C004D45894163449846494288444346022679
:10128C001B0200D5EBE0013E6B0700D05CE7434648
:10129C00E9085A0711433200DB084A48824221D040
:1012AC001B0352051B0B520D6CE70023002169E751
:1012BC002A003A4369D04A465807D108DA088023F5
:1012CC001B0308431A4207D02900ED081D4203D125
:1012DC002A00FF0848073843430FC1005B07C908C1
:1012EC00194313000A001A4300D113E2802212039F
:1012FC0013431B03334A1B0B44E7002A4BD08A1BB6
:10130C00002E00D1E7E02F48814200D195E18020EA
:10131C0000040343382A00DD43E11F2A00DDDBE132
:10132C0020201D004E46801A8540D64035434E463F
:10133C0086403000D340461EB0419C440543ED1915
:10134C00BD429B415B42634498460E007FE01E4ABF
:10135C00761A13409846F5E6280001F061FD01006D
:10136C0018311F2900DCCFE62B00083883400025FC
:10137C00D2E662463A4311004F1EB941ACE64946EB
:10138C005807C9080143DB0887E749465A07C908CB
:10139C001143DB08A6E70D49701C084200D0BBE0E6
:1013AC00002E00D014E14946194300D175E1290003
:1013BC00394300D07EE149465807C9080143DB0890
:1013CC006EE7C046FF070000FFFF7FFFFE0700002F
:1013DC004946CD1B6146581AA94589414942884660
:1013EC0001004046091A8846090200D5A6E041468C
:1013FC00294300D07FE60023002451E7C74CA142CB
:10140C0000D1C7E0802424042343382A54DC1F2A4B
:10141C0000DDCCE020244846A41A1D004E46A04016
:10142C00D640A5400400D34062463543661EB44105
:10143C00D31A9C46254344E062463A4315006F1E7E
:10144C00BD414D444D4589414942884698444346E7
:10145C001B0200D418E7B14B01369E4249D04246DC
:10146C00AF4B01211A4013006A080D401543D907F0
:10147C005B0898460D4365E618001F3EF040202A95
:10148C0003D040218A1A93401D43691E8D410023CD
:10149C00002698460543F7E6110065462039CD40F5
:1014AC00202A04D040206146821A91400F43390013
:1014BC004F1EB94129430FE64A4613431D006B1ECC
:1014CC009D417D1BAF429B4162465B42D31A9846BD
:1014DC0054460E0007E64846184300D1B3E0501EB0
:1014EC00012A00D10DE18D4DAA4200D1A5E00200E8
:1014FC0010E732000023002144E620213800891A2D
:10150C0065468F408D40D040791E8F4105433D4349
:10151C006746D740DB1994E7804A904200D1ECE053
:10152C003900494449459241634452429B18DD07B6
:10153C0049085B08984606000D43A5E64A46BD1AC5
:10154C00AF42894162464942D31A5B1A98465446C7
:10155C00D1E56C07F9082143EB0804009DE64A46E7
:10156C001A4375D16146394314D1802300241B03DF
:10157C00BCE64A46D51BA9458941624649429B1A9D
:10158C005B1A98460126AEE54A46D1085A07114324
:10159C00DB08A7E66346F9085A0754461143DB08F3
:1015AC00A0E64A4613431D006B1E9D41C7E614007E
:1015BC001E00203CE640202A05D04024A21A93406D
:1015CC004A461A4391464D466B1E9D41354378E77A
:1015DC004A461A4300D06BE66B07F9081943EB082F
:1015EC0080E66146394354D06346F9085C072143D1
:1015FC00DB08040054E64A46BD1AAF4289416246F4
:10160C004942D31A5B1A9846040001266BE54A46F8
:10161C00D51BA9458941624649429A1A521A9046ED
:10162C00120232D54A46BD1AAF428941624649423E
:10163C00D31A5B1A9846040084E56346F9085A07E6
:10164C001143DB084EE6F90868070143EB0824E672
:10165C0062463A4300D198E64A46D1085A071143EC
:10166C00DA0880231B031A4208D06046C5081D42C5
:10167C0004D154462A00F908430719434B0FC900FB
:10168C005B07C908194313002CE64146294300D0D7
:10169C00FAE500230A00002402E66B07F908194357
:1016AC00EB08FDE56346F9085B0719436346040044
:1016BC00DB0817E63D004D4463444D45894198468F
:1016CC004942884443461B0200D4DDE54246144B94
:1016DC0001261A409046D7E510001E002038C6405F
:1016EC00202A05D04020821A93404A461A4391463C
:1016FC004D466B1E9D41354321E60200002300211F
:10170C0040E54A46D519BD42894163449846494251
:10171C008844B3E50021014A0B0033E5FF070000C4
:10172C00FFFF7FFFF0B557464E464546DE46E0B517
:10173C00814605000C03480092461F0085B0240B1F
:10174C00400DCE0F002859D0874B984200D198E01D
:10175C006B0FE4001C4380231B0423439846834BEC
:10176C00ED009B4600239946834400933C037B0089
:10177C005046240B5B0DFF0F002B67D07A4A934227
:10178C0018D07A49420F8C46E40059461443802203
:10179C0063441204CB1A14439B46C200002033004E
:1017AC007B409A464B460F2B00D9EFE070499B00CB
:1017BC00CB589F466F4B52469C462243E344002A2B
:1017CC0000D095E0494602231943894600240220A3
:1017DC00E5E700230024002552461B052343D207CE
:1017EC0013432800190005B0F0BCBB46B246A9460D
:1017FC00A046F0BD002400255B4BEDE74B46234390
:10180C00984600D189E0002C00D1E0E1200001F0E5
:10181C0007FB010002000B391D235B1A494610001F
:10182C00D940083884400B004D46234398468540E8
:10183C0051483C03831A9B460023994600937B0036
:10184C005046240B5B0DFF0F002B97D152462243C1
:10185C0055D0002C00D1CAE1200001F0E1FA0200C1
:10186C000B3A1D2301009B1A52460839DA408C4072
:10187C00144352468A40414B58449B4683440020B3
:10188C008DE74B462343984640D108239946063BA7
:10189C0000258346009369E7B246009B022BA9D032
:1018AC00032B00D111E2012B93D0354A5A44002A64
:1018BC0000DC3CE16B0700D0A7E1ED084346DB01FF
:1018CC0006D542462F4B1A4090468022D2005A44ED
:1018DC002D4B9A428EDC4346520558075C02054359
:1018EC00240B530D78E7BA46A04615000090D4E7B8
:1018FC004A4603231A439146032052464FE7494672
:10190C000123194389460024012048E70C239946FA
:10191C00093BA0468346009328E7042399460023FD
:10192C009B4601330025009320E7002380249A4630
:10193C0000250D4B24034FE7802341461B0319421E
:10194C0008D01C4206D11C432403BA461500064B92
:10195C00240B41E78024434624031C432403B24652
:10196C00014B240B38E7C046FF07000001FCFFFFCA
:10197C00A4A2010801F8FFFF0DFCFFFFF303000018
:10198C00FF030000FFFFFFFEFE070000444500D2EE
:10199C0016E100D111E101235B429C462E0040462A
:1019AC000025E3442302140E1C431B0C994623040C
:1019BC001F0C1202494600920197FEF749FC0200E7
:1019CC007A430B04310C804619438A420BD901230C
:1019DC005B429C460919E0448C4204D88A4202D9E5
:1019EC00831E98460919881A4946FEF731FC0904EA
:1019FC008C4631046646019A090C4243030031437C
:101A0C008A4204D90919013B8C4200D811E1891A88
:101A1C004246009E12041A43330C1F00100C9046D1
:101A2C00029313043204160C32001B0C5A43039617
:101A3C007B4346437843170CBC469B1963449E4238
:101A4C0003D980267602B44660441E0C3018160466
:101A5C001B04360C9E19814200D29CE000D197E009
:101A6C00AE1B091AB54280414042081A844200D18B
:101A7C0011E14946FEF7ECFB019A0B044243310C91
:101A8C00050019438A4207D90919013D8C4203D834
:101A9C008A4201D9851E0919881A4946FEF7D8FBD6
:101AAC0009048C4631046646019A090C4243030032
:101ABC0031438A4207D90919013B8C4203D88A4227
:101ACC0001D9831E0919039E891A32002D041D4366
:101ADC00029F2B041B0C5A437B439C46280C464309
:101AEC00130CB444634478439E4203D98026760297
:101AFC00B44660441E0C12041B04120C30189B18C4
:101B0C00814206D302D001231D43CEE6002B00D127
:101B1C00CBE661186E1EA14200D2A4E0814200D235
:101B2C00C9E000D1D9E03500EDE701256D42012176
:101B3C00891A382900DD4CE61F2900DC7FE01F23C1
:101B4C005B429A1A4346D340202904D04446654A46
:101B5C005A44944025436A1E954107222B43150095
:101B6C0000241D401A4200D1A1E00F2200241A408B
:101B7C00042A00D198E01A1D9A429B415B42E4185A
:101B8C001300220200D48FE001230024002523E659
:101B9C00B54200D364E743465A1E009B9C466544FD
:101BAC001F009D429B415B421B19C9188C423AD2C3
:101BBC00884263D860D0904652E7AA4200D9EAE640
:101BCC004346DE0758086B081E43ED07EAE6484615
:101BDC0001F026F901000200153120321C2900DC2D
:101BEC001AE64B46083883400025984620E601F05B
:101BFC0017F903001A00153220301C2A00DC30E6DD
:101C0C005446083B00229C4035E60F232B40042B06
:101C1C0000D152E605235B42AB429B4104355B424B
:101C2C00ED0898444AE68C42C5D1AF42C0D99046E3
:101C3C0016E78A4200D8EAE6831E0919E7E62A4A23
:101C4C0028005A44434695409340C8406A1E95412B
:101C5C00444603432B43CC405A0792D00F221A40E0
:101C6C00042A88D18DE73500814200D04BE7009AD9
:101C7C00934200D047E718E6AE429CD902235B4260
:101C8C009C46009BE0449C4665449D429B415B42C4
:101C9C001B19C918E4E6154A5A44002A00DC44E72B
:101CAC0001230025984409E665076402240BDB0830
:101CBC001D43002390E5009E023D7200B242BF41DD
:101CCC007F423C1909190092CEE780244346240335
:101CDC001C432403064B240B7EE5009A9A42EAD35C
:101CEC003500C4E73E0400001E040000FF030000A2
:101CFC00FF070000F0B54F464646D646944691463F
:101D0C001A03120B184DC0B54C000F0392465A0023
:101D1C00060080463F0B0120640DC90F520DDB0FEE
:101D2C00AC420AD0AA4203D0944201D157450DD0FF
:101D3C00E0BCBA46B146A846F0BD3D003543F7D1EC
:101D4C00A242F5D1524665462A43F1D10120C8453D
:101D5C00EED1994206D0002CEAD13E433000461E0B
:101D6C00B041E5E70020E3E7FF070000F0B54E4681
:101D7C0045465746DE4604001800E0B516001B0326
:101D8C001B0B324D0F034A0099464300A446B04644
:101D9C003F0B520DC90F5B0DC00FAA4229D0AB42AD
:101DAC0018D0002A2AD13C43A34665426541002B3A
:101DBC0002D14C46264327D0002D15D1814228D084
:101DCC000220013908400138F0BCBB46B246A94696
:101DDC00A046F0BD4D462E432FD1002AEED13C43F8
:101DEC0065426541002DE9D00028EDD1012040422B
:101DFC00EAE73D00254320D19342EBD0002BDDD107
:101E0C004C462643DAD1DBE75B460020002BDBD0C7
:101E1C00D6E79A420ADCE7DB4F45D1D810D0002038
:101E2C004F45D1D20029E1D00800CDE743425841BB
:101E3C000223404218400138C6E702204042C3E763
:101E4C00C445BDD80020C445BED2EBE7FF07000057
:101E5C00F0B54E4645465746DE4604001800E0B540
:101E6C0016001B031B0B314D0F034A009946430010
:101E7C00A446B0463F0B520DC90F5B0DC00FAA42D2
:101E8C0011D0AB4214D0002A2FD13C43A34665425B
:101E9C006541002B14D14C46264311D15B460020E2
:101EAC00002B17D010E03D00254312D193421CD1DA
:101EBC004D462E430DD1002A04D13C436542654169
:101ECC00002D0DD1814216D0022001390840013875
:101EDC0000E00220F0BCBB46B246A946A046F0BDCD
:101EEC000028F7D101204042F4E7002BEAD14C4600
:101EFC002643E7D1E8E79A4206DD434258410223E4
:101F0C00404218400138E5E79A42E9DB4F45DBD8FF
:101F1C0006D000204F45DDD20029E3D00800D9E7D8
:101F2C00C445D1D80020C445D4D2F5E7FF07000042
:101F3C00F0B557464E464546DE46E0B598460C038E
:101F4C004B000600924687B0240B5B0DCF0F002B85
:101F5C006CD0DD4A934200D186E0420FE40014437A
:101F6C00802212041443D94AC5009446634400935A
:101F7C00002399469B46434642461E03D20F5B0004
:101F8C0050469046360B5B0D00D178E0CE4A93421A
:101F9C001DD0CE49420F8C4600996344F6008C4606
:101FAC00164380229C44120463461643C200002050
:101FBC0000930099434601318C4649467B4001937E
:101FCC000F2900D97EE0C24B890059588F465246E2
:101FDC00009B324300D056E1BB4900268C4663443B
:101FEC00494600930223194389460220E1E7434600
:101FFC0001933400150083465B46022B5ED0032B05
:10200C0000D1F3E1012B00D018E1002200240025BF
:10201C00019B12052243DB071A432800110007B06D
:10202C00F0BCBB46B246A946A046F0BD2500054310
:10203C0000D141E1002C00D1ADE1200000F0F0FE18
:10204C00010002000B391D2310005B1A3100350012
:10205C0008388440D94085400C439E48831A00932D
:10206C00002399469B4686E70500254300D01CE1DA
:10207C00082200930223002491469B467BE752469C
:10208C00324300D10AE1002E00D176E1300000F09D
:10209C00C7FE02000B3A1D2301009B1A5246083959
:1020AC00DA408E40164352468A40009B8949181AE2
:1020BC0003008C466344002000937AE7002400253B
:1020CC00814AA5E72F0C2D042D0C2B00110C1204AA
:1020DC00120C53439846130028007B4399464843FF
:1020EC004844834640460B00000C824658467B43CE
:1020FC0050440293814506D99A4680235B02994647
:10210C00CA4453460293030C9B4643461B040004EB
:10211C001B0C9846030043440493330C99462B0044
:10212C003604360C7343984633007B439A464B4631
:10213C005D435F4343465544180C4019824503D90F
:10214C0080235B029A465744050CEB1905934346D2
:10215C001D042D0C00044019250C2404240C27000C
:10216C0057436A4390462A003B0C9A464A436143C4
:10217C00414451448344884503D980235B029846EB
:10218C0042443F040B0C3F0C0904C9192700984624
:10219C004B4677435C436E435D433B0C9946A41915
:1021AC004C4442440395A64204D980235B029846D2
:1021BC0045440395029B3F045B441E0083428041CF
:1021CC0023049846059B3F0C4744984676188E424C
:1021DC008941474440423D18A846934649428A46A5
:1021EC00C3449F42BF4180458041039BDA449846DB
:1021FC00534640427F420743240C934592418A4503
:10220C0089413F19DC0D049B75021D43681E8541F5
:10221C005346524249420A43BF184744F60D7F02C7
:10222C0035435A023C431543FB0100D4C1E0012164
:10223C006A080D401543E2071543640826496144BA
:10224C00002956DD6B0709D00F222A40042A05D03D
:10225C002A1DAA42AD416D4264191500E30104D553
:10226C0080211E4AC900144061441D4A914200DD80
:10227C0024E76207ED08640249051543240B4A0D57
:10228C00C6E60197B8E6104A0320944663444A46D2
:10229C00009303231A43914652468AE6494601238A
:1022AC00194389460026012083E60C220093032360
:1022BC00050091469B465EE6042399460023009355
:1022CC00013300249B4656E6FF07000001FCFFFF8C
:1022DC00E4A201080DFCFFFFFF030000FFFFFFFE5F
:1022EC00FE070000002380240025444A01932403A8
:1022FC008EE60120401A382800DD86E61F285BDDBB
:10230C001F2223005242511ACB401900202803D01F
:10231C003B4A6244944025436A1E95412A000A4375
:10232C0007210D000024154011425BD00F21002421
:10233C001140042953D0111D914292415242A418CC
:10234C000A0023024BD501220024002560E68023DD
:10235C001B031C4209D01E4207D133431C034346C6
:10236C001500240B254A019352E6802212031443D4
:10237C002403224A240B01974AE600F051FD030086
:10238C001A00153220301C2A00DC84E65646083B25
:10239C0000229E4089E600F043FD01000200153149
:1023AC0020321C2900DC4EE634000838002584401D
:1023BC0053E6009B9C4641E71249220061442E00E3
:1023CC008D408A40C640691E8D4132432A43C44029
:1023DC005307B6D00F2111400429ACD1B1E76507E2
:1023EC006402240BD2081543002211E6802212034A
:1023FC0014432403014A240B0AE6C046FF070000DD
:10240C003E0400001E040000F8B557464E464546F3
:10241C00DE460400E0B51F0010000B03620F4E00F7
:10242C00CD0F5B0A39031343490AE200440F2143E1
:10243C00C24C91469246C0007A008046760D520DF1
:10244C00FF0FA24200D1B4E001246740BB46BD425D
:10245C0000D188E0B41AA446002C00DCB2E0002ABB
:10246C0000D1C5E0B54A964200D18BE2802212041D
:10247C0011436246382A00DDA1E11F2A00DD16E275
:10248C0020270C00BF1ABC400200A0466446B8408E
:10249C00E240444614430200501E82416046C14053
:1024AC0022435B1A49468C1AA145924152429B1A0F
:1024BC00984643461B0200D417E143465B025B0A75
:1024CC0098464346002B00D16CE1404600F0A8FC36
:1024DC000200083A202120004346891A9340C84044
:1024EC0094400343964200DD57E1961B711C1F2953
:1024FC0000DDCBE1202218002600521A94409040B7
:10250C00CE40CB40621E9441304398460026044393
:10251C00630709D00F232340042B05D0231DA342AE
:10252C00A4416442A0441C0043461B0200D4DFE0DB
:10253C00824B01369E4200D1FBE04246804BE408C0
:10254C001A401300710552075B0222431B0B490D05
:10255C000905ED07194329431000F0BCBB46B246F0
:10256C00A946A046F8BDB41AA446002C58DD002A92
:10257C0000D19EE0714A964200D13BE180221204C8
:10258C0011436246382A00DDC1E01F2A00DCBBE1A2
:10259C000C00203AD44022006446202C04D0402762
:1025AC003F1BB940084380464446611E8C4114438E
:1025BC00B1E00C0004432AD0BB46BD422DD0614C87
:1025CC00A446B4446446002C5CD0941BA446002E54
:1025DC0000D015E14D461D4300D1C3E1651E012C11
:1025EC0000D10CE2554EB44200D1F8E1AC460EE1FC
:1025FC000A00024300D136E12200013A012C00D13D
:10260C00C6E14E4CA44500D1F4E0944631E70124D8
:10261C006740BB46BD4200D01CE74A4CA446B444BC
:10262C006446002C00D1CFE0941BA446002E00D1B0
:10263C005CE1424EB24200D1ECE1802636043343D9
:10264C006446382C00DDB3E11F2C00DD38E2202677
:10265C00361B1C00B4404F46A0466446E740444637
:10266C003C434F46B7403E00771EBE41344366465E
:10267C00F340C918241884429B415B4298461600CB
:10268C0088444EE0304A741C144200D0D6E04A46CE
:10269C001A43002E00D05BE1002A00D1A5E10A000C
:1026AC00024300D0BBE14A465907D2080A43DB0873
:1026BC0027E00A00024300D174E12200013A012C08
:1026CC0005D01E4CA44500D194E0944659E74844EB
:1026DC00484592415B189846040052429044434648
:1026EC0002261B0200D5C4E0013E630700D011E7AF
:1026FC004346B4465907E2080A43DB080F498C45A8
:10270C0040D061461B0349051B0B490D20E70143D3
:10271C000C00611E8C414C444C45924152429046F7
:10272C00984443461B02E0D5044B01369E4200D030
:10273C009FE03100002300220AE7C046FF0700009B
:10274C00FFFF7FFF01F8FFFFFE070000002A00D10A
:10275C0060E10A0002434DD04A465C07D20822438E
:10276C008024DB082403234207D0CE08264204D160
:10277C005D463300C20849070A43510FD200D20804
:10278C0049070A431100194300D1C8E1802109030C
:10279C000B431B03D5491B0BDAE6D549B61A0B4084
:1027AC009846B5E6200000F03BFB020018321F2AC9
:1027BC0000DC8FE6230008388340002492E60843AF
:1027CC000200501E82416DE6CA4C721C224200D09F
:1027DC00ADE04A461A43002EB8D1002A00D158E188
:1027EC000A00024300D059E14A465907D2080A436D
:1027FC00DB0886E74A465907D2080A43DB08C1E7DB
:10280C00BA4DAA4200D11EE180252D042B4364460B
:10281C00382C5DDC1F2C00DDD0E0202567462D1BFD
:10282C004E461C00FE40AC4034434E46AE40350094
:10283C00FB406E1EB541C91A2C434EE04A46141A91
:10284C00A1459241524290465F1A3A004746D21B2C
:10285C009046120200D58BE04246224300D030E66F
:10286C00002300254DE74A465907D2080A43DB08E6
:10287C0044E742469E4B61081A4013000122144063
:10288C000C43DA075B089846144341E61A001F3ED6
:10289C00F2401600202903D04022511A8B401C43D1
:1028AC00621E944100233443984600261DE70C0019
:1028BC00203AD44022006446202C04D040273F1BF1
:1028CC00B940084380464446611E8C412243E9E5E9
:1028DC004C4623431C00631E9C41041BA0429B419D
:1028EC005B42CB1A98465D461600E2E54E461E4307
:1028FC0000D1AEE0661E012C00D1FDE07B4FBC4246
:10290C0000D107E1B4469BE664462022121B0C0062
:10291C00944007009040A0466446421E9041624697
:10292C00E7404446D1403C4304435B18F3E66F4C0C
:10293C00A24200D1D5E048445B1848458941494240
:10294C005B18DC0740085B08984616000443CCE68D
:10295C00002A00D082E00A00024340D180230025E7
:10296C001B0313E74B07C2081A435D46CB08C5E6A9
:10297C004A46841AA0429241CB1A52429B1A98465C
:10298C005D469EE54A465907D2080A43DB08F9E63C
:10299C004A46141AA14592415B1A52429B1A984618
:1029AC00012686E54A465907D2080A43DB08A5E604
:1029BC004C4623431C00631E9C415BE665461E008F
:1029CC00203DEE40202C05D040252D1BAB404C4625
:1029DC001C43A2465446631E9C4134437DE74B077F
:1029EC00C2081A435D46CB08CCE60A00024300D16C
:1029FC0036E74B07C2081A435D46CB0881E64A46C8
:102A0C00841AA0429241CB1A52429B1A98465D46B8
:102A1C0001264EE54B07C2081A43CB08B2E64A46DC
:102A2C00141AA14592415F1A5242BA1A90461202E8
:102A3C006BD54A46841AA0429241CB1A52429B1A39
:102A4C0098465D4664E54B07C2081A435D46CB08C1
:102A5C0098E64B07C2081A43CB084FE60A0002431C
:102A6C0090D04A465C07D20814438022DB0812033C
:102A7C00134208D0CE08164205D1C00849070843B6
:102A8C0004005D463300610FE2004907D2080A4397
:102A9C0078E64B07C2081A43CB0832E648445B1869
:102AAC0048459241984652429044434604001B02CA
:102ABC0000D41AE642460E4B01261A40904614E604
:102ACC0066461F00203EF740202C05D04026361BC2
:102ADC00B3404C461C43A2465446631E9C413C43A7
:102AEC00C8E511000023002232E5C046FF070000B4
:102AFC00FFFF7FFFFE0700004A46141884429241F4
:102B0C005B18984652429044E9E54246224300D174
:102B1C00A6E6EAE54B07C2081A43CB0832E60022C8
:102B2C000149130014E5C046FF07000070B505000D
:102B3C000C480C03160049001A035B00240B490DCA
:102B4C00120B5B0D814208D0064900208B4203D149
:102B5C0032431000421E904170BD01202C43FBD12A
:102B6C00F2E7C046FF0700000A0030B5134C5300D3
:102B7C0009030500090B00205B0DD20FA34204DDF5
:102B8C000F48834202DD0F4BD01830BD802040032C
:102B9C0001430D48C01A1F2808DD0C48C31AD94040
:102BAC000B005842002AF0D11800EEE7084CC54043
:102BBC00A446634499400B002B43F2E7FE0300004C
:102BCC001D040000FFFFFF7F33040000130400000E
:102BDC00EDFBFFFF70B5002816D0C317C5185D407C
:102BEC00C40F280000F01CF9114A121A0A2816DC2E
:102BFC0003002E0015339E400B23181AC5405305B5
:102C0C002D032D0B5B0D03E0002400230025002673
:102C1C001B052B43E40723433000190070BD0B3810
:102C2C00854053052D0300262D0B5B0DF0E7C046A8
:102C3C001E04000010B5041E10D000F0F1F80F4B6C
:102C4C001B1A0A2811DC0B222100121AD140153054
:102C5C000A035B058440120B5B0D01E0002300228C
:102C6C001B0513432000190010BD22000B388240B5
:102C7C005B0512030024120B5B0DF1E71E04000030
:102C8C0070B543004602C40FFE201B0E591C750A7A
:102C9C0008420CD0E022920094466D07360B634438
:102CAC001B053343E40723432800190070BD002B98
:102CBC0014D1002D1BD0280000F0B2F80A281CDC1F
:102CCC000B232A001B1ADA40030015339D400E4BD0
:102CDC0012031B1A5B05160B5B0DE1E7002D09D0E7
:102CEC00320B80263603094B6D071643D8E70023B9
:102CFC000026D5E70026054BD2E703002A000B3B44
:102D0C009A400025E3E7C04689030000FF07000056
:102D1C0002004B00F0B508035B0D3D4ECC0F400A92
:102D2C00510F5F1C0843D50037420AD039495E1851
:102D3C00FE2E16DDFF230021DB050B43E0071843B5
:102D4C00F0BD002B06D1284327D005218901490A63
:102D5C00DBB2F1E70543EDD08021C903FF2301432A
:102D6C00EAE7002E1CDD920111004A1E9141C000C1
:102D7C006D0F014329434B0748D00F230B40042B05
:102D8C0000D004318023DB040B403FD0721CFE2E9C
:102D9C00D0D08901490AD3B2CEE700230021CBE77A
:102DAC003200173222DB80211E2209040843921BB9
:102DBC001F2A1DDD022149428E1B0100F1400E002D
:102DCC00202A04D0144A94466344984005432900B1
:102DDC004D1EA941314300264B07CED180200B005C
:102DEC00C004012203400142D3D1AFE70023ACE77A
:102DFC000A498C4629006344D1409D400A002900B1
:102E0C0098404D1EA94101431143E4E733009DE76F
:102E1C00FE07000080FCFFFFA2FCFFFF82FCFFFF0F
:102E2C001C2101231B04984201D3000C10391B0AEE
:102E3C00984201D3000A08391B09984201D30009B2
:102E4C00043902A2105C40187047C0460403020209
:102E5C0001010101000000000000000010B5002974
:102E6C0003D1FFF7DDFF203002E0081CFFF7D8FF8D
:102E7C0010BDC046F0B5224B22491B8883B09AB2D4
:102E8C008B4235D0160A2CD01F4BF6B21E701F4B3E
:102E9C001A706B46D91D0023022201259C461C4C3E
:102EAC0063460B700B780A2B14D86B1E9800C01855
:102EBC004000C018124BD7180B783F88C3185B0022
:102ECC00E7520B7802320133DBB20B700B7892B203
:102EDC000A2BEFD90135EDB2AE42E1D2002003B09E
:102EEC00F0BD0121084B01261970084B1A70D0E770
:102EFC000122054BFA201A700022044B1A70EEE7DF
:102F0C0000D80108FFFF000008000020B00A0020D4
:102F1C00240F0020F0B5C64600B50D4D2F78002FBC
:102F2C0012D0012400270B4E611E631C49001800AF
:102F3C007118984609F0B2F8192C00D90A274346A3
:102F4C00DCB22B78A342EFD2380080BCB846F0BD7F
:102F5C000800002070780020F0B557464E46DE463B
:102F6C004546E0B583B06B469E1D002398463380E2
:102F7C00194B21279A46194B9B4643469B001D0033
:102F8C00994645447C1F6D00A4B255442000310085
:102F9C0009F084F8338801346B70A4B21B0A2B70CF
:102FAC000235BC42F2D14F46002347447F005744C0
:102FBC007B7243460133DBB298465B461B78053483
:102FCC00A7B24345D9D2002003B0F0BCBB46B246F1
:102FDC00A946A046F0BDC046140E002008000020F3
:102FEC00F0B54646D6464F46C0B582B06B469E1DE0
:102FFC000023234D33802B780024002B3CD0214B15
:10300C00002198461F1D20004900CB30791880B252
:10301C0009F044F8611C2B788CB2C9B28B42F2D8FF
:10302C0038232700D0349C46A3B2994600239A46F5
:10303C009E37E044BFB245467C1FA4B2200031004D
:10304C0009F02CF8338801346B70A4B21B0A2B7076
:10305C000235A742F2D1434652465A720A239C4685
:10306C000537BFB2E0444F45E5D1002002B0E0BCCB
:10307C00BA46B146A846F0BD024B9846D0E7C046CA
:10308C0008000020B00A0020F0B585B000236A4685
:10309C00E42003A99381D38109F000F800250028CE
:1030AC0001D16B461D7B03A9E52008F0F7FF0E2329
:1030BC006B4404001900E62008F0F0FF0443A4B2AE
:1030CC000026002C04D16B469E89DB893604F61849
:1030DC0003A9E72008F0E2FF0E236B44040019005B
:1030EC00E82008F0DBFF0443A4B20027002C04D135
:1030FC006B469F89DB893F04FF18E92003A908F080
:10310C00CDFF00282FD0264CEA2003A908F0C6FFDB
:10311C00002804D16B469B891A0AA277E377EB202F
:10312C0003A908F0BBFF002806D16B4620229B891F
:10313C00190AA1540132A354237F002B02D0627FC1
:10314C00002A1ED1A37F002B02D0E27F002A1FD1C0
:10315C002023E35C002B03D02122A25C002A09D19E
:10316C00002005B0F0BD6B469B890D4C1A0A2277E6
:10317C006377C9E7009231003A00280004F0E0FCC4
:10318C00EEE7009231003A00280004F0D9FCD9E7B0
:10319C00009231003A00280004F0D2FCD8E7C04677
:1031AC00300B00208A2030B583B001A9400008F014
:1031BC0075FF002860D16B468E209B88494C01A975
:1031CC00237040001B0A637008F068FF00285ED172
:1031DC006B4616209B8801A9DA0BFF305B08227125
:1031EC00E38008F05BFF00285DD16B469B888B2049
:1031FC003D4D01A940002B8008F050FF002800D065
:10320C0069E06B469B88182001A9FF306B8008F0A1
:10321C0045FF00285BD16B469B88AB808C2001A9B5
:10322C00400008F03BFF6B4604001A20991DFF304C
:10323C0008F034FF0443A4B2002C3FD16B466A461D
:10324C00DB8892881B041343AB608D2001A94000DE
:10325C0008F024FF00282DD16B469B88AB811C20E5
:10326C0001A9FF3008F01AFF00281FD16B461B790B
:10327C000020AB7603B030BD8E201C4B194C9B88C4
:10328C0001A92380400008F009FF0028A0D01620D7
:10329C00164B01A91A7AFF3022715B89E38008F082
:1032AC00FDFE0028A1D0114B9B89A0E726230F4AD5
:1032BC00D35CDDE7C0235B01AB81D0E722230C4A52
:1032CC00D35C002B0AD0E1235B02AB60BDE7074B5C
:1032DC001B8AAB80A2E7054BDB8994E7034B5B6948
:1032EC00AB60B2E7A4720020247300200800002019
:1032FC00300B0020F0B54F464646D646C0B588B0D8
:10330C0000236A46D3830F3398460E3B0126EC24E8
:10331C009946374F05E004340136A4B20937082E1C
:10332C005ED01E236B441900200008F0B7FE051E6A
:10333C00F1D16B46DB8B190A1A0BB242EBD1424628
:10334C0040460A400842E6D0B0007B7483B29A46ED
:10335C0018001E23E9306B441900BA7280B208F0D1
:10336C009DFE6B46DB8B50461A0ABB731E23EA305C
:10337C006B441900FA7280B208F090FE6B46DB8B3E
:10338C0050461A0AFB731E23EB306B4419003A7338
:10339C0080B208F083FE6B46DB8BB87A1A0A3B745A
:1033AC00F3B219007A739A4609F03CFA4846797CD4
:1033BC00FB7A4A10059502400140387C0434049095
:1033CC00F87B01360390B87BA4B20290787B093766
:1033DC000190F8780090504609F02EFB082EA0D1F1
:1033EC00002008B0E0BCBA46B146A846F0BDC046C5
:1033FC0090230020F0B5D64646464F463220C0B545
:10340C0010F0A2F8061E6AD0364C2278FE2A55D14E
:10341C00431C994664239A46334B344F9846BA441E
:10342C002100351B143122782A5501348C42FAD1F3
:10343C0014224946380010F0BDFA14220021300045
:10344C0010F0C1FA2278FD2A3AD80023143D01E08D
:10345C00322B30D02A55627801330134DBB2FD2A8D
:10346C00F6D91D005A1EB25C002A01D00133DDB220
:10347C00280010F069F8F860002826D02A003100E6
:10348C0010F098FA434642461B7800210133137022
:10349C0030002A0010F097FA2378FE2B02D1143753
:1034AC00BA45BDD1300010F059F80020E0BCBA4646
:1034BC00B146A846F0BD31223225D4E7FF20F5E70E
:1034CC000122002500235242CDE7142200213800AE
:1034DC0010F079FA300010F041F80E20E6E7FB20EE
:1034EC00E4E7C04600DC010898110020407300207E
:1034FC0010B5FFF7BFFCFFF70DFDFFF72DFDFFF734
:10350C006FFDFFF7C1FDFFF74DFEFFF7F3FEFFF771
:10351C0071FF10BDF0B5C64600B5104E3378984615
:10352C00002B16D00023012498460D4F07E0192CD0
:10353C0001D90A2398463378ECB2A34209D3631E0F
:10354C005B00F95A651C0029F1D0A8B208F0D2FD35
:10355C00EDE7404680BCB846F0BDC04608000020F0
:10356C00707800200023F0B54646D6464F46984664
:10357C001C4BC0B599461C4B00269A4605E0534699
:10358C0001361B78F6B2B34226D34B46B400A419CD
:10359C0064001B5D002BF2D04546474601341C35B8
:1035AC0021374C44ADB2BFB221781B022800C91898
:1035BC00013589B2ADB208F09DFDBD4202D06378F1
:1035CC000234F1E7434605339BB298465346013625
:1035DC001B78F6B2B342D8D20020E0BCBA46B14652
:1035EC00A846F0BD140E002008000020F8B5DE46F9
:1035FC0057464E4645468B46E0B51C000AAB1B7839
:10360C0001009A460BAB1B78E42098460CAB1F7854
:10361C000DAB1E780EAB91461D7808F06BFD5B462A
:10362C00190A89B2E52008F065FD5B46E62099B2DF
:10363C0008F060FD4B46190A89B2E72008F05AFDE4
:10364C004B46240299B25444E82008F053FDA1B231
:10365C00E92008F04FFD43461902C91989B2EA2046
:10366C0008F048FD3102491989B2EB2008F042FDFF
:10367C000020F0BCBB46B246A946A046F8BDC046E9
:10368C008A2010B51E4C4000637821785B011943E9
:10369C0008F030FD8E202179E388C903194389B2E3
:1036AC00400008F027FD1620164CFF30218808F04A
:1036BC0021FD8B206188400008F01CFD18206379E7
:1036CC00217B1B021943FF3008F014FD8C2021894B
:1036DC00400008F00FFD1A206189FF3008F00AFD48
:1036EC008D20637B21791B021943400008F002FDF9
:1036FC001C20A17EFF3008F0FDFC002010BDC04650
:10370C00A472002024730020F0B5C646124E342259
:10371C000021300000B510F056F9104D2F78002F15
:10372C0016D00223012400279846192C00D90A2709
:10373C004346DCB22B78A3420AD3631E5B00F15ADA
:10374C00631C98460029F0D0180008F0D3FCECE775
:10375C00380080BCB846F0BD70780020080000200E
:10376C000E2330B512248FB06B446C44009303AA23
:10377C0006AB05A9012008F06FFF04AA08AB07A946
:10378C000220009408F068FF01230A936B46002581
:10379C009B89059809A909930B950EF00FF8022344
:1037AC000B932388089809A909930A950EF006F83B
:1037BC006B460022998905980EF0B4F905200AF0A1
:1037CC003DFB218808980EF0A7F903000020002B80
:1037DC0001D00FB030BD6B460122998905980EF0CF
:1037EC00A1F905200AF02AFB218808980EF094F91B
:1037FC00013843425841C0B2EBE7C046044B10B508
:10380C009968FCF779FC43425841C0B210BDC046E0
:10381C00A800002070B5017803000C003D3C3D2948
:10382C0000D144780D0006203E3D3C39002C27D0B9
:10383C00002D02D15A78002A24D0002902D15A78BE
:10384C00002A21D01A783E2A05D15E783D2E02D16D
:10385C009E78002E1AD03C2A05D15E783D2E02D1DE
:10386C009E78002E14D0212A05D15A783D2A02D1F7
:10387C009A78002A0ED00138C0B20028D6D170BD7B
:10388C000120FCE70220FAE70320F8E70420F6E722
:10389C000520F4E70620F2E770B50AF087F90AF084
:1038AC0027FA08F00DFD08F083FE07F093FA0AF0F2
:1038BC0051FA08F055FB0AF07FFA08F039FF00289E
:1038CC005CD1FFF74DFF002827D132200AF0B6FA61
:1038DC0006F0F8FF334EFFF70BFE0AF087FD07F0FA
:1038EC0067FF80219020304B01221B780901C00515
:1038FC00002B2AD10EF016F9FA2040000AF09EFA9D
:10390C008021902000220901C0050EF00BF903F074
:10391C009BFD23230122F25470BD22230122214E50
:10392C003220F2540AF08AFA06F0CCFFE1211F4D46
:10393C0049020124A96000E0A96820000134E4B226
:10394C000AF0C4FC072CF7D1C5E70EF0EBF8FA200F
:10395C0040000AF073FA8021902000220901C00572
:10396C000EF0E0F864200AF069FA80219020012220
:10397C00C00509010EF0D6F86420BFE70C4C0D4DC4
:10398C002368AB4204D008F04BFC002800D1256022
:10399C00BFF34F8F084B094ADA60BFF34F8FC04615
:1039AC00FDE7C046300B0020B00A00202473002035
:1039BC00F07F0020ADDEEFBE00ED00E00400FA0564
:1039CC0010B50CF059FC06F095FDFFF765FF03F000
:1039DC0079FF0AF0B3FD10BDF0B5C646114E124B7F
:1039EC00370005000124984600B5243782B0A54263
:1039FC000FD043461B8DBC705BBAB38403230022EB
:103A0C00009300212000073304F090F90A200AF0FB
:103A1C009BFD0134E4B2072CE9D1002002B080BC3C
:103A2C00B846F0BD300B002008000020F0B557461A
:103A3C004546DE464E46E0B583B06A46494B00AF7C
:103A4C001D78EB1DDB08DB00D31A9D466C46002D60
:103A5C000AD000230021444A5432E1540133DEB22F
:103A6C0011800232B542F8D80123162201382354B2
:103A7C003E4B42439C463C4B400018180123984651
:103A8C0001336244002154269C46A3467D60538832
:103A9C00002B0DD0855BDB08A94645468D40AA4618
:103AAC004D465446254364465B44013B85531C708C
:103ABC00013102320629EAD10223542299465C468E
:103ACC009346CA46284B7D689B4453460133DBB270
:103ADC009A46002D3CD0012300265B425344B44649
:103AEC0000221E00214804E00132D3B216309D4260
:103AFC002BD9A35CB342F7D15300A94601219046C0
:103B0C001D007E604B00C35A002B13D0DB08013B19
:103B1C00E25C002A0ED101264A1E964032005E4617
:103B2C00AE5B32435E46AA535246E25463460133BF
:103B3C00DBB29C4601310729E4D142464D460132A5
:103B4C00D3B27E6816309D42D3D86646002EBCD1C7
:103B5C000020BD4603B0F0BCBB46B246A946A04609
:103B6C00F0BDC04608000020300B0020240F0020C0
:103B7C00F0B5DE464E46454657460024E0B593B0B8
:103B8C0005000E002E22029106A8002105940FF0CC
:103B9C001AFF1A22002166480FF015FF2421654BED
:103BAC006A1E99469B185C541C7216235343624A36
:103BBC00012093461A005A440392B1B24300D35ADF
:103BCC00002B03D0DB088B4200D1A1E00130072889
:103BDC00F4D15A4B1C78002C00D1A6E04A4648463A
:103BEC000123FF260021D71D23309D4202D01A1835
:103BFC00FE5411700133A342F7DD04ABDF1C082324
:103C0C0000224B449C46904605AE32000121002315
:103C1C001078013301400132A342F9DB002900D0B6
:103C2C0081E03378002B3CD04B46FF201A7A0123DD
:103C3C0002E062469A5C0133904205D9FD5C002D8E
:103C4C0002D11000591EC9B29C42F2DC0131CBB238
:103C5C009846029B984528D043465A1E01231625A8
:103C6C00B3545B46554359190C335D194A440194BE
:103C7C004B88002B10D0DB08DBB2013BF05C00283A
:103C8C000AD1107A4B4401301C7AC0B2844203D959
:103C9C004446187224201C5402318D42E8D1019CF8
:103CAC00B3E74B46187A0200C1E71A004B469B1843
:103CBC00233319780023002901D10CE001001800EE
:103CCC001B4C013322544A46521823321078DBB273
:103CDC000A000028F2D1029B01204B441900039CDE
:103CEC004300E35A002B08D0114DCA79AC4662440C
:103CFC00013A1278DB089A4213D001300728EFD131
:103D0C00002013B0F0BCBB46B246A946A046F0BD9D
:103D1C00029B01211A004A44D171054AC0B21370AA
:103D2C00EFE7C0B2EDE74246C0E70022BEE7C0466F
:103D3C00EC730020B00B0020240F002008000020A2
:103D4C005B4BF0B51C0045464E46DE4657464034AC
:103D5C002200E0B59846574B060023CB23C2012521
:103D6C00196883B011609B886D42938021003223C7
:103D7C001122300000950AF02FFA4F4B012799467B
:103D8C003A004946200010F013F82000FCF7BEF969
:103D9C00013782B232232100300000950AF01CFA60
:103DAC00072FEDD1322303223000444900950AF04D
:103DBC0013FA434B1B78002B6AD0424B45469A466C
:103DCC00414B002499464035083F631C1A003F497B
:103DDC0028009B460FF0ECFF2800FCF797F93223E4
:103DEC0082B22900300000970AF0F6F916236343DB
:103DFC0098464246364B28009B5A05225900C91852
:103E0C00344B49009C46614410F026F832230522BD
:103E1C002900300000970AF0DFF93223300001222C
:103E2C002D4900970AF0D8F9294B43441C00284B24
:103E3C000C33984433004646984610E04946280017
:103E4C000FF0B6FF2800FCF761F9023482B232237E
:103E5C002900404600970AF0BFF9B4420AD06288A4
:103E6C00002AEBD00723514613402800D2080FF04C
:103E7C009FFFE7E7322302224046184900970AF0D9
:103E8C00ABF95B46DCB20E4B46461B78A3429CD882
:103E9C0001235B42009301223000114933330AF0B5
:103EAC009BF903B0F0BCBB46B246A946A046F0BD98
:103EBC00B00B002024A3010838A30108BCB10108F1
:103ECC000800002050A301084CA3010840A30108DE
:103EDC00240F0020049C010834A301085CA40108F1
:103EEC0020BC0108F0B54546DE4657464E463349E0
:103EFC00E0B540310A00324B824631CB31C231CB76
:103F0C0031C21B6883B0136001235B4200931B22F8
:103F1C00333350460AF060F92A4B1B78002B34D00F
:103F2C0001239946284B80279846284B3F029B46F5
:103F3C004B46224E5D1E00246D00403601E00A2CDB
:103F4C001BD022003900434611415B5B01341942FE
:103F5C00F5D023004A46594630000FF029FF3000B7
:103F6C00FCF7D4F801235B4282B200933100504637
:103F7C0033330AF031F90A2CE3D14B460133DBB26F
:103F8C009946104B1B784B45D2D20C49104B403103
:103F9C000A0031CB31C231CB31C211CB11C201235A
:103FAC005B4200931F22504633330AF015F903B0DD
:103FBC00F0BCBB46B246A946A046F0BDB00B0020F3
:103FCC0058A30108080000207078002094A3010871
:103FDC0074A30108F0B5DE464E4645465746E0B59B
:103FEC0085B002900AF0C2FB00230370954B0400CD
:103FFC001A789A46944B95491D00403528009846EE
:10400C000FF0D6FE290020000FF0F2FE904B9149E4
:10401C001A7C28000FF0CCFE290020000FF0E8FEDF
:10402C00062300228C4900932800043B0FF0C0FEAD
:10403C00290020000FF0DCFE884A894928000FF087
:10404C00B7FE290020000FF0D3FE864A86492800CF
:10405C000FF0AEFE290020000FF0CAFE2A00834BA1
:10406C0043CB43C2196820001160998801269180C6
:10407C009B79290093710FF0BBFE7D4B9B467D4BCA
:10408C0099463200594628000FF092FE2900200074
:10409C000FF0AEFE6E4B1433F35C042B0BD84A4678
:1040AC009B00D3589F462A00734B83CB83C283CB90
:1040BC0083C21B8813802900200001360FF098FE64
:1040CC00072EDED12A006D4BA14643CB43C243CB16
:1040DC0043C2290020000FF08BFE694B01259B4643
:1040EC00684E19E0706A06F073FC674AAB00070073
:1040FC004446D05806F06CFC40342A003B0059462C
:10410C00009020000FF054FE0135210048460FF0BE
:10411C006FFE3836072D11D03368002BE2D14446A0
:10412C0040342A00594920000FF042FE013521008D
:10413C0048460FF05DFE3836072DEDD14846FBF7AB
:10414C00E5FF4C460500524B0222190020189946F7
:10415C000FF030FCA81C1D224E4920180FF02AFC31
:10416C004D4B80269B4640239C461E3503954B4F5A
:10417C0000253602E04401E0062D15D02A0031005E
:10418C00534611411B780135013B5B00FB5A194228
:10419C00F2D059462A0040460FF00AFE4146200054
:1041AC000FF026FE062DE9D12000FBF7AFFF6B4682
:1041BC0005009889A8423ED00322494660190FF0A9
:1041CC00F9FB029B002B29D105B0F0BCBB46B246D3
:1041DC00A946A046F0BD2A00314B83CB83C26AE7C7
:1041EC002A00304B83CB83C203CB03C21B781370E2
:1041FC0061E72B002C4A83CA83C383CA83C311682B
:10420C0019609188998092799A7154E7274B1A68B2
:10421C002A609A88AA809B79AB714CE72000FBF747
:10422C0075FF01235B4282B2009321000298333365
:10423C0009F0D2FFC8E7601905221D490FF0BAFB3F
:10424C000435B9E7B00A0020B00B0020A8A3010880
:10425C00300C0020C4A30108E0A3010800A401084D
:10426C000CA4010824A4010830A401084CA40108E2
:10427C0060A40108589B010894A40108D0A401086B
:10428C0004A501084420002010130020E8A4010814
:10429C005CA4010834A5010854A50108707800201D
:1042AC0088A4010870A40108B0A4010868A401083E
:1042BC005CA50108F0B5C64600B5037806006D2B69
:1042CC000AD14378652B07D18378002B04D1264B78
:1042DC00187880BCB846F0BD30002449FBF70CFFC1
:1042EC00002837D033789846232B22D0204B1F78C8
:1042FC00002F0FD000241F4D29003000FBF7FCFECF
:10430C00002802D14346002B26D10134E4B20A35F1
:10431C00A742F1D10024144D383529003000FBF7A9
:10432C00EBFE00281AD001340A350A2CF5D1642092
:10433C00CFE7701C0FF0A7F8C3B2002B03D00C4AC8
:10434C0012789A4204D2084A662012789A42C0D156
:10435C0018B2BEE7FF20BCE720B2BAE7FE20240269
:10436C00204300B2B5E7C046B00A002064A501089E
:10437C0008000020140E0020F0B5C6462A4C8046DA
:10438C0025000E0000B5103521003000FBF7B4FEFF
:10439C0000283AD00434AC42F6D1244B1F78012FBC
:1043AC0010DD0125224C03E001350A34BD4209DA47
:1043BC0021003000FBF7A0FE0028F5D1072080BCBF
:1043CC00B846F0BD1B4D2C009C3538342100300014
:1043DC00FBF792FE0028F1D00A34A542F6D1164F15
:1043EC00164CFC6103E06468FC61002C0FD0236860
:1043FC001D682800FBF78AFE2900020030000FF030
:10440C001AFD0028EFD10820D9E70620D7E743464C
:10441C0098000B4F404440003100C0190FF003FDD1
:10442C00FFF7A0F8CBE7C046B49B010808000020BA
:10443C001E0E0020B00A0020300C0020CC00002002
:10444C00140E0020F0B54F464646D6463C4BC0B540
:10445C001F00383780460E0099463D000024290085
:10446C003000FBF749FE002851D001340A350A2CE4
:10447C00F5D1344C2500103521003000FBF73CFE03
:10448C0000284ED00434A542F6D12F4B1B789A4607
:10449C00012B12DD01252D4C03E001350A34AA4510
:1044AC000BDD21003000FBF727FE0028F5D107209B
:1044BC00E0BCBA46B146A846F0BD254B254C9A4601
:1044CC001C6204E0534664681C62002C0DD0236807
:1044DC001D682800FBF71AFE2900020030000FF0BF
:1044EC00AAFC0028EED10820E2E73B78002B1AD07A
:1044FC0001340A370A2CF8D18023DB004746013FF0
:10450C007F004F44BA8800201343BB80D0E70122C0
:10451C004746A240013F7F004F44BB881343BB80FA
:10452C00C6E70620C4E74B46A0000019383340000C
:10453C00181831000FF077FC0123A3401BB2DDE704
:10454C00B00A0020B49B0108080000201E0E0020B9
:10455C00300C0020CC000020F8B557464546DE460E
:10456C004E46E0B57E4E0AAC20CC83463078277898
:10457C0082462800441EA0413C0040013070601E61
:10458C0084410220644220408446202080248046BE
:10459C002405C444A24227D2724C04302254220077
:1045AC0024325370082B14D86F4A9B00D3589F4663
:1045BC000B682434A3710B681B12E3710B681B147A
:1045CC0023720B681B160A2261465846637203F06D
:1045DC003BFE534600203370002D22D1F0BCBB466D
:1045EC00B246A946A046F8BD24208046002081464C
:1045FC0040464F465B4CA044275440464370100E37
:10460C00814640464F468770100C814640464F46C7
:10461C0052BAC7702285082BDBD8544A9B00D3585A
:10462C009F460BF041FE24260400514FB85D002834
:10463C00D4D00BF039FE001BA842F7D3B85DCDE700
:10464C000B782434072261465846A37103F0FCFD15
:10465C00BFE70B782434032220215846A37003F0C3
:10466C00F3FDB6E70B882434A3700B881B0A0422D5
:10467C0020215846E37003F0E7FDAAE70B782434B9
:10468C00A3704B780A22E3708B7858462371CB7851
:10469C0063710B79A3714B79E3718B792372CB79AD
:1046AC002021637203F0D0FD93E70B782434A371BF
:1046BC004B780E22E3718B7858462372CB78637259
:1046CC000B79A3724B79E3728B792373CB796146A7
:1046DC00637303F0B9FD7CE70B682434A3700B689B
:1046EC001B12E3700B681B1423710B681B1606223C
:1046FC0020215846637103F0A7FD6AE70B68243448
:10470C00A3700B681B0AE3700B681B0C23710B68FE
:10471C001B0EECE70B882434A3700B881BB21B1206
:10472C00A5E70B682434A3710B681B0AE3710B68B3
:10473C001B0C23720B681B0E45E70B882434A371EA
:10474C000B881BB21B12082261465846E37103F01A
:10475C007BFD3EE70B882434A3710B881B0AF2E720
:10476C00A4720020300B00206C9B0108909B010868
:10477C00300C002030B5012183B01E200EF08AFED3
:10478C00040009480949027D058B837D013A019596
:10479C00407D92008A180090126920002C310FF095
:1047AC0007FB200003B030BD24730020B49B01082C
:1047BC0000B5084B0A001978012385B00393023B1E
:1047CC0002930193033300930B0003F063FD05B0D8
:1047DC0000BDC046B00A0020002330B505000C0017
:1047EC0087B000220021049303930293019300935A
:1047FC000020FEF7FBFE691ECB005B1A114ADB00A2
:10480C009B58611E002B12D0CB005B1ADB009B580F
:10481C002800002B04D107F023F8002007B030BD8E
:10482C0007F01EF8200007F01BF80020F6E7CB007D
:10483C005B1ADB009B58002B01D02000EBE76820B3
:10484C00ECE7C04644200020F8B5CE46474680B57C
:10485C00264E274D33788046013B9C00E418A4007B
:10486C002C19E3689946002B2FD01800FBF74EFC4F
:10487C0007004046FBF74AFC3918023148460FF056
:10488C00D5F83278E060013A93009B189B00EB1846
:10489C00D8687A1C801841460FF0C5FA3278013A74
:1048AC0093009B1813229B00EB18DB68DA553378C6
:1048BC00013B9800C01880002818C368002B0ED04C
:1048CC000020C0BCB946B046F8BDFBF71FFC013058
:1048DC000EF03AFE4146E0600FF0A5FAF0E7142224
:1048EC0000210FF070F80E20EBE7C0469811002065
:1048FC0040730020F0B557464E46DE464546E0B5BF
:10490C00CD4E040037788BB0052F6AD0BB00CB4D51
:10491C00D81980009A462B18994600234A46023033
:10492C0013800021042228180FF04DF82378622BF5
:10493C0002D1A3782E2B57D0331D98461800210096
:10494C000FF071FABE4F4046390010F0E3F8390011
:10495C000400002010F0DEF839008046002010F032
:10496C00D9F80700002C39D02000FEF747FF81460C
:10497C0000282ED14346002B30D0002F2ED03800EB
:10498C00FEF73CFF002862D004223778BC00E31904
:10499C009B00EA544A46EB18DA70D8714046FEF791
:1049AC0039FF3278E4199300A4009B182C199B0052
:1049BC006070ED186B78002B10D0002398460132F4
:1049CC00327040460BB0F0BCBB46B246A946A0467E
:1049DC00F0BD4346002BD0D1002F70D067239846F2
:1049EC00EFE70E239846ECE76378303BDBB29B464F
:1049FC00002398465B46062BE3D8494601235846CC
:104A0C000B80E31C8870072218008E4907930FF067
:104A1C0012FA002835D00E228B4907980FF00BFAAA
:104A2C00002859D106234A46D3705B46DA00874BDF
:104A3C005A449B18022211001B7A194088461A42CC
:104A4C0000D183E00023984601373770B9E73278FC
:104A5C00380093009B1803229B00EA544A46EB183B
:104A6C00DA700EF005FDFEF753F937780990BC00AB
:104A7C00E019800006300422281809A90EF09AFFCC
:104A8C008CE705234946CB705946704BCA005A44F3
:104A9C0001219B1801221B7A194088461A42D1D158
:104AAC00012304910593039102910191009100233C
:104ABC0000220121584607F0BFFF3778C4E70221D6
:104ACC00327893009B189B00E954ED1800230132B7
:104ADC009846E870327074E70C225D4907980FF025
:104AEC00AAF9002813D15B46DA00584B5A449B189C
:104AFC009A789046002A38D0DA789046002A51D01D
:104B0C001B799846002B7DD00C2398469CE70D22F0
:104B1C00504907980FF08FF9002895D15B464B4A06
:104B2C00D900CB18D31858798046002852D09B79DD
:104B3C009846002B00D18FE059445218D3799846EF
:104B4C00002B00D1A7E00D2398467DE701230491AB
:104B5C000593039102910191009100230021584685
:104B6C00013A07F069FF37786EE709234A462000BF
:104B7C00D3700F300EF081FC3178C3B28A0052181A
:104B8C009200AD1801222B710592424604920392B9
:104B9C0002920192009200220021584607F04CFF2D
:104BAC00377851E70A234A462000D3700F300EF0B5
:104BBC0064FC3278C0B293009B189B00ED18012363
:104BCC002871059343460090049303930293019339
:104BDC000023E0E70C234A462000D37010300EF07F
:104BEC004CFC3278C0B293009B189B00ED1801234B
:104BFC002871059343460290049303930193009309
:104C0C000023C8E73B000B22200053449B00EB1809
:104C1C00DA700F300EF031FC3278C0B293009B1872
:104C2C009B00ED1801232871059300230190049338
:104C3C00039302930093AEE7981100204073002079
:104C4C0064A40108F0B1010828AA010890230020EF
:104C5C0038AA010848AA01081433200099465F437A
:104C6C00073BEF19FB7010300EF007FC4A46337807
:104C7C0000215343ED180123C0B228710A0005939B
:104C8C0003900B005846049102910191009107F09A
:104C9C00D3FE3778D8E61433200099465F43063BA1
:104CAC00EF19FB7010300EF0E8FB4A463378C0B2B7
:104CBC005343ED1801232871059343460393029344
:104CCC0001930093002304901A001900584607F032
:104CDC00B3FE3778B8E6C046F0B54E46DE465746CA
:104CEC004546E0B51E0000238BB003908A461500A4
:104CFC000021052208A807930EF065FED04BD14C7D
:104D0C0099462B782A000320002B0AD0E15C014045
:104D1C00012901D12033DBB2137053780132002BFF
:104D2C00F4D136274B46DB5D9846002B62D0062229
:104D3C002800C5490FF07FF8002800D1BFE043469A
:104D4C00022B39D12800FFF77FFD002800D0D2E0DC
:104D5C000D2333705346002B00D1A7E000239B4654
:104D6C003000FBF7D3F901235B4282B20093310090
:104D7C000398333309F030FA3000FBF7C7F9002100
:104D8C00020030000EF01FFE5B46002BB9D1092249
:104D9C00002107A80EF017FE36234A46D35C002BE1
:104DAC0003D15346002B00D0B1E00BB0F0BCBB4696
:104DBC00B246A946A046F0BD2E2128000FF025F8DA
:104DCC00071E09D0C31E1A78622A2BD15A786F2A73
:104DDC0028D19B78732B25D1992231002800920081
:104DEC0009F040FC83463378002BC5D05346002B8A
:104DFC00C2D0B5E72B78692BDED16B78662BDBD173
:104E0C00202252429046AB789844202BD4D1E81CF7
:104E1C00FFF770FD002865D102234A46D3550B33AA
:104E2C00337097E77B78874AD35C5B07D4D429002F
:104E3C007A1B07A80FF010F807A8FFF73BFA834B73
:104E4C0080461B78049398426BD0642859D066280E
:104E5C006FD0FF2800D1ACE0C3B20593FE2B00D17C
:104E6C0016E17B1C0622180079499B460EF0E3FFE5
:104E7C00002864D1059B774F9B460022192138707E
:104E8C00180003F0E1F9642009F05EFB724B5946FF
:104E9C001A786E4B1878002305F0B2FC3B78602B27
:104EAC0000D1B6E03378002B00D053E73000FBF78D
:104EBC002DF90021020030000EF085FD67E74B460E
:104ECC001A78D855013A93009B18644A9B00D31862
:104EDC0001221A7405F066FB4122300060490EF085
:104EEC0069FD37E7522230005E490EF063FD4B46F8
:104EFC004246DA552EE7522230005A490EF05AFD3E
:104F0C0028E72722300058490EF054FD22E70123F0
:104F1C005B420093382255490398333309F05CF90E
:104F2C0043E799223100781C920009F09BFB8346E1
:104F3C0059E7252230004E490EF03CFD0AE72800C7
:104F4C00FBF7E4F807AB04901800FBF7DFF8049AC2
:104F5C005946013A121A070046480EF07DFF280008
:104F6C00FBF7D4F8421ED21B172192B2059803F01E
:104F7C006BF94246300040490EF01AFF3378002B93
:104F8C000DD05346002B0AD03000FBF7BFF801239D
:104F9C0082B2009331000398313309F01DF93000CF
:104FAC00FBF7B4F80021020030000EF00CFD294F85
:104FBC0074E71A22002131480EF005FD2800FBF79A
:104FCC00A5F8834607A8FBF7A1F85A468046013797
:104FDC00013A3900121A27480EF03EFF2800FBF761
:104FEC0095F84346C31A9BB21722FF21049803F08D
:104FFC00E5F8992231009200380009F033FB834622
:10500C003000FBF783F81D221D4930180EF0D2FC3E
:10501C00E9E6FA21012089000AF0DAFE194B1B7827
:10502C00002B00D13EE7184A300013881749013392
:10503C001380434632000EF0BBFE337833E7C04694
:10504C009811002012D20108ACAA0108B00A002065
:10505C0094AB0108A4720020400C00204073002087
:10506C00B4AA010858AA0108F8AA0108E0AB010883
:10507C0020AB0108540B00209CAB0108F80D00205C
:10508C0048AB0108540C00202E1B0020C0AB0108BB
:10509C000012C3B298464946372340461A22C854D8
:1050AC0000211D480EF08FFC2800FBF72FF807A9F4
:1050BC0005900800FBF72AF8059A0137013A121AF5
:1050CC003900059015480EF0C7FE2800FBF71EF8B6
:1050DC0005991722431A9BB24146049803F06EF8C7
:1050EC000F49104A0B784946013B5B009B5A37220B
:1050FC008A5C1341DB0706D4320030000A4907AB47
:10510C000EF056FE6FE6992231003800920009F03D
:10511C00A9FA8346F0E7C046F80D0020540B002096
:10512C00B00A0020B40A002068AB0108F0B5DE46D6
:10513C0057464E464546E0B587B002AB9C460F2419
:10514C000121002364444942012023700AF040FEEF
:10515C0009F00CFBE1235E4A039092681B039A4210
:10516C0000D1B2E001255B4B1E001B789D4205D09F
:10517C00E1212800090309F0A9F833780135EDB2D3
:10518C00072DF3D1544B554D1A88317853009B1889
:10519C00534A5B009B18534A38351278280000910B
:1051AC0051490EF005FEA4220A2350499200307892
:1051BC0009F048F82800FAF7A9FF0A2382B229005F
:1051CC00307809F03FF800239A46494BD1469B466C
:1051DC00484BB2469846534618785B46451E5B5D75
:1051EC00BF2B1BD86A0051198901414494464E1CAF
:1051FC0007E0BF2B03D13278002A5CD1BE3B0133D0
:10520C009BB2CA5C1F00002AF3D0227062460021B8
:10521C00521992014244D1555A4653550A23012240
:10522C00210009F00FF823780D2B16D00A2B11D082
:10523C00082B32D07F2B30D01A00203A5E2A09D8A6
:10524C004A46312A06DC4D462B4A01354A44137531
:10525C006BB2994609F0CCFBBDE753460222187895
:10526C0026490A2308F0EEFF4B46002B26D0534666
:10527C00214D18781435039B2A000121FFF72CFDD2
:10528C001648290060300EF0CEFD32220021280095
:10529C000EF099FB00239946DCE74B46002BD9D046
:1052AC004D46013D6AB29146134AEBB29446002238
:1052BC0063441A75CEE701270123A6E707490E4878
:1052CC00603114300EF0AFFDD1E7024B1E0059E7F0
:1052DC0024730020400C0020300000209811002086
:1052EC00049C0108B00A00201CAC010848AC010861
:1052FC0064130020A41300201812002080CE010893
:10530C00F8B51A4B0D001A78013A93009B18184AFD
:10531C009B00D318DB68002B26D0164FBC6C002CDE
:10532C0014D02378002B0ED0132120000EF06DFD2D
:10533C00061E0ED0021B210028000EF08DFD012050
:10534C000136BE64F8BD0020BB64FBE70400B86402
:10535C00E7E7210028000EF066FD2800FAF7D6FEDC
:10536C002418BC640120EDE70020EBE79811002025
:10537C004073002018120020830030B518182E49F5
:10538C008000435C83B0012B20D0032B1BD10C1865
:10539C00E2780630013A53009B18284A9B009B5830
:1053AC004118042201A81D680EF004FB6378062B3B
:1053BC0009D8234A9B00D3589F460198291CFBF718
:1053CC009BF8002814D1002003B030BD0818827857
:1053DC00C078D3009B181B4A9B5C181A4342584157
:1053EC00C0B2F1E70198291CFBF76CF80028EAD150
:1053FC000021281CFBF766F843425841E4E701986A
:10540C00291CFBF75FF8431E9841DDE70198291C26
:10541C00FBF75EF8431E9841D6E70198291CFBF771
:10542C0061F8431E9841CFE70198291CFBF76EF8F1
:10543C000028C8D0DCE7C04640730020A80000203C
:10544C00B49C010890230020F8B5DE464E46454634
:10545C005746E0B509F08AF9234B060098461B78AD
:10546C00002B39D0214B224F9B4620239A46214BAF
:10547C0000249946204D4C3706E0434601341B78F6
:10548C00A4B21435A34227D92B7C002BF5D0E0B263
:10549C00FFF772FF0028F0D05B4652461A700EE000
:1054AC004B463A00002118783300FFF715FC30000A
:1054BC00FAF72CFE0021020030000EF084FA3900BD
:1054CC00E868FFF71DFF0028EAD1434601341B783A
:1054DC00A4B21435A342D7D80020F0BCBB46B246C8
:1054EC00A946A046F8BDC04698110020A472002021
:1054FC0018120020400C0020407300200020704740
:10550C0010B5034B03491A880EF052FC002010BD55
:10551C00CCF7FF1FDCAE010810B50023040082B0ED
:10552C00684601A90093019307F0CAFB6946200065
:10553C000EF079FC0198FDF7A3FB02000B00200094
:10554C0002490EF035FC002002B010BDFCAE010883
:10555C0010B50023040082B0684601A900930193A2
:10556C0007F0AEFB694620000EF05DFC0098FDF7DD
:10557C0087FB02000B00200002490EF019FC0020F2
:10558C0002B010BD24AF01080023F0B5140085B0A3
:10559C00019302930023012101AA0600200003932A
:1055AC0009F0E8F805000221200002AA09F0E2F84F
:1055BC002B780400323B012B07D9152230001949F6
:1055CC000EF0F8F9002005B0F0BD28000DF05BFFDF
:1055DC00154FC5B239002000FAF78EFD002805D012
:1055EC0020001249FAF788FD002815D1390028004F
:1055FC0007F044FD03AA3900280007F095FD03A924
:10560C0030000EF010FC0398FAF7D2FF084982B272
:10561C0030000EF0CDFBD5E71222300005490EF01C
:10562C00C9F9CFE778AF010848AF01084CAF0108C2
:10563C0054AF010864AF0108F0B55746DE464E463C
:10564C0045460023E0B585B003935C4B01211B78E4
:10565C00824602AF100003AA3B7009F08BF8584940
:10566C000400FAF749FD00285CD1564D564A2B78B8
:10567C000124D218013A1678544A904603E00134BA
:10568C00072C47D02B78E2B291469342F7D00EF01C
:10569C00B3F9642301223870390000939B464846C5
:1056AC005A3B08F099FD484608F022FE03683A7808
:1056BC009B8CDBB29A423FD02200454950460EF0FB
:1056CC0077FB5046FAF722FD5B4682B251462878AA
:1056DC0000930A2308F080FD54223E4950460EF0F8
:1056EC0069F9642328785322009351465A3B08F0F9
:1056FC0073FD013602E001200AF0DCFD2A78013A44
:10570C0053009B189B0143449B5D002BF3D0013449
:10571C00072CB7D1002005B0F0BCBB46B246A94659
:10572C00A046F0BD0023E356702B16D00F22504636
:10573C0029490EF03FF9EDE72200284950460EF0BA
:10574C0037FB5046FAF7E2FC5B4682B251462878AA
:10575C0000935A3B08F040FDBEE7601C0DF093FE31
:10576C00C5B26B1E0400052B05D91B2250461C49E3
:10577C000EF020F9CEE70EF03FF9642301223870C9
:10578C00390000932800323B08F026FD002008F079
:10579C00AFFD03683A789B8CDBB29A4206D0FF22AD
:1057AC0050460B4922400EF003FBB3E7FF22504654
:1057BC000A4922400EF0FCFAACE7C04640B00108A2
:1057CC0064A50108400C002064130020A4130020E1
:1057DC00ACAF0108C0AF010830B0010890AF0108B0
:1057EC0014B0010870B51400002382B005006A469D
:1057FC00012120000093019308F0BCFF0023C35645
:10580C00702B10D00221200001AA08F0B3FF002356
:10581C00C356702B2FD00F22280019490EF0CAF84E
:10582C00002002B070BD01300DF02DFE02210600EB
:10583C0001AA200008F09EFF0023C356702BEAD16A
:10584C0001300DF020FE0400C1B2F0B2FEF7C4FF2F
:10585C00002808D1FF2223002800134009493240B8
:10586C000EF0A6FADCE76728D5D0192228000649E5
:10587C000EF0A0F8D4E701300DF005FECBE7C046E2
:10588C0030B0010844B0010864B0010870B51400D0
:10589C00002382B005006A46012120000093019389
:1058AC0008F068FF0023C356702B10D00221200093
:1058BC0001AA08F05FFF0023C356702B2FD00F22D4
:1058CC00280019490EF076F8002002B070BD0130A6
:1058DC000DF0D9FD0221060001AA200008F04AFFB4
:1058EC000023C356702BEAD101300DF0CCFD04001F
:1058FC00C1B2F0B2FEF75CFF002808D1FF222300F2
:10590C0028001340094932400EF052FADCE76728B0
:10591C00D5D01722280006490EF04CF8D4E70130F8
:10592C000DF0B1FDCBE7C04630B0010880B00108E6
:10593C00A4B00108F0B5D64646464F460025C0B582
:10594C0082B001210600100001AA019508F012FF97
:10595C000DF093FDC4B2002C03D02C4F3B78A34226
:10596C000BD2232230002A490EF024F8002002B07A
:10597C00E0BCBA46B146A846F0BDFF2303409A46A8
:10598C00013B9800C018234B800099468046C844C0
:10599C0043460230042200211D8048440EF013F8C7
:1059AC0042460023D06813740DF0D8FD4346DD60E9
:1059BC003B7898469C421DD253469D005544AD0001
:1059CC004D4404E00134E4B21435444512D02B7834
:1059DC00002BF7D0280029001422143801340DF0C4
:1059EC00E9FFE4B22800142200210DF0ECFF14357D
:1059FC004445ECD14346013B3B7004F0D3FD3622C9
:105A0C00300005490DF0D6FFB0E7C04698110020D4
:105A1C00F4B0010840730020BCB0010830B500257B
:105A2C0083B001210400100001AA019508F0A2FE28
:105A3C000DF023FDC3B2002B03D00E4A12789A420C
:105A4C0007D2232220000C490DF0B4FF002003B034
:105A5C0030BDFF231840013883001818074B800015
:105A6C001818057404F09EFD3522200004490DF031
:105A7C00A1FFEBE798110020F4B00108407300205F
:105A8C0018B10108002310B582B0012104001000E8
:105A9C0001AA019308F06EFE0DF0EFFCC3B2002BCF
:105AAC0003D00F4A12789A4207D2232220000D49C4
:105ABC000DF080FF002002B010BDFF23184001380C
:105ACC0083001818084B800018180123037404F085
